{
	"contracts/Codes(EASY)/SafeMath.sol": {
		"SafeMathExample": {
			"abi": [
				{
					"inputs": [
						{
							"internalType": "uint256",
							"name": "x",
							"type": "uint256"
						},
						{
							"internalType": "uint256",
							"name": "y",
							"type": "uint256"
						}
					],
					"name": "add",
					"outputs": [],
					"stateMutability": "nonpayable",
					"type": "function"
				},
				{
					"inputs": [
						{
							"internalType": "uint256",
							"name": "x",
							"type": "uint256"
						},
						{
							"internalType": "uint256",
							"name": "y",
							"type": "uint256"
						}
					],
					"name": "div",
					"outputs": [],
					"stateMutability": "nonpayable",
					"type": "function"
				},
				{
					"inputs": [],
					"name": "get",
					"outputs": [
						{
							"internalType": "uint256",
							"name": "",
							"type": "uint256"
						}
					],
					"stateMutability": "view",
					"type": "function"
				},
				{
					"inputs": [
						{
							"internalType": "uint256",
							"name": "x",
							"type": "uint256"
						},
						{
							"internalType": "uint256",
							"name": "y",
							"type": "uint256"
						}
					],
					"name": "mul",
					"outputs": [],
					"stateMutability": "nonpayable",
					"type": "function"
				},
				{
					"inputs": [
						{
							"internalType": "uint256",
							"name": "x",
							"type": "uint256"
						},
						{
							"internalType": "uint256",
							"name": "y",
							"type": "uint256"
						}
					],
					"name": "sub",
					"outputs": [],
					"stateMutability": "nonpayable",
					"type": "function"
				},
				{
					"inputs": [],
					"name": "value",
					"outputs": [
						{
							"internalType": "uint256",
							"name": "",
							"type": "uint256"
						}
					],
					"stateMutability": "view",
					"type": "function"
				}
			],
			"devdoc": {
				"kind": "dev",
				"methods": {},
				"version": 1
			},
			"evm": {
				"assembly": "    /* \"contracts/Codes(EASY)/SafeMath.sol\":88:846  contract SafeMathExample {... */\n  mstore(0x40, 0x80)\n  callvalue\n  dup1\n  iszero\n  tag_1\n  jumpi\n  revert(0x00, 0x00)\ntag_1:\n  pop\n  dataSize(sub_0)\n  dup1\n  dataOffset(sub_0)\n  0x00\n  codecopy\n  0x00\n  return\nstop\n\nsub_0: assembly {\n        /* \"contracts/Codes(EASY)/SafeMath.sol\":88:846  contract SafeMathExample {... */\n      mstore(0x40, 0x80)\n      callvalue\n      dup1\n      iszero\n      tag_1\n      jumpi\n      revert(0x00, 0x00)\n    tag_1:\n      pop\n      jumpi(tag_2, lt(calldatasize, 0x04))\n      shr(0xe0, calldataload(0x00))\n      dup1\n      0x3fa4f245\n      eq\n      tag_3\n      jumpi\n      dup1\n      0x6d4ce63c\n      eq\n      tag_4\n      jumpi\n      dup1\n      0x771602f7\n      eq\n      tag_5\n      jumpi\n      dup1\n      0xa391c15b\n      eq\n      tag_6\n      jumpi\n      dup1\n      0xb67d77c5\n      eq\n      tag_7\n      jumpi\n      dup1\n      0xc8a4ac9c\n      eq\n      tag_8\n      jumpi\n    tag_2:\n      revert(0x00, 0x00)\n        /* \"contracts/Codes(EASY)/SafeMath.sol\":155:175  uint256 public value */\n    tag_3:\n      tag_9\n      tag_10\n      jump\t// in\n    tag_9:\n      mload(0x40)\n      tag_11\n      swap2\n      swap1\n      tag_12\n      jump\t// in\n    tag_11:\n      mload(0x40)\n      dup1\n      swap2\n      sub\n      swap1\n      return\n        /* \"contracts/Codes(EASY)/SafeMath.sol\":767:843  function get() public view returns (uint256) {... */\n    tag_4:\n      tag_13\n      tag_14\n      jump\t// in\n    tag_13:\n      mload(0x40)\n      tag_15\n      swap2\n      swap1\n      tag_12\n      jump\t// in\n    tag_15:\n      mload(0x40)\n      dup1\n      swap2\n      sub\n      swap1\n      return\n        /* \"contracts/Codes(EASY)/SafeMath.sol\":205:330  function add(uint256 x, uint256 y) public {... */\n    tag_5:\n      tag_16\n      0x04\n      dup1\n      calldatasize\n      sub\n      dup2\n      add\n      swap1\n      tag_17\n      swap2\n      swap1\n      tag_18\n      jump\t// in\n    tag_17:\n      tag_19\n      jump\t// in\n    tag_16:\n      stop\n        /* \"contracts/Codes(EASY)/SafeMath.sol\":601:723  function div(uint256 x, uint256 y) public {... */\n    tag_6:\n      tag_20\n      0x04\n      dup1\n      calldatasize\n      sub\n      dup2\n      add\n      swap1\n      tag_21\n      swap2\n      swap1\n      tag_18\n      jump\t// in\n    tag_21:\n      tag_22\n      jump\t// in\n    tag_20:\n      stop\n        /* \"contracts/Codes(EASY)/SafeMath.sol\":364:440  function sub(uint256 x, uint256 y) public {... */\n    tag_7:\n      tag_23\n      0x04\n      dup1\n      calldatasize\n      sub\n      dup2\n      add\n      swap1\n      tag_24\n      swap2\n      swap1\n      tag_18\n      jump\t// in\n    tag_24:\n      tag_25\n      jump\t// in\n    tag_23:\n      stop\n        /* \"contracts/Codes(EASY)/SafeMath.sol\":474:551  function mul(uint256 x, uint256 y) public {... */\n    tag_8:\n      tag_26\n      0x04\n      dup1\n      calldatasize\n      sub\n      dup2\n      add\n      swap1\n      tag_27\n      swap2\n      swap1\n      tag_18\n      jump\t// in\n    tag_27:\n      tag_28\n      jump\t// in\n    tag_26:\n      stop\n        /* \"contracts/Codes(EASY)/SafeMath.sol\":155:175  uint256 public value */\n    tag_10:\n      sload(0x00)\n      dup2\n      jump\t// out\n        /* \"contracts/Codes(EASY)/SafeMath.sol\":767:843  function get() public view returns (uint256) {... */\n    tag_14:\n        /* \"contracts/Codes(EASY)/SafeMath.sol\":803:810  uint256 */\n      0x00\n        /* \"contracts/Codes(EASY)/SafeMath.sol\":830:835  value */\n      sload(0x00)\n        /* \"contracts/Codes(EASY)/SafeMath.sol\":823:835  return value */\n      swap1\n      pop\n        /* \"contracts/Codes(EASY)/SafeMath.sol\":767:843  function get() public view returns (uint256) {... */\n      swap1\n      jump\t// out\n        /* \"contracts/Codes(EASY)/SafeMath.sol\":205:330  function add(uint256 x, uint256 y) public {... */\n    tag_19:\n        /* \"contracts/Codes(EASY)/SafeMath.sol\":266:274  x.add(y) */\n      tag_31\n        /* \"contracts/Codes(EASY)/SafeMath.sol\":272:273  y */\n      dup2\n        /* \"contracts/Codes(EASY)/SafeMath.sol\":266:267  x */\n      dup4\n        /* \"contracts/Codes(EASY)/SafeMath.sol\":266:271  x.add */\n      tag_32\n      swap1\n        /* \"contracts/Codes(EASY)/SafeMath.sol\":266:274  x.add(y) */\n      swap2\n      swap1\n      0xffffffff\n      and\n      jump\t// in\n    tag_31:\n        /* \"contracts/Codes(EASY)/SafeMath.sol\":258:263  value */\n      0x00\n        /* \"contracts/Codes(EASY)/SafeMath.sol\":258:274  value = x.add(y) */\n      dup2\n      swap1\n      sstore\n      pop\n        /* \"contracts/Codes(EASY)/SafeMath.sol\":205:330  function add(uint256 x, uint256 y) public {... */\n      pop\n      pop\n      jump\t// out\n        /* \"contracts/Codes(EASY)/SafeMath.sol\":601:723  function div(uint256 x, uint256 y) public {... */\n    tag_22:\n        /* \"contracts/Codes(EASY)/SafeMath.sol\":666:667  0 */\n      0x00\n        /* \"contracts/Codes(EASY)/SafeMath.sol\":662:663  y */\n      dup2\n        /* \"contracts/Codes(EASY)/SafeMath.sol\":662:667  y > 0 */\n      gt\n        /* \"contracts/Codes(EASY)/SafeMath.sol\":654:688  require(y > 0, \"Division by zero\") */\n      tag_34\n      jumpi\n      mload(0x40)\n      0x08c379a000000000000000000000000000000000000000000000000000000000\n      dup2\n      mstore\n      0x04\n      add\n      tag_35\n      swap1\n      tag_36\n      jump\t// in\n    tag_35:\n      mload(0x40)\n      dup1\n      swap2\n      sub\n      swap1\n      revert\n    tag_34:\n        /* \"contracts/Codes(EASY)/SafeMath.sol\":707:715  x.div(y) */\n      tag_37\n        /* \"contracts/Codes(EASY)/SafeMath.sol\":713:714  y */\n      dup2\n        /* \"contracts/Codes(EASY)/SafeMath.sol\":707:708  x */\n      dup4\n        /* \"contracts/Codes(EASY)/SafeMath.sol\":707:712  x.div */\n      tag_38\n      swap1\n        /* \"contracts/Codes(EASY)/SafeMath.sol\":707:715  x.div(y) */\n      swap2\n      swap1\n      0xffffffff\n      and\n      jump\t// in\n    tag_37:\n        /* \"contracts/Codes(EASY)/SafeMath.sol\":699:704  value */\n      0x00\n        /* \"contracts/Codes(EASY)/SafeMath.sol\":699:715  value = x.div(y) */\n      dup2\n      swap1\n      sstore\n      pop\n        /* \"contracts/Codes(EASY)/SafeMath.sol\":601:723  function div(uint256 x, uint256 y) public {... */\n      pop\n      pop\n      jump\t// out\n        /* \"contracts/Codes(EASY)/SafeMath.sol\":364:440  function sub(uint256 x, uint256 y) public {... */\n    tag_25:\n        /* \"contracts/Codes(EASY)/SafeMath.sol\":424:432  x.sub(y) */\n      tag_40\n        /* \"contracts/Codes(EASY)/SafeMath.sol\":430:431  y */\n      dup2\n        /* \"contracts/Codes(EASY)/SafeMath.sol\":424:425  x */\n      dup4\n        /* \"contracts/Codes(EASY)/SafeMath.sol\":424:429  x.sub */\n      tag_41\n      swap1\n        /* \"contracts/Codes(EASY)/SafeMath.sol\":424:432  x.sub(y) */\n      swap2\n      swap1\n      0xffffffff\n      and\n      jump\t// in\n    tag_40:\n        /* \"contracts/Codes(EASY)/SafeMath.sol\":417:422  value */\n      0x00\n        /* \"contracts/Codes(EASY)/SafeMath.sol\":417:432  value= x.sub(y) */\n      dup2\n      swap1\n      sstore\n      pop\n        /* \"contracts/Codes(EASY)/SafeMath.sol\":364:440  function sub(uint256 x, uint256 y) public {... */\n      pop\n      pop\n      jump\t// out\n        /* \"contracts/Codes(EASY)/SafeMath.sol\":474:551  function mul(uint256 x, uint256 y) public {... */\n    tag_28:\n        /* \"contracts/Codes(EASY)/SafeMath.sol\":535:543  x.mul(y) */\n      tag_43\n        /* \"contracts/Codes(EASY)/SafeMath.sol\":541:542  y */\n      dup2\n        /* \"contracts/Codes(EASY)/SafeMath.sol\":535:536  x */\n      dup4\n        /* \"contracts/Codes(EASY)/SafeMath.sol\":535:540  x.mul */\n      tag_44\n      swap1\n        /* \"contracts/Codes(EASY)/SafeMath.sol\":535:543  x.mul(y) */\n      swap2\n      swap1\n      0xffffffff\n      and\n      jump\t// in\n    tag_43:\n        /* \"contracts/Codes(EASY)/SafeMath.sol\":527:532  value */\n      0x00\n        /* \"contracts/Codes(EASY)/SafeMath.sol\":527:543  value = x.mul(y) */\n      dup2\n      swap1\n      sstore\n      pop\n        /* \"contracts/Codes(EASY)/SafeMath.sol\":474:551  function mul(uint256 x, uint256 y) public {... */\n      pop\n      pop\n      jump\t// out\n        /* \"@openzeppelin/contracts/utils/math/SafeMath.sol\":2755:2851  function add(uint256 a, uint256 b) internal pure returns (uint256) {... */\n    tag_32:\n        /* \"@openzeppelin/contracts/utils/math/SafeMath.sol\":2813:2820  uint256 */\n      0x00\n        /* \"@openzeppelin/contracts/utils/math/SafeMath.sol\":2843:2844  b */\n      dup2\n        /* \"@openzeppelin/contracts/utils/math/SafeMath.sol\":2839:2840  a */\n      dup4\n        /* \"@openzeppelin/contracts/utils/math/SafeMath.sol\":2839:2844  a + b */\n      tag_46\n      swap2\n      swap1\n      tag_47\n      jump\t// in\n    tag_46:\n        /* \"@openzeppelin/contracts/utils/math/SafeMath.sol\":2832:2844  return a + b */\n      swap1\n      pop\n        /* \"@openzeppelin/contracts/utils/math/SafeMath.sol\":2755:2851  function add(uint256 a, uint256 b) internal pure returns (uint256) {... */\n      swap3\n      swap2\n      pop\n      pop\n      jump\t// out\n        /* \"@openzeppelin/contracts/utils/math/SafeMath.sol\":3850:3946  function div(uint256 a, uint256 b) internal pure returns (uint256) {... */\n    tag_38:\n        /* \"@openzeppelin/contracts/utils/math/SafeMath.sol\":3908:3915  uint256 */\n      0x00\n        /* \"@openzeppelin/contracts/utils/math/SafeMath.sol\":3938:3939  b */\n      dup2\n        /* \"@openzeppelin/contracts/utils/math/SafeMath.sol\":3934:3935  a */\n      dup4\n        /* \"@openzeppelin/contracts/utils/math/SafeMath.sol\":3934:3939  a / b */\n      tag_49\n      swap2\n      swap1\n      tag_50\n      jump\t// in\n    tag_49:\n        /* \"@openzeppelin/contracts/utils/math/SafeMath.sol\":3927:3939  return a / b */\n      swap1\n      pop\n        /* \"@openzeppelin/contracts/utils/math/SafeMath.sol\":3850:3946  function div(uint256 a, uint256 b) internal pure returns (uint256) {... */\n      swap3\n      swap2\n      pop\n      pop\n      jump\t// out\n        /* \"@openzeppelin/contracts/utils/math/SafeMath.sol\":3122:3218  function sub(uint256 a, uint256 b) internal pure returns (uint256) {... */\n    tag_41:\n        /* \"@openzeppelin/contracts/utils/math/SafeMath.sol\":3180:3187  uint256 */\n      0x00\n        /* \"@openzeppelin/contracts/utils/math/SafeMath.sol\":3210:3211  b */\n      dup2\n        /* \"@openzeppelin/contracts/utils/math/SafeMath.sol\":3206:3207  a */\n      dup4\n        /* \"@openzeppelin/contracts/utils/math/SafeMath.sol\":3206:3211  a - b */\n      tag_52\n      swap2\n      swap1\n      tag_53\n      jump\t// in\n    tag_52:\n        /* \"@openzeppelin/contracts/utils/math/SafeMath.sol\":3199:3211  return a - b */\n      swap1\n      pop\n        /* \"@openzeppelin/contracts/utils/math/SafeMath.sol\":3122:3218  function sub(uint256 a, uint256 b) internal pure returns (uint256) {... */\n      swap3\n      swap2\n      pop\n      pop\n      jump\t// out\n        /* \"@openzeppelin/contracts/utils/math/SafeMath.sol\":3465:3561  function mul(uint256 a, uint256 b) internal pure returns (uint256) {... */\n    tag_44:\n        /* \"@openzeppelin/contracts/utils/math/SafeMath.sol\":3523:3530  uint256 */\n      0x00\n        /* \"@openzeppelin/contracts/utils/math/SafeMath.sol\":3553:3554  b */\n      dup2\n        /* \"@openzeppelin/contracts/utils/math/SafeMath.sol\":3549:3550  a */\n      dup4\n        /* \"@openzeppelin/contracts/utils/math/SafeMath.sol\":3549:3554  a * b */\n      tag_55\n      swap2\n      swap1\n      tag_56\n      jump\t// in\n    tag_55:\n        /* \"@openzeppelin/contracts/utils/math/SafeMath.sol\":3542:3554  return a * b */\n      swap1\n      pop\n        /* \"@openzeppelin/contracts/utils/math/SafeMath.sol\":3465:3561  function mul(uint256 a, uint256 b) internal pure returns (uint256) {... */\n      swap3\n      swap2\n      pop\n      pop\n      jump\t// out\n        /* \"#utility.yul\":7:84   */\n    tag_57:\n        /* \"#utility.yul\":44:51   */\n      0x00\n        /* \"#utility.yul\":73:78   */\n      dup2\n        /* \"#utility.yul\":62:78   */\n      swap1\n      pop\n        /* \"#utility.yul\":7:84   */\n      swap2\n      swap1\n      pop\n      jump\t// out\n        /* \"#utility.yul\":90:208   */\n    tag_58:\n        /* \"#utility.yul\":177:201   */\n      tag_72\n        /* \"#utility.yul\":195:200   */\n      dup2\n        /* \"#utility.yul\":177:201   */\n      tag_57\n      jump\t// in\n    tag_72:\n        /* \"#utility.yul\":172:175   */\n      dup3\n        /* \"#utility.yul\":165:202   */\n      mstore\n        /* \"#utility.yul\":90:208   */\n      pop\n      pop\n      jump\t// out\n        /* \"#utility.yul\":214:436   */\n    tag_12:\n        /* \"#utility.yul\":307:311   */\n      0x00\n        /* \"#utility.yul\":345:347   */\n      0x20\n        /* \"#utility.yul\":334:343   */\n      dup3\n        /* \"#utility.yul\":330:348   */\n      add\n        /* \"#utility.yul\":322:348   */\n      swap1\n      pop\n        /* \"#utility.yul\":358:429   */\n      tag_74\n        /* \"#utility.yul\":426:427   */\n      0x00\n        /* \"#utility.yul\":415:424   */\n      dup4\n        /* \"#utility.yul\":411:428   */\n      add\n        /* \"#utility.yul\":402:408   */\n      dup5\n        /* \"#utility.yul\":358:429   */\n      tag_58\n      jump\t// in\n    tag_74:\n        /* \"#utility.yul\":214:436   */\n      swap3\n      swap2\n      pop\n      pop\n      jump\t// out\n        /* \"#utility.yul\":523:640   */\n    tag_60:\n        /* \"#utility.yul\":632:633   */\n      0x00\n        /* \"#utility.yul\":629:630   */\n      0x00\n        /* \"#utility.yul\":622:634   */\n      revert\n        /* \"#utility.yul\":769:891   */\n    tag_62:\n        /* \"#utility.yul\":842:866   */\n      tag_79\n        /* \"#utility.yul\":860:865   */\n      dup2\n        /* \"#utility.yul\":842:866   */\n      tag_57\n      jump\t// in\n    tag_79:\n        /* \"#utility.yul\":835:840   */\n      dup2\n        /* \"#utility.yul\":832:867   */\n      eq\n        /* \"#utility.yul\":822:885   */\n      tag_80\n      jumpi\n        /* \"#utility.yul\":881:882   */\n      0x00\n        /* \"#utility.yul\":878:879   */\n      0x00\n        /* \"#utility.yul\":871:883   */\n      revert\n        /* \"#utility.yul\":822:885   */\n    tag_80:\n        /* \"#utility.yul\":769:891   */\n      pop\n      jump\t// out\n        /* \"#utility.yul\":897:1036   */\n    tag_63:\n        /* \"#utility.yul\":943:948   */\n      0x00\n        /* \"#utility.yul\":981:987   */\n      dup2\n        /* \"#utility.yul\":968:988   */\n      calldataload\n        /* \"#utility.yul\":959:988   */\n      swap1\n      pop\n        /* \"#utility.yul\":997:1030   */\n      tag_82\n        /* \"#utility.yul\":1024:1029   */\n      dup2\n        /* \"#utility.yul\":997:1030   */\n      tag_62\n      jump\t// in\n    tag_82:\n        /* \"#utility.yul\":897:1036   */\n      swap3\n      swap2\n      pop\n      pop\n      jump\t// out\n        /* \"#utility.yul\":1042:1516   */\n    tag_18:\n        /* \"#utility.yul\":1110:1116   */\n      0x00\n        /* \"#utility.yul\":1118:1124   */\n      0x00\n        /* \"#utility.yul\":1167:1169   */\n      0x40\n        /* \"#utility.yul\":1155:1164   */\n      dup4\n        /* \"#utility.yul\":1146:1153   */\n      dup6\n        /* \"#utility.yul\":1142:1165   */\n      sub\n        /* \"#utility.yul\":1138:1170   */\n      slt\n        /* \"#utility.yul\":1135:1254   */\n      iszero\n      tag_84\n      jumpi\n        /* \"#utility.yul\":1173:1252   */\n      tag_85\n      tag_60\n      jump\t// in\n    tag_85:\n        /* \"#utility.yul\":1135:1254   */\n    tag_84:\n        /* \"#utility.yul\":1293:1294   */\n      0x00\n        /* \"#utility.yul\":1318:1371   */\n      tag_86\n        /* \"#utility.yul\":1363:1370   */\n      dup6\n        /* \"#utility.yul\":1354:1360   */\n      dup3\n        /* \"#utility.yul\":1343:1352   */\n      dup7\n        /* \"#utility.yul\":1339:1361   */\n      add\n        /* \"#utility.yul\":1318:1371   */\n      tag_63\n      jump\t// in\n    tag_86:\n        /* \"#utility.yul\":1308:1371   */\n      swap3\n      pop\n        /* \"#utility.yul\":1264:1381   */\n      pop\n        /* \"#utility.yul\":1420:1422   */\n      0x20\n        /* \"#utility.yul\":1446:1499   */\n      tag_87\n        /* \"#utility.yul\":1491:1498   */\n      dup6\n        /* \"#utility.yul\":1482:1488   */\n      dup3\n        /* \"#utility.yul\":1471:1480   */\n      dup7\n        /* \"#utility.yul\":1467:1489   */\n      add\n        /* \"#utility.yul\":1446:1499   */\n      tag_63\n      jump\t// in\n    tag_87:\n        /* \"#utility.yul\":1436:1499   */\n      swap2\n      pop\n        /* \"#utility.yul\":1391:1509   */\n      pop\n        /* \"#utility.yul\":1042:1516   */\n      swap3\n      pop\n      swap3\n      swap1\n      pop\n      jump\t// out\n        /* \"#utility.yul\":1522:1691   */\n    tag_64:\n        /* \"#utility.yul\":1606:1617   */\n      0x00\n        /* \"#utility.yul\":1640:1646   */\n      dup3\n        /* \"#utility.yul\":1635:1638   */\n      dup3\n        /* \"#utility.yul\":1628:1647   */\n      mstore\n        /* \"#utility.yul\":1680:1684   */\n      0x20\n        /* \"#utility.yul\":1675:1678   */\n      dup3\n        /* \"#utility.yul\":1671:1685   */\n      add\n        /* \"#utility.yul\":1656:1685   */\n      swap1\n      pop\n        /* \"#utility.yul\":1522:1691   */\n      swap3\n      swap2\n      pop\n      pop\n      jump\t// out\n        /* \"#utility.yul\":1697:1863   */\n    tag_65:\n        /* \"#utility.yul\":1837:1855   */\n      0x4469766973696f6e206279207a65726f00000000000000000000000000000000\n        /* \"#utility.yul\":1833:1834   */\n      0x00\n        /* \"#utility.yul\":1825:1831   */\n      dup3\n        /* \"#utility.yul\":1821:1835   */\n      add\n        /* \"#utility.yul\":1814:1856   */\n      mstore\n        /* \"#utility.yul\":1697:1863   */\n      pop\n      jump\t// out\n        /* \"#utility.yul\":1869:2235   */\n    tag_66:\n        /* \"#utility.yul\":2011:2014   */\n      0x00\n        /* \"#utility.yul\":2032:2099   */\n      tag_91\n        /* \"#utility.yul\":2096:2098   */\n      0x10\n        /* \"#utility.yul\":2091:2094   */\n      dup4\n        /* \"#utility.yul\":2032:2099   */\n      tag_64\n      jump\t// in\n    tag_91:\n        /* \"#utility.yul\":2025:2099   */\n      swap2\n      pop\n        /* \"#utility.yul\":2108:2201   */\n      tag_92\n        /* \"#utility.yul\":2197:2200   */\n      dup3\n        /* \"#utility.yul\":2108:2201   */\n      tag_65\n      jump\t// in\n    tag_92:\n        /* \"#utility.yul\":2226:2228   */\n      0x20\n        /* \"#utility.yul\":2221:2224   */\n      dup3\n        /* \"#utility.yul\":2217:2229   */\n      add\n        /* \"#utility.yul\":2210:2229   */\n      swap1\n      pop\n        /* \"#utility.yul\":1869:2235   */\n      swap2\n      swap1\n      pop\n      jump\t// out\n        /* \"#utility.yul\":2241:2660   */\n    tag_36:\n        /* \"#utility.yul\":2407:2411   */\n      0x00\n        /* \"#utility.yul\":2445:2447   */\n      0x20\n        /* \"#utility.yul\":2434:2443   */\n      dup3\n        /* \"#utility.yul\":2430:2448   */\n      add\n        /* \"#utility.yul\":2422:2448   */\n      swap1\n      pop\n        /* \"#utility.yul\":2494:2503   */\n      dup2\n        /* \"#utility.yul\":2488:2492   */\n      dup2\n        /* \"#utility.yul\":2484:2504   */\n      sub\n        /* \"#utility.yul\":2480:2481   */\n      0x00\n        /* \"#utility.yul\":2469:2478   */\n      dup4\n        /* \"#utility.yul\":2465:2482   */\n      add\n        /* \"#utility.yul\":2458:2505   */\n      mstore\n        /* \"#utility.yul\":2522:2653   */\n      tag_94\n        /* \"#utility.yul\":2648:2652   */\n      dup2\n        /* \"#utility.yul\":2522:2653   */\n      tag_66\n      jump\t// in\n    tag_94:\n        /* \"#utility.yul\":2514:2653   */\n      swap1\n      pop\n        /* \"#utility.yul\":2241:2660   */\n      swap2\n      swap1\n      pop\n      jump\t// out\n        /* \"#utility.yul\":2666:2846   */\n    tag_67:\n        /* \"#utility.yul\":2714:2791   */\n      0x4e487b7100000000000000000000000000000000000000000000000000000000\n        /* \"#utility.yul\":2711:2712   */\n      0x00\n        /* \"#utility.yul\":2704:2792   */\n      mstore\n        /* \"#utility.yul\":2811:2815   */\n      0x11\n        /* \"#utility.yul\":2808:2809   */\n      0x04\n        /* \"#utility.yul\":2801:2816   */\n      mstore\n        /* \"#utility.yul\":2835:2839   */\n      0x24\n        /* \"#utility.yul\":2832:2833   */\n      0x00\n        /* \"#utility.yul\":2825:2840   */\n      revert\n        /* \"#utility.yul\":2852:3043   */\n    tag_47:\n        /* \"#utility.yul\":2892:2895   */\n      0x00\n        /* \"#utility.yul\":2911:2931   */\n      tag_97\n        /* \"#utility.yul\":2929:2930   */\n      dup3\n        /* \"#utility.yul\":2911:2931   */\n      tag_57\n      jump\t// in\n    tag_97:\n        /* \"#utility.yul\":2906:2931   */\n      swap2\n      pop\n        /* \"#utility.yul\":2945:2965   */\n      tag_98\n        /* \"#utility.yul\":2963:2964   */\n      dup4\n        /* \"#utility.yul\":2945:2965   */\n      tag_57\n      jump\t// in\n    tag_98:\n        /* \"#utility.yul\":2940:2965   */\n      swap3\n      pop\n        /* \"#utility.yul\":2988:2989   */\n      dup3\n        /* \"#utility.yul\":2985:2986   */\n      dup3\n        /* \"#utility.yul\":2981:2990   */\n      add\n        /* \"#utility.yul\":2974:2990   */\n      swap1\n      pop\n        /* \"#utility.yul\":3009:3012   */\n      dup1\n        /* \"#utility.yul\":3006:3007   */\n      dup3\n        /* \"#utility.yul\":3003:3013   */\n      gt\n        /* \"#utility.yul\":3000:3036   */\n      iszero\n      tag_99\n      jumpi\n        /* \"#utility.yul\":3016:3034   */\n      tag_100\n      tag_67\n      jump\t// in\n    tag_100:\n        /* \"#utility.yul\":3000:3036   */\n    tag_99:\n        /* \"#utility.yul\":2852:3043   */\n      swap3\n      swap2\n      pop\n      pop\n      jump\t// out\n        /* \"#utility.yul\":3049:3229   */\n    tag_68:\n        /* \"#utility.yul\":3097:3174   */\n      0x4e487b7100000000000000000000000000000000000000000000000000000000\n        /* \"#utility.yul\":3094:3095   */\n      0x00\n        /* \"#utility.yul\":3087:3175   */\n      mstore\n        /* \"#utility.yul\":3194:3198   */\n      0x12\n        /* \"#utility.yul\":3191:3192   */\n      0x04\n        /* \"#utility.yul\":3184:3199   */\n      mstore\n        /* \"#utility.yul\":3218:3222   */\n      0x24\n        /* \"#utility.yul\":3215:3216   */\n      0x00\n        /* \"#utility.yul\":3208:3223   */\n      revert\n        /* \"#utility.yul\":3235:3420   */\n    tag_50:\n        /* \"#utility.yul\":3275:3276   */\n      0x00\n        /* \"#utility.yul\":3292:3312   */\n      tag_103\n        /* \"#utility.yul\":3310:3311   */\n      dup3\n        /* \"#utility.yul\":3292:3312   */\n      tag_57\n      jump\t// in\n    tag_103:\n        /* \"#utility.yul\":3287:3312   */\n      swap2\n      pop\n        /* \"#utility.yul\":3326:3346   */\n      tag_104\n        /* \"#utility.yul\":3344:3345   */\n      dup4\n        /* \"#utility.yul\":3326:3346   */\n      tag_57\n      jump\t// in\n    tag_104:\n        /* \"#utility.yul\":3321:3346   */\n      swap3\n      pop\n        /* \"#utility.yul\":3365:3366   */\n      dup3\n        /* \"#utility.yul\":3355:3390   */\n      tag_105\n      jumpi\n        /* \"#utility.yul\":3370:3388   */\n      tag_106\n      tag_68\n      jump\t// in\n    tag_106:\n        /* \"#utility.yul\":3355:3390   */\n    tag_105:\n        /* \"#utility.yul\":3412:3413   */\n      dup3\n        /* \"#utility.yul\":3409:3410   */\n      dup3\n        /* \"#utility.yul\":3405:3414   */\n      div\n        /* \"#utility.yul\":3400:3414   */\n      swap1\n      pop\n        /* \"#utility.yul\":3235:3420   */\n      swap3\n      swap2\n      pop\n      pop\n      jump\t// out\n        /* \"#utility.yul\":3426:3620   */\n    tag_53:\n        /* \"#utility.yul\":3466:3470   */\n      0x00\n        /* \"#utility.yul\":3486:3506   */\n      tag_108\n        /* \"#utility.yul\":3504:3505   */\n      dup3\n        /* \"#utility.yul\":3486:3506   */\n      tag_57\n      jump\t// in\n    tag_108:\n        /* \"#utility.yul\":3481:3506   */\n      swap2\n      pop\n        /* \"#utility.yul\":3520:3540   */\n      tag_109\n        /* \"#utility.yul\":3538:3539   */\n      dup4\n        /* \"#utility.yul\":3520:3540   */\n      tag_57\n      jump\t// in\n    tag_109:\n        /* \"#utility.yul\":3515:3540   */\n      swap3\n      pop\n        /* \"#utility.yul\":3564:3565   */\n      dup3\n        /* \"#utility.yul\":3561:3562   */\n      dup3\n        /* \"#utility.yul\":3557:3566   */\n      sub\n        /* \"#utility.yul\":3549:3566   */\n      swap1\n      pop\n        /* \"#utility.yul\":3588:3589   */\n      dup2\n        /* \"#utility.yul\":3582:3586   */\n      dup2\n        /* \"#utility.yul\":3579:3590   */\n      gt\n        /* \"#utility.yul\":3576:3613   */\n      iszero\n      tag_110\n      jumpi\n        /* \"#utility.yul\":3593:3611   */\n      tag_111\n      tag_67\n      jump\t// in\n    tag_111:\n        /* \"#utility.yul\":3576:3613   */\n    tag_110:\n        /* \"#utility.yul\":3426:3620   */\n      swap3\n      swap2\n      pop\n      pop\n      jump\t// out\n        /* \"#utility.yul\":3626:4036   */\n    tag_56:\n        /* \"#utility.yul\":3666:3673   */\n      0x00\n        /* \"#utility.yul\":3689:3709   */\n      tag_113\n        /* \"#utility.yul\":3707:3708   */\n      dup3\n        /* \"#utility.yul\":3689:3709   */\n      tag_57\n      jump\t// in\n    tag_113:\n        /* \"#utility.yul\":3684:3709   */\n      swap2\n      pop\n        /* \"#utility.yul\":3723:3743   */\n      tag_114\n        /* \"#utility.yul\":3741:3742   */\n      dup4\n        /* \"#utility.yul\":3723:3743   */\n      tag_57\n      jump\t// in\n    tag_114:\n        /* \"#utility.yul\":3718:3743   */\n      swap3\n      pop\n        /* \"#utility.yul\":3778:3779   */\n      dup3\n        /* \"#utility.yul\":3775:3776   */\n      dup3\n        /* \"#utility.yul\":3771:3780   */\n      mul\n        /* \"#utility.yul\":3800:3830   */\n      tag_115\n        /* \"#utility.yul\":3818:3829   */\n      dup2\n        /* \"#utility.yul\":3800:3830   */\n      tag_57\n      jump\t// in\n    tag_115:\n        /* \"#utility.yul\":3789:3830   */\n      swap2\n      pop\n        /* \"#utility.yul\":3979:3980   */\n      dup3\n        /* \"#utility.yul\":3970:3977   */\n      dup3\n        /* \"#utility.yul\":3966:3981   */\n      div\n        /* \"#utility.yul\":3963:3964   */\n      dup5\n        /* \"#utility.yul\":3960:3982   */\n      eq\n        /* \"#utility.yul\":3940:3941   */\n      dup4\n        /* \"#utility.yul\":3933:3942   */\n      iszero\n        /* \"#utility.yul\":3913:3996   */\n      or\n        /* \"#utility.yul\":3890:4029   */\n      tag_116\n      jumpi\n        /* \"#utility.yul\":4009:4027   */\n      tag_117\n      tag_67\n      jump\t// in\n    tag_117:\n        /* \"#utility.yul\":3890:4029   */\n    tag_116:\n        /* \"#utility.yul\":3674:4036   */\n      pop\n        /* \"#utility.yul\":3626:4036   */\n      swap3\n      swap2\n      pop\n      pop\n      jump\t// out\n\n    auxdata: 0xa2646970667358221220eea0967b65c796416973a9a568ead5911bbb49fff490f9799190fe33c7f5e70964736f6c634300081c0033\n}\n",
				"bytecode": {
					"linkReferences": {},
					"object": "6080604052348015600e575f5ffd5b5061049f8061001c5f395ff3fe608060405234801561000f575f5ffd5b5060043610610060575f3560e01c80633fa4f245146100645780636d4ce63c14610082578063771602f7146100a0578063a391c15b146100bc578063b67d77c5146100d8578063c8a4ac9c146100f4575b5f5ffd5b61006c610110565b604051610079919061023b565b60405180910390f35b61008a610115565b604051610097919061023b565b60405180910390f35b6100ba60048036038101906100b59190610282565b61011d565b005b6100d660048036038101906100d19190610282565b610139565b005b6100f260048036038101906100ed9190610282565b610197565b005b61010e60048036038101906101099190610282565b6101b3565b005b5f5481565b5f5f54905090565b61013081836101cf90919063ffffffff16565b5f819055505050565b5f811161017b576040517f08c379a00000000000000000000000000000000000000000000000000000000081526004016101729061031a565b60405180910390fd5b61018e81836101e490919063ffffffff16565b5f819055505050565b6101aa81836101f990919063ffffffff16565b5f819055505050565b6101c6818361020e90919063ffffffff16565b5f819055505050565b5f81836101dc9190610365565b905092915050565b5f81836101f191906103c5565b905092915050565b5f818361020691906103f5565b905092915050565b5f818361021b9190610428565b905092915050565b5f819050919050565b61023581610223565b82525050565b5f60208201905061024e5f83018461022c565b92915050565b5f5ffd5b61026181610223565b811461026b575f5ffd5b50565b5f8135905061027c81610258565b92915050565b5f5f6040838503121561029857610297610254565b5b5f6102a58582860161026e565b92505060206102b68582860161026e565b9150509250929050565b5f82825260208201905092915050565b7f4469766973696f6e206279207a65726f000000000000000000000000000000005f82015250565b5f6103046010836102c0565b915061030f826102d0565b602082019050919050565b5f6020820190508181035f830152610331816102f8565b9050919050565b7f4e487b71000000000000000000000000000000000000000000000000000000005f52601160045260245ffd5b5f61036f82610223565b915061037a83610223565b925082820190508082111561039257610391610338565b5b92915050565b7f4e487b71000000000000000000000000000000000000000000000000000000005f52601260045260245ffd5b5f6103cf82610223565b91506103da83610223565b9250826103ea576103e9610398565b5b828204905092915050565b5f6103ff82610223565b915061040a83610223565b925082820390508181111561042257610421610338565b5b92915050565b5f61043282610223565b915061043d83610223565b925082820261044b81610223565b9150828204841483151761046257610461610338565b5b509291505056fea2646970667358221220eea0967b65c796416973a9a568ead5911bbb49fff490f9799190fe33c7f5e70964736f6c634300081c0033",
					"opcodes": "PUSH1 0x80 PUSH1 0x40 MSTORE CALLVALUE DUP1 ISZERO PUSH1 0xE JUMPI PUSH0 PUSH0 REVERT JUMPDEST POP PUSH2 0x49F DUP1 PUSH2 0x1C PUSH0 CODECOPY PUSH0 RETURN INVALID PUSH1 0x80 PUSH1 0x40 MSTORE CALLVALUE DUP1 ISZERO PUSH2 0xF JUMPI PUSH0 PUSH0 REVERT JUMPDEST POP PUSH1 0x4 CALLDATASIZE LT PUSH2 0x60 JUMPI PUSH0 CALLDATALOAD PUSH1 0xE0 SHR DUP1 PUSH4 0x3FA4F245 EQ PUSH2 0x64 JUMPI DUP1 PUSH4 0x6D4CE63C EQ PUSH2 0x82 JUMPI DUP1 PUSH4 0x771602F7 EQ PUSH2 0xA0 JUMPI DUP1 PUSH4 0xA391C15B EQ PUSH2 0xBC JUMPI DUP1 PUSH4 0xB67D77C5 EQ PUSH2 0xD8 JUMPI DUP1 PUSH4 0xC8A4AC9C EQ PUSH2 0xF4 JUMPI JUMPDEST PUSH0 PUSH0 REVERT JUMPDEST PUSH2 0x6C PUSH2 0x110 JUMP JUMPDEST PUSH1 0x40 MLOAD PUSH2 0x79 SWAP2 SWAP1 PUSH2 0x23B JUMP JUMPDEST PUSH1 0x40 MLOAD DUP1 SWAP2 SUB SWAP1 RETURN JUMPDEST PUSH2 0x8A PUSH2 0x115 JUMP JUMPDEST PUSH1 0x40 MLOAD PUSH2 0x97 SWAP2 SWAP1 PUSH2 0x23B JUMP JUMPDEST PUSH1 0x40 MLOAD DUP1 SWAP2 SUB SWAP1 RETURN JUMPDEST PUSH2 0xBA PUSH1 0x4 DUP1 CALLDATASIZE SUB DUP2 ADD SWAP1 PUSH2 0xB5 SWAP2 SWAP1 PUSH2 0x282 JUMP JUMPDEST PUSH2 0x11D JUMP JUMPDEST STOP JUMPDEST PUSH2 0xD6 PUSH1 0x4 DUP1 CALLDATASIZE SUB DUP2 ADD SWAP1 PUSH2 0xD1 SWAP2 SWAP1 PUSH2 0x282 JUMP JUMPDEST PUSH2 0x139 JUMP JUMPDEST STOP JUMPDEST PUSH2 0xF2 PUSH1 0x4 DUP1 CALLDATASIZE SUB DUP2 ADD SWAP1 PUSH2 0xED SWAP2 SWAP1 PUSH2 0x282 JUMP JUMPDEST PUSH2 0x197 JUMP JUMPDEST STOP JUMPDEST PUSH2 0x10E PUSH1 0x4 DUP1 CALLDATASIZE SUB DUP2 ADD SWAP1 PUSH2 0x109 SWAP2 SWAP1 PUSH2 0x282 JUMP JUMPDEST PUSH2 0x1B3 JUMP JUMPDEST STOP JUMPDEST PUSH0 SLOAD DUP2 JUMP JUMPDEST PUSH0 PUSH0 SLOAD SWAP1 POP SWAP1 JUMP JUMPDEST PUSH2 0x130 DUP2 DUP4 PUSH2 0x1CF SWAP1 SWAP2 SWAP1 PUSH4 0xFFFFFFFF AND JUMP JUMPDEST PUSH0 DUP2 SWAP1 SSTORE POP POP POP JUMP JUMPDEST PUSH0 DUP2 GT PUSH2 0x17B JUMPI PUSH1 0x40 MLOAD PUSH32 0x8C379A000000000000000000000000000000000000000000000000000000000 DUP2 MSTORE PUSH1 0x4 ADD PUSH2 0x172 SWAP1 PUSH2 0x31A JUMP JUMPDEST PUSH1 0x40 MLOAD DUP1 SWAP2 SUB SWAP1 REVERT JUMPDEST PUSH2 0x18E DUP2 DUP4 PUSH2 0x1E4 SWAP1 SWAP2 SWAP1 PUSH4 0xFFFFFFFF AND JUMP JUMPDEST PUSH0 DUP2 SWAP1 SSTORE POP POP POP JUMP JUMPDEST PUSH2 0x1AA DUP2 DUP4 PUSH2 0x1F9 SWAP1 SWAP2 SWAP1 PUSH4 0xFFFFFFFF AND JUMP JUMPDEST PUSH0 DUP2 SWAP1 SSTORE POP POP POP JUMP JUMPDEST PUSH2 0x1C6 DUP2 DUP4 PUSH2 0x20E SWAP1 SWAP2 SWAP1 PUSH4 0xFFFFFFFF AND JUMP JUMPDEST PUSH0 DUP2 SWAP1 SSTORE POP POP POP JUMP JUMPDEST PUSH0 DUP2 DUP4 PUSH2 0x1DC SWAP2 SWAP1 PUSH2 0x365 JUMP JUMPDEST SWAP1 POP SWAP3 SWAP2 POP POP JUMP JUMPDEST PUSH0 DUP2 DUP4 PUSH2 0x1F1 SWAP2 SWAP1 PUSH2 0x3C5 JUMP JUMPDEST SWAP1 POP SWAP3 SWAP2 POP POP JUMP JUMPDEST PUSH0 DUP2 DUP4 PUSH2 0x206 SWAP2 SWAP1 PUSH2 0x3F5 JUMP JUMPDEST SWAP1 POP SWAP3 SWAP2 POP POP JUMP JUMPDEST PUSH0 DUP2 DUP4 PUSH2 0x21B SWAP2 SWAP1 PUSH2 0x428 JUMP JUMPDEST SWAP1 POP SWAP3 SWAP2 POP POP JUMP JUMPDEST PUSH0 DUP2 SWAP1 POP SWAP2 SWAP1 POP JUMP JUMPDEST PUSH2 0x235 DUP2 PUSH2 0x223 JUMP JUMPDEST DUP3 MSTORE POP POP JUMP JUMPDEST PUSH0 PUSH1 0x20 DUP3 ADD SWAP1 POP PUSH2 0x24E PUSH0 DUP4 ADD DUP5 PUSH2 0x22C JUMP JUMPDEST SWAP3 SWAP2 POP POP JUMP JUMPDEST PUSH0 PUSH0 REVERT JUMPDEST PUSH2 0x261 DUP2 PUSH2 0x223 JUMP JUMPDEST DUP2 EQ PUSH2 0x26B JUMPI PUSH0 PUSH0 REVERT JUMPDEST POP JUMP JUMPDEST PUSH0 DUP2 CALLDATALOAD SWAP1 POP PUSH2 0x27C DUP2 PUSH2 0x258 JUMP JUMPDEST SWAP3 SWAP2 POP POP JUMP JUMPDEST PUSH0 PUSH0 PUSH1 0x40 DUP4 DUP6 SUB SLT ISZERO PUSH2 0x298 JUMPI PUSH2 0x297 PUSH2 0x254 JUMP JUMPDEST JUMPDEST PUSH0 PUSH2 0x2A5 DUP6 DUP3 DUP7 ADD PUSH2 0x26E JUMP JUMPDEST SWAP3 POP POP PUSH1 0x20 PUSH2 0x2B6 DUP6 DUP3 DUP7 ADD PUSH2 0x26E JUMP JUMPDEST SWAP2 POP POP SWAP3 POP SWAP3 SWAP1 POP JUMP JUMPDEST PUSH0 DUP3 DUP3 MSTORE PUSH1 0x20 DUP3 ADD SWAP1 POP SWAP3 SWAP2 POP POP JUMP JUMPDEST PUSH32 0x4469766973696F6E206279207A65726F00000000000000000000000000000000 PUSH0 DUP3 ADD MSTORE POP JUMP JUMPDEST PUSH0 PUSH2 0x304 PUSH1 0x10 DUP4 PUSH2 0x2C0 JUMP JUMPDEST SWAP2 POP PUSH2 0x30F DUP3 PUSH2 0x2D0 JUMP JUMPDEST PUSH1 0x20 DUP3 ADD SWAP1 POP SWAP2 SWAP1 POP JUMP JUMPDEST PUSH0 PUSH1 0x20 DUP3 ADD SWAP1 POP DUP2 DUP2 SUB PUSH0 DUP4 ADD MSTORE PUSH2 0x331 DUP2 PUSH2 0x2F8 JUMP JUMPDEST SWAP1 POP SWAP2 SWAP1 POP JUMP JUMPDEST PUSH32 0x4E487B7100000000000000000000000000000000000000000000000000000000 PUSH0 MSTORE PUSH1 0x11 PUSH1 0x4 MSTORE PUSH1 0x24 PUSH0 REVERT JUMPDEST PUSH0 PUSH2 0x36F DUP3 PUSH2 0x223 JUMP JUMPDEST SWAP2 POP PUSH2 0x37A DUP4 PUSH2 0x223 JUMP JUMPDEST SWAP3 POP DUP3 DUP3 ADD SWAP1 POP DUP1 DUP3 GT ISZERO PUSH2 0x392 JUMPI PUSH2 0x391 PUSH2 0x338 JUMP JUMPDEST JUMPDEST SWAP3 SWAP2 POP POP JUMP JUMPDEST PUSH32 0x4E487B7100000000000000000000000000000000000000000000000000000000 PUSH0 MSTORE PUSH1 0x12 PUSH1 0x4 MSTORE PUSH1 0x24 PUSH0 REVERT JUMPDEST PUSH0 PUSH2 0x3CF DUP3 PUSH2 0x223 JUMP JUMPDEST SWAP2 POP PUSH2 0x3DA DUP4 PUSH2 0x223 JUMP JUMPDEST SWAP3 POP DUP3 PUSH2 0x3EA JUMPI PUSH2 0x3E9 PUSH2 0x398 JUMP JUMPDEST JUMPDEST DUP3 DUP3 DIV SWAP1 POP SWAP3 SWAP2 POP POP JUMP JUMPDEST PUSH0 PUSH2 0x3FF DUP3 PUSH2 0x223 JUMP JUMPDEST SWAP2 POP PUSH2 0x40A DUP4 PUSH2 0x223 JUMP JUMPDEST SWAP3 POP DUP3 DUP3 SUB SWAP1 POP DUP2 DUP2 GT ISZERO PUSH2 0x422 JUMPI PUSH2 0x421 PUSH2 0x338 JUMP JUMPDEST JUMPDEST SWAP3 SWAP2 POP POP JUMP JUMPDEST PUSH0 PUSH2 0x432 DUP3 PUSH2 0x223 JUMP JUMPDEST SWAP2 POP PUSH2 0x43D DUP4 PUSH2 0x223 JUMP JUMPDEST SWAP3 POP DUP3 DUP3 MUL PUSH2 0x44B DUP2 PUSH2 0x223 JUMP JUMPDEST SWAP2 POP DUP3 DUP3 DIV DUP5 EQ DUP4 ISZERO OR PUSH2 0x462 JUMPI PUSH2 0x461 PUSH2 0x338 JUMP JUMPDEST JUMPDEST POP SWAP3 SWAP2 POP POP JUMP INVALID LOG2 PUSH5 0x6970667358 0x22 SLT KECCAK256 0xEE LOG0 SWAP7 PUSH28 0x65C796416973A9A568EAD5911BBB49FFF490F9799190FE33C7F5E709 PUSH5 0x736F6C6343 STOP ADDMOD SHR STOP CALLER "
				},
				"gasEstimates": {
					"creation": {
						"codeDepositCost": "236600",
						"executionCost": "273",
						"totalCost": "236873"
					},
					"external": {
						"add(uint256,uint256)": "infinite",
						"div(uint256,uint256)": "infinite",
						"get()": "2431",
						"mul(uint256,uint256)": "infinite",
						"sub(uint256,uint256)": "infinite",
						"value()": "2402"
					}
				},
				"methodIdentifiers": {
					"add(uint256,uint256)": "771602f7",
					"div(uint256,uint256)": "a391c15b",
					"get()": "6d4ce63c",
					"mul(uint256,uint256)": "c8a4ac9c",
					"sub(uint256,uint256)": "b67d77c5",
					"value()": "3fa4f245"
				}
			},
			"storageLayout": {
				"storage": [
					{
						"astId": 319,
						"contract": "contracts/Codes(EASY)/SafeMath.sol:SafeMathExample",
						"label": "value",
						"offset": 0,
						"slot": "0",
						"type": "t_uint256"
					}
				],
				"types": {
					"t_uint256": {
						"encoding": "inplace",
						"label": "uint256",
						"numberOfBytes": "32"
					}
				}
			},
			"userdoc": {
				"kind": "user",
				"methods": {},
				"version": 1
			}
		}
	}
}