{
	"contracts/Codes(EASY)/Modular Arithmetic.sol": {
		"Test": {
			"abi": [
				{
					"inputs": [
						{
							"internalType": "uint256",
							"name": "a",
							"type": "uint256"
						},
						{
							"internalType": "uint256",
							"name": "b",
							"type": "uint256"
						},
						{
							"internalType": "uint256",
							"name": "c",
							"type": "uint256"
						}
					],
					"name": "callAddMod",
					"outputs": [
						{
							"internalType": "uint256",
							"name": "",
							"type": "uint256"
						}
					],
					"stateMutability": "pure",
					"type": "function"
				},
				{
					"inputs": [
						{
							"internalType": "uint256",
							"name": "a",
							"type": "uint256"
						},
						{
							"internalType": "uint256",
							"name": "b",
							"type": "uint256"
						},
						{
							"internalType": "uint256",
							"name": "c",
							"type": "uint256"
						}
					],
					"name": "callMulMod",
					"outputs": [
						{
							"internalType": "uint256",
							"name": "",
							"type": "uint256"
						}
					],
					"stateMutability": "pure",
					"type": "function"
				}
			],
			"devdoc": {
				"kind": "dev",
				"methods": {},
				"version": 1
			},
			"evm": {
				"assembly": "    /* \"contracts/Codes(EASY)/Modular Arithmetic.sol\":60:490  contract Test {... */\n  mstore(0x40, 0x80)\n  callvalue\n  dup1\n  iszero\n  tag_1\n  jumpi\n  revert(0x00, 0x00)\ntag_1:\n  pop\n  dataSize(sub_0)\n  dup1\n  dataOffset(sub_0)\n  0x00\n  codecopy\n  0x00\n  return\nstop\n\nsub_0: assembly {\n        /* \"contracts/Codes(EASY)/Modular Arithmetic.sol\":60:490  contract Test {... */\n      mstore(0x40, 0x80)\n      callvalue\n      dup1\n      iszero\n      tag_1\n      jumpi\n      revert(0x00, 0x00)\n    tag_1:\n      pop\n      jumpi(tag_2, lt(calldatasize, 0x04))\n      shr(0xe0, calldataload(0x00))\n      dup1\n      0x062ddbb8\n      eq\n      tag_3\n      jumpi\n      dup1\n      0x224df9db\n      eq\n      tag_4\n      jumpi\n    tag_2:\n      revert(0x00, 0x00)\n        /* \"contracts/Codes(EASY)/Modular Arithmetic.sol\":336:487  function callMulMod(... */\n    tag_3:\n      tag_5\n      0x04\n      dup1\n      calldatasize\n      sub\n      dup2\n      add\n      swap1\n      tag_6\n      swap2\n      swap1\n      tag_7\n      jump\t// in\n    tag_6:\n      tag_8\n      jump\t// in\n    tag_5:\n      mload(0x40)\n      tag_9\n      swap2\n      swap1\n      tag_10\n      jump\t// in\n    tag_9:\n      mload(0x40)\n      dup1\n      swap2\n      sub\n      swap1\n      return\n        /* \"contracts/Codes(EASY)/Modular Arithmetic.sol\":126:277  function callAddMod(... */\n    tag_4:\n      tag_11\n      0x04\n      dup1\n      calldatasize\n      sub\n      dup2\n      add\n      swap1\n      tag_12\n      swap2\n      swap1\n      tag_7\n      jump\t// in\n    tag_12:\n      tag_13\n      jump\t// in\n    tag_11:\n      mload(0x40)\n      tag_14\n      swap2\n      swap1\n      tag_10\n      jump\t// in\n    tag_14:\n      mload(0x40)\n      dup1\n      swap2\n      sub\n      swap1\n      return\n        /* \"contracts/Codes(EASY)/Modular Arithmetic.sol\":336:487  function callMulMod(... */\n    tag_8:\n        /* \"contracts/Codes(EASY)/Modular Arithmetic.sol\":444:448  uint */\n      0x00\n        /* \"contracts/Codes(EASY)/Modular Arithmetic.sol\":478:479  c */\n      dup2\n        /* \"contracts/Codes(EASY)/Modular Arithmetic.sol\":473:474  b */\n      dup4\n        /* \"contracts/Codes(EASY)/Modular Arithmetic.sol\":469:470  a */\n      dup6\n        /* \"contracts/Codes(EASY)/Modular Arithmetic.sol\":469:474  a * b */\n      tag_16\n      swap2\n      swap1\n      tag_17\n      jump\t// in\n    tag_16:\n        /* \"contracts/Codes(EASY)/Modular Arithmetic.sol\":468:479  (a * b) % c */\n      tag_18\n      swap2\n      swap1\n      tag_19\n      jump\t// in\n    tag_18:\n        /* \"contracts/Codes(EASY)/Modular Arithmetic.sol\":461:479  return (a * b) % c */\n      swap1\n      pop\n        /* \"contracts/Codes(EASY)/Modular Arithmetic.sol\":336:487  function callMulMod(... */\n      swap4\n      swap3\n      pop\n      pop\n      pop\n      jump\t// out\n        /* \"contracts/Codes(EASY)/Modular Arithmetic.sol\":126:277  function callAddMod(... */\n    tag_13:\n        /* \"contracts/Codes(EASY)/Modular Arithmetic.sol\":234:238  uint */\n      0x00\n        /* \"contracts/Codes(EASY)/Modular Arithmetic.sol\":268:269  c */\n      dup2\n        /* \"contracts/Codes(EASY)/Modular Arithmetic.sol\":263:264  b */\n      dup4\n        /* \"contracts/Codes(EASY)/Modular Arithmetic.sol\":259:260  a */\n      dup6\n        /* \"contracts/Codes(EASY)/Modular Arithmetic.sol\":259:264  a + b */\n      tag_21\n      swap2\n      swap1\n      tag_22\n      jump\t// in\n    tag_21:\n        /* \"contracts/Codes(EASY)/Modular Arithmetic.sol\":258:269  (a + b) % c */\n      tag_23\n      swap2\n      swap1\n      tag_19\n      jump\t// in\n    tag_23:\n        /* \"contracts/Codes(EASY)/Modular Arithmetic.sol\":251:269  return (a + b) % c */\n      swap1\n      pop\n        /* \"contracts/Codes(EASY)/Modular Arithmetic.sol\":126:277  function callAddMod(... */\n      swap4\n      swap3\n      pop\n      pop\n      pop\n      jump\t// out\n        /* \"#utility.yul\":88:205   */\n    tag_25:\n        /* \"#utility.yul\":197:198   */\n      0x00\n        /* \"#utility.yul\":194:195   */\n      0x00\n        /* \"#utility.yul\":187:199   */\n      revert\n        /* \"#utility.yul\":334:411   */\n    tag_27:\n        /* \"#utility.yul\":371:378   */\n      0x00\n        /* \"#utility.yul\":400:405   */\n      dup2\n        /* \"#utility.yul\":389:405   */\n      swap1\n      pop\n        /* \"#utility.yul\":334:411   */\n      swap2\n      swap1\n      pop\n      jump\t// out\n        /* \"#utility.yul\":417:539   */\n    tag_28:\n        /* \"#utility.yul\":490:514   */\n      tag_39\n        /* \"#utility.yul\":508:513   */\n      dup2\n        /* \"#utility.yul\":490:514   */\n      tag_27\n      jump\t// in\n    tag_39:\n        /* \"#utility.yul\":483:488   */\n      dup2\n        /* \"#utility.yul\":480:515   */\n      eq\n        /* \"#utility.yul\":470:533   */\n      tag_40\n      jumpi\n        /* \"#utility.yul\":529:530   */\n      0x00\n        /* \"#utility.yul\":526:527   */\n      0x00\n        /* \"#utility.yul\":519:531   */\n      revert\n        /* \"#utility.yul\":470:533   */\n    tag_40:\n        /* \"#utility.yul\":417:539   */\n      pop\n      jump\t// out\n        /* \"#utility.yul\":545:684   */\n    tag_29:\n        /* \"#utility.yul\":591:596   */\n      0x00\n        /* \"#utility.yul\":629:635   */\n      dup2\n        /* \"#utility.yul\":616:636   */\n      calldataload\n        /* \"#utility.yul\":607:636   */\n      swap1\n      pop\n        /* \"#utility.yul\":645:678   */\n      tag_42\n        /* \"#utility.yul\":672:677   */\n      dup2\n        /* \"#utility.yul\":645:678   */\n      tag_28\n      jump\t// in\n    tag_42:\n        /* \"#utility.yul\":545:684   */\n      swap3\n      swap2\n      pop\n      pop\n      jump\t// out\n        /* \"#utility.yul\":690:1309   */\n    tag_7:\n        /* \"#utility.yul\":767:773   */\n      0x00\n        /* \"#utility.yul\":775:781   */\n      0x00\n        /* \"#utility.yul\":783:789   */\n      0x00\n        /* \"#utility.yul\":832:834   */\n      0x60\n        /* \"#utility.yul\":820:829   */\n      dup5\n        /* \"#utility.yul\":811:818   */\n      dup7\n        /* \"#utility.yul\":807:830   */\n      sub\n        /* \"#utility.yul\":803:835   */\n      slt\n        /* \"#utility.yul\":800:919   */\n      iszero\n      tag_44\n      jumpi\n        /* \"#utility.yul\":838:917   */\n      tag_45\n      tag_25\n      jump\t// in\n    tag_45:\n        /* \"#utility.yul\":800:919   */\n    tag_44:\n        /* \"#utility.yul\":958:959   */\n      0x00\n        /* \"#utility.yul\":983:1036   */\n      tag_46\n        /* \"#utility.yul\":1028:1035   */\n      dup7\n        /* \"#utility.yul\":1019:1025   */\n      dup3\n        /* \"#utility.yul\":1008:1017   */\n      dup8\n        /* \"#utility.yul\":1004:1026   */\n      add\n        /* \"#utility.yul\":983:1036   */\n      tag_29\n      jump\t// in\n    tag_46:\n        /* \"#utility.yul\":973:1036   */\n      swap4\n      pop\n        /* \"#utility.yul\":929:1046   */\n      pop\n        /* \"#utility.yul\":1085:1087   */\n      0x20\n        /* \"#utility.yul\":1111:1164   */\n      tag_47\n        /* \"#utility.yul\":1156:1163   */\n      dup7\n        /* \"#utility.yul\":1147:1153   */\n      dup3\n        /* \"#utility.yul\":1136:1145   */\n      dup8\n        /* \"#utility.yul\":1132:1154   */\n      add\n        /* \"#utility.yul\":1111:1164   */\n      tag_29\n      jump\t// in\n    tag_47:\n        /* \"#utility.yul\":1101:1164   */\n      swap3\n      pop\n        /* \"#utility.yul\":1056:1174   */\n      pop\n        /* \"#utility.yul\":1213:1215   */\n      0x40\n        /* \"#utility.yul\":1239:1292   */\n      tag_48\n        /* \"#utility.yul\":1284:1291   */\n      dup7\n        /* \"#utility.yul\":1275:1281   */\n      dup3\n        /* \"#utility.yul\":1264:1273   */\n      dup8\n        /* \"#utility.yul\":1260:1282   */\n      add\n        /* \"#utility.yul\":1239:1292   */\n      tag_29\n      jump\t// in\n    tag_48:\n        /* \"#utility.yul\":1229:1292   */\n      swap2\n      pop\n        /* \"#utility.yul\":1184:1302   */\n      pop\n        /* \"#utility.yul\":690:1309   */\n      swap3\n      pop\n      swap3\n      pop\n      swap3\n      jump\t// out\n        /* \"#utility.yul\":1315:1433   */\n    tag_30:\n        /* \"#utility.yul\":1402:1426   */\n      tag_50\n        /* \"#utility.yul\":1420:1425   */\n      dup2\n        /* \"#utility.yul\":1402:1426   */\n      tag_27\n      jump\t// in\n    tag_50:\n        /* \"#utility.yul\":1397:1400   */\n      dup3\n        /* \"#utility.yul\":1390:1427   */\n      mstore\n        /* \"#utility.yul\":1315:1433   */\n      pop\n      pop\n      jump\t// out\n        /* \"#utility.yul\":1439:1661   */\n    tag_10:\n        /* \"#utility.yul\":1532:1536   */\n      0x00\n        /* \"#utility.yul\":1570:1572   */\n      0x20\n        /* \"#utility.yul\":1559:1568   */\n      dup3\n        /* \"#utility.yul\":1555:1573   */\n      add\n        /* \"#utility.yul\":1547:1573   */\n      swap1\n      pop\n        /* \"#utility.yul\":1583:1654   */\n      tag_52\n        /* \"#utility.yul\":1651:1652   */\n      0x00\n        /* \"#utility.yul\":1640:1649   */\n      dup4\n        /* \"#utility.yul\":1636:1653   */\n      add\n        /* \"#utility.yul\":1627:1633   */\n      dup5\n        /* \"#utility.yul\":1583:1654   */\n      tag_30\n      jump\t// in\n    tag_52:\n        /* \"#utility.yul\":1439:1661   */\n      swap3\n      swap2\n      pop\n      pop\n      jump\t// out\n        /* \"#utility.yul\":1667:1847   */\n    tag_31:\n        /* \"#utility.yul\":1715:1792   */\n      0x4e487b7100000000000000000000000000000000000000000000000000000000\n        /* \"#utility.yul\":1712:1713   */\n      0x00\n        /* \"#utility.yul\":1705:1793   */\n      mstore\n        /* \"#utility.yul\":1812:1816   */\n      0x11\n        /* \"#utility.yul\":1809:1810   */\n      0x04\n        /* \"#utility.yul\":1802:1817   */\n      mstore\n        /* \"#utility.yul\":1836:1840   */\n      0x24\n        /* \"#utility.yul\":1833:1834   */\n      0x00\n        /* \"#utility.yul\":1826:1841   */\n      revert\n        /* \"#utility.yul\":1853:2263   */\n    tag_17:\n        /* \"#utility.yul\":1893:1900   */\n      0x00\n        /* \"#utility.yul\":1916:1936   */\n      tag_55\n        /* \"#utility.yul\":1934:1935   */\n      dup3\n        /* \"#utility.yul\":1916:1936   */\n      tag_27\n      jump\t// in\n    tag_55:\n        /* \"#utility.yul\":1911:1936   */\n      swap2\n      pop\n        /* \"#utility.yul\":1950:1970   */\n      tag_56\n        /* \"#utility.yul\":1968:1969   */\n      dup4\n        /* \"#utility.yul\":1950:1970   */\n      tag_27\n      jump\t// in\n    tag_56:\n        /* \"#utility.yul\":1945:1970   */\n      swap3\n      pop\n        /* \"#utility.yul\":2005:2006   */\n      dup3\n        /* \"#utility.yul\":2002:2003   */\n      dup3\n        /* \"#utility.yul\":1998:2007   */\n      mul\n        /* \"#utility.yul\":2027:2057   */\n      tag_57\n        /* \"#utility.yul\":2045:2056   */\n      dup2\n        /* \"#utility.yul\":2027:2057   */\n      tag_27\n      jump\t// in\n    tag_57:\n        /* \"#utility.yul\":2016:2057   */\n      swap2\n      pop\n        /* \"#utility.yul\":2206:2207   */\n      dup3\n        /* \"#utility.yul\":2197:2204   */\n      dup3\n        /* \"#utility.yul\":2193:2208   */\n      div\n        /* \"#utility.yul\":2190:2191   */\n      dup5\n        /* \"#utility.yul\":2187:2209   */\n      eq\n        /* \"#utility.yul\":2167:2168   */\n      dup4\n        /* \"#utility.yul\":2160:2169   */\n      iszero\n        /* \"#utility.yul\":2140:2223   */\n      or\n        /* \"#utility.yul\":2117:2256   */\n      tag_58\n      jumpi\n        /* \"#utility.yul\":2236:2254   */\n      tag_59\n      tag_31\n      jump\t// in\n    tag_59:\n        /* \"#utility.yul\":2117:2256   */\n    tag_58:\n        /* \"#utility.yul\":1901:2263   */\n      pop\n        /* \"#utility.yul\":1853:2263   */\n      swap3\n      swap2\n      pop\n      pop\n      jump\t// out\n        /* \"#utility.yul\":2269:2449   */\n    tag_32:\n        /* \"#utility.yul\":2317:2394   */\n      0x4e487b7100000000000000000000000000000000000000000000000000000000\n        /* \"#utility.yul\":2314:2315   */\n      0x00\n        /* \"#utility.yul\":2307:2395   */\n      mstore\n        /* \"#utility.yul\":2414:2418   */\n      0x12\n        /* \"#utility.yul\":2411:2412   */\n      0x04\n        /* \"#utility.yul\":2404:2419   */\n      mstore\n        /* \"#utility.yul\":2438:2442   */\n      0x24\n        /* \"#utility.yul\":2435:2436   */\n      0x00\n        /* \"#utility.yul\":2428:2443   */\n      revert\n        /* \"#utility.yul\":2455:2631   */\n    tag_19:\n        /* \"#utility.yul\":2487:2488   */\n      0x00\n        /* \"#utility.yul\":2504:2524   */\n      tag_62\n        /* \"#utility.yul\":2522:2523   */\n      dup3\n        /* \"#utility.yul\":2504:2524   */\n      tag_27\n      jump\t// in\n    tag_62:\n        /* \"#utility.yul\":2499:2524   */\n      swap2\n      pop\n        /* \"#utility.yul\":2538:2558   */\n      tag_63\n        /* \"#utility.yul\":2556:2557   */\n      dup4\n        /* \"#utility.yul\":2538:2558   */\n      tag_27\n      jump\t// in\n    tag_63:\n        /* \"#utility.yul\":2533:2558   */\n      swap3\n      pop\n        /* \"#utility.yul\":2577:2578   */\n      dup3\n        /* \"#utility.yul\":2567:2602   */\n      tag_64\n      jumpi\n        /* \"#utility.yul\":2582:2600   */\n      tag_65\n      tag_32\n      jump\t// in\n    tag_65:\n        /* \"#utility.yul\":2567:2602   */\n    tag_64:\n        /* \"#utility.yul\":2623:2624   */\n      dup3\n        /* \"#utility.yul\":2620:2621   */\n      dup3\n        /* \"#utility.yul\":2616:2625   */\n      mod\n        /* \"#utility.yul\":2611:2625   */\n      swap1\n      pop\n        /* \"#utility.yul\":2455:2631   */\n      swap3\n      swap2\n      pop\n      pop\n      jump\t// out\n        /* \"#utility.yul\":2637:2828   */\n    tag_22:\n        /* \"#utility.yul\":2677:2680   */\n      0x00\n        /* \"#utility.yul\":2696:2716   */\n      tag_67\n        /* \"#utility.yul\":2714:2715   */\n      dup3\n        /* \"#utility.yul\":2696:2716   */\n      tag_27\n      jump\t// in\n    tag_67:\n        /* \"#utility.yul\":2691:2716   */\n      swap2\n      pop\n        /* \"#utility.yul\":2730:2750   */\n      tag_68\n        /* \"#utility.yul\":2748:2749   */\n      dup4\n        /* \"#utility.yul\":2730:2750   */\n      tag_27\n      jump\t// in\n    tag_68:\n        /* \"#utility.yul\":2725:2750   */\n      swap3\n      pop\n        /* \"#utility.yul\":2773:2774   */\n      dup3\n        /* \"#utility.yul\":2770:2771   */\n      dup3\n        /* \"#utility.yul\":2766:2775   */\n      add\n        /* \"#utility.yul\":2759:2775   */\n      swap1\n      pop\n        /* \"#utility.yul\":2794:2797   */\n      dup1\n        /* \"#utility.yul\":2791:2792   */\n      dup3\n        /* \"#utility.yul\":2788:2798   */\n      gt\n        /* \"#utility.yul\":2785:2821   */\n      iszero\n      tag_69\n      jumpi\n        /* \"#utility.yul\":2801:2819   */\n      tag_70\n      tag_31\n      jump\t// in\n    tag_70:\n        /* \"#utility.yul\":2785:2821   */\n    tag_69:\n        /* \"#utility.yul\":2637:2828   */\n      swap3\n      swap2\n      pop\n      pop\n      jump\t// out\n\n    auxdata: 0xa26469706673582212208d25320ecaa626c9aa33c8a060815a3fcaeeaa12291db2bb53419a6cb3fc3add64736f6c634300081c0033\n}\n",
				"bytecode": {
					"linkReferences": {},
					"object": "6080604052348015600e575f5ffd5b506102bd8061001c5f395ff3fe608060405234801561000f575f5ffd5b5060043610610034575f3560e01c8063062ddbb814610038578063224df9db14610068575b5f5ffd5b610052600480360381019061004d9190610111565b610098565b60405161005f9190610170565b60405180910390f35b610082600480360381019061007d9190610111565b6100b9565b60405161008f9190610170565b60405180910390f35b5f8183856100a691906101b6565b6100b09190610224565b90509392505050565b5f8183856100c79190610254565b6100d19190610224565b90509392505050565b5f5ffd5b5f819050919050565b6100f0816100de565b81146100fa575f5ffd5b50565b5f8135905061010b816100e7565b92915050565b5f5f5f60608486031215610128576101276100da565b5b5f610135868287016100fd565b9350506020610146868287016100fd565b9250506040610157868287016100fd565b9150509250925092565b61016a816100de565b82525050565b5f6020820190506101835f830184610161565b92915050565b7f4e487b71000000000000000000000000000000000000000000000000000000005f52601160045260245ffd5b5f6101c0826100de565b91506101cb836100de565b92508282026101d9816100de565b915082820484148315176101f0576101ef610189565b5b5092915050565b7f4e487b71000000000000000000000000000000000000000000000000000000005f52601260045260245ffd5b5f61022e826100de565b9150610239836100de565b925082610249576102486101f7565b5b828206905092915050565b5f61025e826100de565b9150610269836100de565b925082820190508082111561028157610280610189565b5b9291505056fea26469706673582212208d25320ecaa626c9aa33c8a060815a3fcaeeaa12291db2bb53419a6cb3fc3add64736f6c634300081c0033",
					"opcodes": "PUSH1 0x80 PUSH1 0x40 MSTORE CALLVALUE DUP1 ISZERO PUSH1 0xE JUMPI PUSH0 PUSH0 REVERT JUMPDEST POP PUSH2 0x2BD DUP1 PUSH2 0x1C PUSH0 CODECOPY PUSH0 RETURN INVALID PUSH1 0x80 PUSH1 0x40 MSTORE CALLVALUE DUP1 ISZERO PUSH2 0xF JUMPI PUSH0 PUSH0 REVERT JUMPDEST POP PUSH1 0x4 CALLDATASIZE LT PUSH2 0x34 JUMPI PUSH0 CALLDATALOAD PUSH1 0xE0 SHR DUP1 PUSH4 0x62DDBB8 EQ PUSH2 0x38 JUMPI DUP1 PUSH4 0x224DF9DB EQ PUSH2 0x68 JUMPI JUMPDEST PUSH0 PUSH0 REVERT JUMPDEST PUSH2 0x52 PUSH1 0x4 DUP1 CALLDATASIZE SUB DUP2 ADD SWAP1 PUSH2 0x4D SWAP2 SWAP1 PUSH2 0x111 JUMP JUMPDEST PUSH2 0x98 JUMP JUMPDEST PUSH1 0x40 MLOAD PUSH2 0x5F SWAP2 SWAP1 PUSH2 0x170 JUMP JUMPDEST PUSH1 0x40 MLOAD DUP1 SWAP2 SUB SWAP1 RETURN JUMPDEST PUSH2 0x82 PUSH1 0x4 DUP1 CALLDATASIZE SUB DUP2 ADD SWAP1 PUSH2 0x7D SWAP2 SWAP1 PUSH2 0x111 JUMP JUMPDEST PUSH2 0xB9 JUMP JUMPDEST PUSH1 0x40 MLOAD PUSH2 0x8F SWAP2 SWAP1 PUSH2 0x170 JUMP JUMPDEST PUSH1 0x40 MLOAD DUP1 SWAP2 SUB SWAP1 RETURN JUMPDEST PUSH0 DUP2 DUP4 DUP6 PUSH2 0xA6 SWAP2 SWAP1 PUSH2 0x1B6 JUMP JUMPDEST PUSH2 0xB0 SWAP2 SWAP1 PUSH2 0x224 JUMP JUMPDEST SWAP1 POP SWAP4 SWAP3 POP POP POP JUMP JUMPDEST PUSH0 DUP2 DUP4 DUP6 PUSH2 0xC7 SWAP2 SWAP1 PUSH2 0x254 JUMP JUMPDEST PUSH2 0xD1 SWAP2 SWAP1 PUSH2 0x224 JUMP JUMPDEST SWAP1 POP SWAP4 SWAP3 POP POP POP JUMP JUMPDEST PUSH0 PUSH0 REVERT JUMPDEST PUSH0 DUP2 SWAP1 POP SWAP2 SWAP1 POP JUMP JUMPDEST PUSH2 0xF0 DUP2 PUSH2 0xDE JUMP JUMPDEST DUP2 EQ PUSH2 0xFA JUMPI PUSH0 PUSH0 REVERT JUMPDEST POP JUMP JUMPDEST PUSH0 DUP2 CALLDATALOAD SWAP1 POP PUSH2 0x10B DUP2 PUSH2 0xE7 JUMP JUMPDEST SWAP3 SWAP2 POP POP JUMP JUMPDEST PUSH0 PUSH0 PUSH0 PUSH1 0x60 DUP5 DUP7 SUB SLT ISZERO PUSH2 0x128 JUMPI PUSH2 0x127 PUSH2 0xDA JUMP JUMPDEST JUMPDEST PUSH0 PUSH2 0x135 DUP7 DUP3 DUP8 ADD PUSH2 0xFD JUMP JUMPDEST SWAP4 POP POP PUSH1 0x20 PUSH2 0x146 DUP7 DUP3 DUP8 ADD PUSH2 0xFD JUMP JUMPDEST SWAP3 POP POP PUSH1 0x40 PUSH2 0x157 DUP7 DUP3 DUP8 ADD PUSH2 0xFD JUMP JUMPDEST SWAP2 POP POP SWAP3 POP SWAP3 POP SWAP3 JUMP JUMPDEST PUSH2 0x16A DUP2 PUSH2 0xDE JUMP JUMPDEST DUP3 MSTORE POP POP JUMP JUMPDEST PUSH0 PUSH1 0x20 DUP3 ADD SWAP1 POP PUSH2 0x183 PUSH0 DUP4 ADD DUP5 PUSH2 0x161 JUMP JUMPDEST SWAP3 SWAP2 POP POP JUMP JUMPDEST PUSH32 0x4E487B7100000000000000000000000000000000000000000000000000000000 PUSH0 MSTORE PUSH1 0x11 PUSH1 0x4 MSTORE PUSH1 0x24 PUSH0 REVERT JUMPDEST PUSH0 PUSH2 0x1C0 DUP3 PUSH2 0xDE JUMP JUMPDEST SWAP2 POP PUSH2 0x1CB DUP4 PUSH2 0xDE JUMP JUMPDEST SWAP3 POP DUP3 DUP3 MUL PUSH2 0x1D9 DUP2 PUSH2 0xDE JUMP JUMPDEST SWAP2 POP DUP3 DUP3 DIV DUP5 EQ DUP4 ISZERO OR PUSH2 0x1F0 JUMPI PUSH2 0x1EF PUSH2 0x189 JUMP JUMPDEST JUMPDEST POP SWAP3 SWAP2 POP POP JUMP JUMPDEST PUSH32 0x4E487B7100000000000000000000000000000000000000000000000000000000 PUSH0 MSTORE PUSH1 0x12 PUSH1 0x4 MSTORE PUSH1 0x24 PUSH0 REVERT JUMPDEST PUSH0 PUSH2 0x22E DUP3 PUSH2 0xDE JUMP JUMPDEST SWAP2 POP PUSH2 0x239 DUP4 PUSH2 0xDE JUMP JUMPDEST SWAP3 POP DUP3 PUSH2 0x249 JUMPI PUSH2 0x248 PUSH2 0x1F7 JUMP JUMPDEST JUMPDEST DUP3 DUP3 MOD SWAP1 POP SWAP3 SWAP2 POP POP JUMP JUMPDEST PUSH0 PUSH2 0x25E DUP3 PUSH2 0xDE JUMP JUMPDEST SWAP2 POP PUSH2 0x269 DUP4 PUSH2 0xDE JUMP JUMPDEST SWAP3 POP DUP3 DUP3 ADD SWAP1 POP DUP1 DUP3 GT ISZERO PUSH2 0x281 JUMPI PUSH2 0x280 PUSH2 0x189 JUMP JUMPDEST JUMPDEST SWAP3 SWAP2 POP POP JUMP INVALID LOG2 PUSH5 0x6970667358 0x22 SLT KECCAK256 DUP14 0x25 ORIGIN 0xE 0xCA 0xA6 0x26 0xC9 0xAA CALLER 0xC8 LOG0 PUSH1 0x81 GAS EXTCODEHASH 0xCA 0xEE 0xAA SLT 0x29 SAR 0xB2 0xBB MSTORE8 COINBASE SWAP11 PUSH13 0xB3FC3ADD64736F6C634300081C STOP CALLER "
				},
				"gasEstimates": {
					"creation": {
						"codeDepositCost": "140200",
						"executionCost": "181",
						"totalCost": "140381"
					},
					"external": {
						"callAddMod(uint256,uint256,uint256)": "infinite",
						"callMulMod(uint256,uint256,uint256)": "infinite"
					}
				},
				"methodIdentifiers": {
					"callAddMod(uint256,uint256,uint256)": "224df9db",
					"callMulMod(uint256,uint256,uint256)": "062ddbb8"
				}
			},
			"storageLayout": {
				"storage": [],
				"types": null
			},
			"userdoc": {
				"kind": "user",
				"methods": {},
				"version": 1
			}
		}
	}
}