{
	"contracts/Codes/Add_Item_Inventory.sol": {
		"Solution": {
			"abi": [
				{
					"inputs": [],
					"stateMutability": "nonpayable",
					"type": "constructor"
				},
				{
					"inputs": [
						{
							"internalType": "string",
							"name": "_name",
							"type": "string"
						},
						{
							"internalType": "uint256",
							"name": "_price",
							"type": "uint256"
						}
					],
					"name": "addItemToInventory",
					"outputs": [],
					"stateMutability": "nonpayable",
					"type": "function"
				},
				{
					"inputs": [],
					"name": "getInventory",
					"outputs": [
						{
							"components": [
								{
									"internalType": "string",
									"name": "name",
									"type": "string"
								},
								{
									"internalType": "uint256",
									"name": "price",
									"type": "uint256"
								}
							],
							"internalType": "struct Solution.Item[]",
							"name": "",
							"type": "tuple[]"
						}
					],
					"stateMutability": "view",
					"type": "function"
				},
				{
					"inputs": [
						{
							"internalType": "uint256",
							"name": "",
							"type": "uint256"
						}
					],
					"name": "inventory",
					"outputs": [
						{
							"internalType": "string",
							"name": "name",
							"type": "string"
						},
						{
							"internalType": "uint256",
							"name": "price",
							"type": "uint256"
						}
					],
					"stateMutability": "view",
					"type": "function"
				},
				{
					"inputs": [],
					"name": "owner",
					"outputs": [
						{
							"internalType": "address",
							"name": "",
							"type": "address"
						}
					],
					"stateMutability": "view",
					"type": "function"
				}
			],
			"devdoc": {
				"kind": "dev",
				"methods": {},
				"version": 1
			},
			"evm": {
				"assembly": "    /* \"contracts/Codes/Add_Item_Inventory.sol\":27:691  contract Solution {... */\n  mstore(0x40, 0x80)\n    /* \"contracts/Codes/Add_Item_Inventory.sol\":185:236  constructor() {... */\n  callvalue\n  dup1\n  iszero\n  tag_1\n  jumpi\n  revert(0x00, 0x00)\ntag_1:\n  pop\n    /* \"contracts/Codes/Add_Item_Inventory.sol\":218:228  msg.sender */\n  caller\n    /* \"contracts/Codes/Add_Item_Inventory.sol\":210:215  owner */\n  0x01\n  0x00\n    /* \"contracts/Codes/Add_Item_Inventory.sol\":210:228  owner = msg.sender */\n  0x0100\n  exp\n  dup2\n  sload\n  dup2\n  0xffffffffffffffffffffffffffffffffffffffff\n  mul\n  not\n  and\n  swap1\n  dup4\n  0xffffffffffffffffffffffffffffffffffffffff\n  and\n  mul\n  or\n  swap1\n  sstore\n  pop\n    /* \"contracts/Codes/Add_Item_Inventory.sol\":27:691  contract Solution {... */\n  dataSize(sub_0)\n  dup1\n  dataOffset(sub_0)\n  0x00\n  codecopy\n  0x00\n  return\nstop\n\nsub_0: assembly {\n        /* \"contracts/Codes/Add_Item_Inventory.sol\":27:691  contract Solution {... */\n      mstore(0x40, 0x80)\n      callvalue\n      dup1\n      iszero\n      tag_1\n      jumpi\n      revert(0x00, 0x00)\n    tag_1:\n      pop\n      jumpi(tag_2, lt(calldatasize, 0x04))\n      shr(0xe0, calldataload(0x00))\n      dup1\n      0x4272ee18\n      eq\n      tag_3\n      jumpi\n      dup1\n      0x5d7f850c\n      eq\n      tag_4\n      jumpi\n      dup1\n      0x8da5cb5b\n      eq\n      tag_5\n      jumpi\n      dup1\n      0xcaddd392\n      eq\n      tag_6\n      jumpi\n    tag_2:\n      revert(0x00, 0x00)\n        /* \"contracts/Codes/Add_Item_Inventory.sol\":126:149  Item[] public inventory */\n    tag_3:\n      tag_7\n      0x04\n      dup1\n      calldatasize\n      sub\n      dup2\n      add\n      swap1\n      tag_8\n      swap2\n      swap1\n      tag_9\n      jump\t// in\n    tag_8:\n      tag_10\n      jump\t// in\n    tag_7:\n      mload(0x40)\n      tag_11\n      swap3\n      swap2\n      swap1\n      tag_12\n      jump\t// in\n    tag_11:\n      mload(0x40)\n      dup1\n      swap2\n      sub\n      swap1\n      return\n        /* \"contracts/Codes/Add_Item_Inventory.sol\":476:586  function getInventory() public view returns (Item[] memory) {... */\n    tag_4:\n      tag_13\n      tag_14\n      jump\t// in\n    tag_13:\n      mload(0x40)\n      tag_15\n      swap2\n      swap1\n      tag_16\n      jump\t// in\n    tag_15:\n      mload(0x40)\n      dup1\n      swap2\n      sub\n      swap1\n      return\n        /* \"contracts/Codes/Add_Item_Inventory.sol\":156:176  address public owner */\n    tag_5:\n      tag_17\n      tag_18\n      jump\t// in\n    tag_17:\n      mload(0x40)\n      tag_19\n      swap2\n      swap1\n      tag_20\n      jump\t// in\n    tag_19:\n      mload(0x40)\n      dup1\n      swap2\n      sub\n      swap1\n      return\n        /* \"contracts/Codes/Add_Item_Inventory.sol\":244:419  function addItemToInventory(... */\n    tag_6:\n      tag_21\n      0x04\n      dup1\n      calldatasize\n      sub\n      dup2\n      add\n      swap1\n      tag_22\n      swap2\n      swap1\n      tag_23\n      jump\t// in\n    tag_22:\n      tag_24\n      jump\t// in\n    tag_21:\n      stop\n        /* \"contracts/Codes/Add_Item_Inventory.sol\":126:149  Item[] public inventory */\n    tag_10:\n      0x00\n      dup2\n      dup2\n      sload\n      dup2\n      lt\n      tag_25\n      jumpi\n      0x00\n      dup1\n      revert\n    tag_25:\n      swap1\n      0x00\n      mstore\n      keccak256(0x00, 0x20)\n      swap1\n      0x02\n      mul\n      add\n      0x00\n      swap2\n      pop\n      swap1\n      pop\n      dup1\n      0x00\n      add\n      dup1\n      sload\n      tag_27\n      swap1\n      tag_28\n      jump\t// in\n    tag_27:\n      dup1\n      0x1f\n      add\n      0x20\n      dup1\n      swap2\n      div\n      mul\n      0x20\n      add\n      mload(0x40)\n      swap1\n      dup2\n      add\n      0x40\n      mstore\n      dup1\n      swap3\n      swap2\n      swap1\n      dup2\n      dup2\n      mstore\n      0x20\n      add\n      dup3\n      dup1\n      sload\n      tag_29\n      swap1\n      tag_28\n      jump\t// in\n    tag_29:\n      dup1\n      iszero\n      tag_30\n      jumpi\n      dup1\n      0x1f\n      lt\n      tag_31\n      jumpi\n      0x0100\n      dup1\n      dup4\n      sload\n      div\n      mul\n      dup4\n      mstore\n      swap2\n      0x20\n      add\n      swap2\n      jump(tag_30)\n    tag_31:\n      dup3\n      add\n      swap2\n      swap1\n      0x00\n      mstore\n      keccak256(0x00, 0x20)\n      swap1\n    tag_32:\n      dup2\n      sload\n      dup2\n      mstore\n      swap1\n      0x01\n      add\n      swap1\n      0x20\n      add\n      dup1\n      dup4\n      gt\n      tag_32\n      jumpi\n      dup3\n      swap1\n      sub\n      0x1f\n      and\n      dup3\n      add\n      swap2\n    tag_30:\n      pop\n      pop\n      pop\n      pop\n      pop\n      swap1\n      dup1\n      0x01\n      add\n      sload\n      swap1\n      pop\n      dup3\n      jump\t// out\n        /* \"contracts/Codes/Add_Item_Inventory.sol\":476:586  function getInventory() public view returns (Item[] memory) {... */\n    tag_14:\n        /* \"contracts/Codes/Add_Item_Inventory.sol\":521:534  Item[] memory */\n      0x60\n        /* \"contracts/Codes/Add_Item_Inventory.sol\":569:578  inventory */\n      0x00\n        /* \"contracts/Codes/Add_Item_Inventory.sol\":562:578  return inventory */\n      dup1\n      sload\n      dup1\n      0x20\n      mul\n      0x20\n      add\n      mload(0x40)\n      swap1\n      dup2\n      add\n      0x40\n      mstore\n      dup1\n      swap3\n      swap2\n      swap1\n      dup2\n      dup2\n      mstore\n      0x20\n      add\n      0x00\n      swap1\n    tag_34:\n      dup3\n      dup3\n      lt\n      iszero\n      tag_35\n      jumpi\n      dup4\n      dup3\n      swap1\n      0x00\n      mstore\n      keccak256(0x00, 0x20)\n      swap1\n      0x02\n      mul\n      add\n      mload(0x40)\n      dup1\n      0x40\n      add\n      0x40\n      mstore\n      swap1\n      dup2\n      0x00\n      dup3\n      add\n      dup1\n      sload\n      tag_37\n      swap1\n      tag_28\n      jump\t// in\n    tag_37:\n      dup1\n      0x1f\n      add\n      0x20\n      dup1\n      swap2\n      div\n      mul\n      0x20\n      add\n      mload(0x40)\n      swap1\n      dup2\n      add\n      0x40\n      mstore\n      dup1\n      swap3\n      swap2\n      swap1\n      dup2\n      dup2\n      mstore\n      0x20\n      add\n      dup3\n      dup1\n      sload\n      tag_38\n      swap1\n      tag_28\n      jump\t// in\n    tag_38:\n      dup1\n      iszero\n      tag_39\n      jumpi\n      dup1\n      0x1f\n      lt\n      tag_40\n      jumpi\n      0x0100\n      dup1\n      dup4\n      sload\n      div\n      mul\n      dup4\n      mstore\n      swap2\n      0x20\n      add\n      swap2\n      jump(tag_39)\n    tag_40:\n      dup3\n      add\n      swap2\n      swap1\n      0x00\n      mstore\n      keccak256(0x00, 0x20)\n      swap1\n    tag_41:\n      dup2\n      sload\n      dup2\n      mstore\n      swap1\n      0x01\n      add\n      swap1\n      0x20\n      add\n      dup1\n      dup4\n      gt\n      tag_41\n      jumpi\n      dup3\n      swap1\n      sub\n      0x1f\n      and\n      dup3\n      add\n      swap2\n    tag_39:\n      pop\n      pop\n      pop\n      pop\n      pop\n      dup2\n      mstore\n      0x20\n      add\n      0x01\n      dup3\n      add\n      sload\n      dup2\n      mstore\n      pop\n      pop\n      dup2\n      mstore\n      0x20\n      add\n      swap1\n      0x01\n      add\n      swap1\n      jump(tag_34)\n    tag_35:\n      pop\n      pop\n      pop\n      pop\n      swap1\n      pop\n        /* \"contracts/Codes/Add_Item_Inventory.sol\":476:586  function getInventory() public view returns (Item[] memory) {... */\n      swap1\n      jump\t// out\n        /* \"contracts/Codes/Add_Item_Inventory.sol\":156:176  address public owner */\n    tag_18:\n      0x01\n      0x00\n      swap1\n      sload\n      swap1\n      0x0100\n      exp\n      swap1\n      div\n      0xffffffffffffffffffffffffffffffffffffffff\n      and\n      dup2\n      jump\t// out\n        /* \"contracts/Codes/Add_Item_Inventory.sol\":244:419  function addItemToInventory(... */\n    tag_24:\n        /* \"contracts/Codes/Add_Item_Inventory.sol\":377:386  inventory */\n      0x00\n        /* \"contracts/Codes/Add_Item_Inventory.sol\":392:410  Item(_name,_price) */\n      mload(0x40)\n      dup1\n      0x40\n      add\n      0x40\n      mstore\n      dup1\n        /* \"contracts/Codes/Add_Item_Inventory.sol\":397:402  _name */\n      dup5\n        /* \"contracts/Codes/Add_Item_Inventory.sol\":392:410  Item(_name,_price) */\n      dup2\n      mstore\n      0x20\n      add\n        /* \"contracts/Codes/Add_Item_Inventory.sol\":403:409  _price */\n      dup4\n        /* \"contracts/Codes/Add_Item_Inventory.sol\":392:410  Item(_name,_price) */\n      dup2\n      mstore\n      pop\n        /* \"contracts/Codes/Add_Item_Inventory.sol\":377:411  inventory.push(Item(_name,_price)) */\n      swap1\n      dup1\n      0x01\n      dup2\n      sload\n      add\n      dup1\n      dup3\n      sstore\n      dup1\n      swap2\n      pop\n      pop\n      0x01\n      swap1\n      sub\n      swap1\n      0x00\n      mstore\n      keccak256(0x00, 0x20)\n      swap1\n      0x02\n      mul\n      add\n      0x00\n      swap1\n      swap2\n      swap1\n      swap2\n      swap1\n      swap2\n      pop\n      0x00\n      dup3\n      add\n      mload\n      dup2\n      0x00\n      add\n      swap1\n      dup2\n      tag_45\n      swap2\n      swap1\n      tag_46\n      jump\t// in\n    tag_45:\n      pop\n      0x20\n      dup3\n      add\n      mload\n      dup2\n      0x01\n      add\n      sstore\n      pop\n      pop\n        /* \"contracts/Codes/Add_Item_Inventory.sol\":244:419  function addItemToInventory(... */\n      pop\n      pop\n      jump\t// out\n        /* \"#utility.yul\":7:82   */\n    tag_47:\n        /* \"#utility.yul\":40:46   */\n      0x00\n        /* \"#utility.yul\":73:75   */\n      0x40\n        /* \"#utility.yul\":67:76   */\n      mload\n        /* \"#utility.yul\":57:76   */\n      swap1\n      pop\n        /* \"#utility.yul\":7:82   */\n      swap1\n      jump\t// out\n        /* \"#utility.yul\":88:205   */\n    tag_48:\n        /* \"#utility.yul\":197:198   */\n      0x00\n        /* \"#utility.yul\":194:195   */\n      0x00\n        /* \"#utility.yul\":187:199   */\n      revert\n        /* \"#utility.yul\":211:328   */\n    tag_49:\n        /* \"#utility.yul\":320:321   */\n      0x00\n        /* \"#utility.yul\":317:318   */\n      0x00\n        /* \"#utility.yul\":310:322   */\n      revert\n        /* \"#utility.yul\":334:411   */\n    tag_50:\n        /* \"#utility.yul\":371:378   */\n      0x00\n        /* \"#utility.yul\":400:405   */\n      dup2\n        /* \"#utility.yul\":389:405   */\n      swap1\n      pop\n        /* \"#utility.yul\":334:411   */\n      swap2\n      swap1\n      pop\n      jump\t// out\n        /* \"#utility.yul\":417:539   */\n    tag_51:\n        /* \"#utility.yul\":490:514   */\n      tag_103\n        /* \"#utility.yul\":508:513   */\n      dup2\n        /* \"#utility.yul\":490:514   */\n      tag_50\n      jump\t// in\n    tag_103:\n        /* \"#utility.yul\":483:488   */\n      dup2\n        /* \"#utility.yul\":480:515   */\n      eq\n        /* \"#utility.yul\":470:533   */\n      tag_104\n      jumpi\n        /* \"#utility.yul\":529:530   */\n      0x00\n        /* \"#utility.yul\":526:527   */\n      0x00\n        /* \"#utility.yul\":519:531   */\n      revert\n        /* \"#utility.yul\":470:533   */\n    tag_104:\n        /* \"#utility.yul\":417:539   */\n      pop\n      jump\t// out\n        /* \"#utility.yul\":545:684   */\n    tag_52:\n        /* \"#utility.yul\":591:596   */\n      0x00\n        /* \"#utility.yul\":629:635   */\n      dup2\n        /* \"#utility.yul\":616:636   */\n      calldataload\n        /* \"#utility.yul\":607:636   */\n      swap1\n      pop\n        /* \"#utility.yul\":645:678   */\n      tag_106\n        /* \"#utility.yul\":672:677   */\n      dup2\n        /* \"#utility.yul\":645:678   */\n      tag_51\n      jump\t// in\n    tag_106:\n        /* \"#utility.yul\":545:684   */\n      swap3\n      swap2\n      pop\n      pop\n      jump\t// out\n        /* \"#utility.yul\":690:1019   */\n    tag_9:\n        /* \"#utility.yul\":749:755   */\n      0x00\n        /* \"#utility.yul\":798:800   */\n      0x20\n        /* \"#utility.yul\":786:795   */\n      dup3\n        /* \"#utility.yul\":777:784   */\n      dup5\n        /* \"#utility.yul\":773:796   */\n      sub\n        /* \"#utility.yul\":769:801   */\n      slt\n        /* \"#utility.yul\":766:885   */\n      iszero\n      tag_108\n      jumpi\n        /* \"#utility.yul\":804:883   */\n      tag_109\n      tag_48\n      jump\t// in\n    tag_109:\n        /* \"#utility.yul\":766:885   */\n    tag_108:\n        /* \"#utility.yul\":924:925   */\n      0x00\n        /* \"#utility.yul\":949:1002   */\n      tag_110\n        /* \"#utility.yul\":994:1001   */\n      dup5\n        /* \"#utility.yul\":985:991   */\n      dup3\n        /* \"#utility.yul\":974:983   */\n      dup6\n        /* \"#utility.yul\":970:992   */\n      add\n        /* \"#utility.yul\":949:1002   */\n      tag_52\n      jump\t// in\n    tag_110:\n        /* \"#utility.yul\":939:1002   */\n      swap2\n      pop\n        /* \"#utility.yul\":895:1012   */\n      pop\n        /* \"#utility.yul\":690:1019   */\n      swap3\n      swap2\n      pop\n      pop\n      jump\t// out\n        /* \"#utility.yul\":1025:1124   */\n    tag_53:\n        /* \"#utility.yul\":1077:1083   */\n      0x00\n        /* \"#utility.yul\":1111:1116   */\n      dup2\n        /* \"#utility.yul\":1105:1117   */\n      mload\n        /* \"#utility.yul\":1095:1117   */\n      swap1\n      pop\n        /* \"#utility.yul\":1025:1124   */\n      swap2\n      swap1\n      pop\n      jump\t// out\n        /* \"#utility.yul\":1130:1299   */\n    tag_54:\n        /* \"#utility.yul\":1214:1225   */\n      0x00\n        /* \"#utility.yul\":1248:1254   */\n      dup3\n        /* \"#utility.yul\":1243:1246   */\n      dup3\n        /* \"#utility.yul\":1236:1255   */\n      mstore\n        /* \"#utility.yul\":1288:1292   */\n      0x20\n        /* \"#utility.yul\":1283:1286   */\n      dup3\n        /* \"#utility.yul\":1279:1293   */\n      add\n        /* \"#utility.yul\":1264:1293   */\n      swap1\n      pop\n        /* \"#utility.yul\":1130:1299   */\n      swap3\n      swap2\n      pop\n      pop\n      jump\t// out\n        /* \"#utility.yul\":1305:1444   */\n    tag_55:\n        /* \"#utility.yul\":1394:1400   */\n      dup3\n        /* \"#utility.yul\":1389:1392   */\n      dup2\n        /* \"#utility.yul\":1384:1387   */\n      dup4\n        /* \"#utility.yul\":1378:1401   */\n      mcopy\n        /* \"#utility.yul\":1435:1436   */\n      0x00\n        /* \"#utility.yul\":1426:1432   */\n      dup4\n        /* \"#utility.yul\":1421:1424   */\n      dup4\n        /* \"#utility.yul\":1417:1433   */\n      add\n        /* \"#utility.yul\":1410:1437   */\n      mstore\n        /* \"#utility.yul\":1305:1444   */\n      pop\n      pop\n      pop\n      jump\t// out\n        /* \"#utility.yul\":1450:1552   */\n    tag_56:\n        /* \"#utility.yul\":1491:1497   */\n      0x00\n        /* \"#utility.yul\":1542:1544   */\n      0x1f\n        /* \"#utility.yul\":1538:1545   */\n      not\n        /* \"#utility.yul\":1533:1535   */\n      0x1f\n        /* \"#utility.yul\":1526:1531   */\n      dup4\n        /* \"#utility.yul\":1522:1536   */\n      add\n        /* \"#utility.yul\":1518:1546   */\n      and\n        /* \"#utility.yul\":1508:1546   */\n      swap1\n      pop\n        /* \"#utility.yul\":1450:1552   */\n      swap2\n      swap1\n      pop\n      jump\t// out\n        /* \"#utility.yul\":1558:1935   */\n    tag_57:\n        /* \"#utility.yul\":1646:1649   */\n      0x00\n        /* \"#utility.yul\":1674:1713   */\n      tag_116\n        /* \"#utility.yul\":1707:1712   */\n      dup3\n        /* \"#utility.yul\":1674:1713   */\n      tag_53\n      jump\t// in\n    tag_116:\n        /* \"#utility.yul\":1729:1800   */\n      tag_117\n        /* \"#utility.yul\":1793:1799   */\n      dup2\n        /* \"#utility.yul\":1788:1791   */\n      dup6\n        /* \"#utility.yul\":1729:1800   */\n      tag_54\n      jump\t// in\n    tag_117:\n        /* \"#utility.yul\":1722:1800   */\n      swap4\n      pop\n        /* \"#utility.yul\":1809:1874   */\n      tag_118\n        /* \"#utility.yul\":1867:1873   */\n      dup2\n        /* \"#utility.yul\":1862:1865   */\n      dup6\n        /* \"#utility.yul\":1855:1859   */\n      0x20\n        /* \"#utility.yul\":1848:1853   */\n      dup7\n        /* \"#utility.yul\":1844:1860   */\n      add\n        /* \"#utility.yul\":1809:1874   */\n      tag_55\n      jump\t// in\n    tag_118:\n        /* \"#utility.yul\":1899:1928   */\n      tag_119\n        /* \"#utility.yul\":1921:1927   */\n      dup2\n        /* \"#utility.yul\":1899:1928   */\n      tag_56\n      jump\t// in\n    tag_119:\n        /* \"#utility.yul\":1894:1897   */\n      dup5\n        /* \"#utility.yul\":1890:1929   */\n      add\n        /* \"#utility.yul\":1883:1929   */\n      swap2\n      pop\n        /* \"#utility.yul\":1650:1935   */\n      pop\n        /* \"#utility.yul\":1558:1935   */\n      swap3\n      swap2\n      pop\n      pop\n      jump\t// out\n        /* \"#utility.yul\":1941:2059   */\n    tag_58:\n        /* \"#utility.yul\":2028:2052   */\n      tag_121\n        /* \"#utility.yul\":2046:2051   */\n      dup2\n        /* \"#utility.yul\":2028:2052   */\n      tag_50\n      jump\t// in\n    tag_121:\n        /* \"#utility.yul\":2023:2026   */\n      dup3\n        /* \"#utility.yul\":2016:2053   */\n      mstore\n        /* \"#utility.yul\":1941:2059   */\n      pop\n      pop\n      jump\t// out\n        /* \"#utility.yul\":2065:2488   */\n    tag_12:\n        /* \"#utility.yul\":2206:2210   */\n      0x00\n        /* \"#utility.yul\":2244:2246   */\n      0x40\n        /* \"#utility.yul\":2233:2242   */\n      dup3\n        /* \"#utility.yul\":2229:2247   */\n      add\n        /* \"#utility.yul\":2221:2247   */\n      swap1\n      pop\n        /* \"#utility.yul\":2293:2302   */\n      dup2\n        /* \"#utility.yul\":2287:2291   */\n      dup2\n        /* \"#utility.yul\":2283:2303   */\n      sub\n        /* \"#utility.yul\":2279:2280   */\n      0x00\n        /* \"#utility.yul\":2268:2277   */\n      dup4\n        /* \"#utility.yul\":2264:2281   */\n      add\n        /* \"#utility.yul\":2257:2304   */\n      mstore\n        /* \"#utility.yul\":2321:2399   */\n      tag_123\n        /* \"#utility.yul\":2394:2398   */\n      dup2\n        /* \"#utility.yul\":2385:2391   */\n      dup6\n        /* \"#utility.yul\":2321:2399   */\n      tag_57\n      jump\t// in\n    tag_123:\n        /* \"#utility.yul\":2313:2399   */\n      swap1\n      pop\n        /* \"#utility.yul\":2409:2481   */\n      tag_124\n        /* \"#utility.yul\":2477:2479   */\n      0x20\n        /* \"#utility.yul\":2466:2475   */\n      dup4\n        /* \"#utility.yul\":2462:2480   */\n      add\n        /* \"#utility.yul\":2453:2459   */\n      dup5\n        /* \"#utility.yul\":2409:2481   */\n      tag_58\n      jump\t// in\n    tag_124:\n        /* \"#utility.yul\":2065:2488   */\n      swap4\n      swap3\n      pop\n      pop\n      pop\n      jump\t// out\n        /* \"#utility.yul\":2494:2627   */\n    tag_59:\n        /* \"#utility.yul\":2580:2586   */\n      0x00\n        /* \"#utility.yul\":2614:2619   */\n      dup2\n        /* \"#utility.yul\":2608:2620   */\n      mload\n        /* \"#utility.yul\":2598:2620   */\n      swap1\n      pop\n        /* \"#utility.yul\":2494:2627   */\n      swap2\n      swap1\n      pop\n      jump\t// out\n        /* \"#utility.yul\":2633:2836   */\n    tag_60:\n        /* \"#utility.yul\":2751:2762   */\n      0x00\n        /* \"#utility.yul\":2785:2791   */\n      dup3\n        /* \"#utility.yul\":2780:2783   */\n      dup3\n        /* \"#utility.yul\":2773:2792   */\n      mstore\n        /* \"#utility.yul\":2825:2829   */\n      0x20\n        /* \"#utility.yul\":2820:2823   */\n      dup3\n        /* \"#utility.yul\":2816:2830   */\n      add\n        /* \"#utility.yul\":2801:2830   */\n      swap1\n      pop\n        /* \"#utility.yul\":2633:2836   */\n      swap3\n      swap2\n      pop\n      pop\n      jump\t// out\n        /* \"#utility.yul\":2842:2993   */\n    tag_61:\n        /* \"#utility.yul\":2928:2932   */\n      0x00\n        /* \"#utility.yul\":2951:2954   */\n      dup2\n        /* \"#utility.yul\":2943:2954   */\n      swap1\n      pop\n        /* \"#utility.yul\":2981:2985   */\n      0x20\n        /* \"#utility.yul\":2976:2979   */\n      dup3\n        /* \"#utility.yul\":2972:2986   */\n      add\n        /* \"#utility.yul\":2964:2986   */\n      swap1\n      pop\n        /* \"#utility.yul\":2842:2993   */\n      swap2\n      swap1\n      pop\n      jump\t// out\n        /* \"#utility.yul\":2999:3158   */\n    tag_62:\n        /* \"#utility.yul\":3073:3084   */\n      0x00\n        /* \"#utility.yul\":3107:3113   */\n      dup3\n        /* \"#utility.yul\":3102:3105   */\n      dup3\n        /* \"#utility.yul\":3095:3114   */\n      mstore\n        /* \"#utility.yul\":3147:3151   */\n      0x20\n        /* \"#utility.yul\":3142:3145   */\n      dup3\n        /* \"#utility.yul\":3138:3152   */\n      add\n        /* \"#utility.yul\":3123:3152   */\n      swap1\n      pop\n        /* \"#utility.yul\":2999:3158   */\n      swap3\n      swap2\n      pop\n      pop\n      jump\t// out\n        /* \"#utility.yul\":3164:3521   */\n    tag_63:\n        /* \"#utility.yul\":3242:3245   */\n      0x00\n        /* \"#utility.yul\":3270:3309   */\n      tag_130\n        /* \"#utility.yul\":3303:3308   */\n      dup3\n        /* \"#utility.yul\":3270:3309   */\n      tag_53\n      jump\t// in\n    tag_130:\n        /* \"#utility.yul\":3325:3386   */\n      tag_131\n        /* \"#utility.yul\":3379:3385   */\n      dup2\n        /* \"#utility.yul\":3374:3377   */\n      dup6\n        /* \"#utility.yul\":3325:3386   */\n      tag_62\n      jump\t// in\n    tag_131:\n        /* \"#utility.yul\":3318:3386   */\n      swap4\n      pop\n        /* \"#utility.yul\":3395:3460   */\n      tag_132\n        /* \"#utility.yul\":3453:3459   */\n      dup2\n        /* \"#utility.yul\":3448:3451   */\n      dup6\n        /* \"#utility.yul\":3441:3445   */\n      0x20\n        /* \"#utility.yul\":3434:3439   */\n      dup7\n        /* \"#utility.yul\":3430:3446   */\n      add\n        /* \"#utility.yul\":3395:3460   */\n      tag_55\n      jump\t// in\n    tag_132:\n        /* \"#utility.yul\":3485:3514   */\n      tag_133\n        /* \"#utility.yul\":3507:3513   */\n      dup2\n        /* \"#utility.yul\":3485:3514   */\n      tag_56\n      jump\t// in\n    tag_133:\n        /* \"#utility.yul\":3480:3483   */\n      dup5\n        /* \"#utility.yul\":3476:3515   */\n      add\n        /* \"#utility.yul\":3469:3515   */\n      swap2\n      pop\n        /* \"#utility.yul\":3246:3521   */\n      pop\n        /* \"#utility.yul\":3164:3521   */\n      swap3\n      swap2\n      pop\n      pop\n      jump\t// out\n        /* \"#utility.yul\":3527:3635   */\n    tag_64:\n        /* \"#utility.yul\":3604:3628   */\n      tag_135\n        /* \"#utility.yul\":3622:3627   */\n      dup2\n        /* \"#utility.yul\":3604:3628   */\n      tag_50\n      jump\t// in\n    tag_135:\n        /* \"#utility.yul\":3599:3602   */\n      dup3\n        /* \"#utility.yul\":3592:3629   */\n      mstore\n        /* \"#utility.yul\":3527:3635   */\n      pop\n      pop\n      jump\t// out\n        /* \"#utility.yul\":3693:4278   */\n    tag_65:\n        /* \"#utility.yul\":3790:3793   */\n      0x00\n        /* \"#utility.yul\":3826:3830   */\n      0x40\n        /* \"#utility.yul\":3821:3824   */\n      dup4\n        /* \"#utility.yul\":3817:3831   */\n      add\n        /* \"#utility.yul\":3913:3917   */\n      0x00\n        /* \"#utility.yul\":3906:3911   */\n      dup4\n        /* \"#utility.yul\":3902:3918   */\n      add\n        /* \"#utility.yul\":3896:3919   */\n      mload\n        /* \"#utility.yul\":3966:3969   */\n      dup5\n        /* \"#utility.yul\":3960:3964   */\n      dup3\n        /* \"#utility.yul\":3956:3970   */\n      sub\n        /* \"#utility.yul\":3949:3953   */\n      0x00\n        /* \"#utility.yul\":3944:3947   */\n      dup7\n        /* \"#utility.yul\":3940:3954   */\n      add\n        /* \"#utility.yul\":3933:3971   */\n      mstore\n        /* \"#utility.yul\":3992:4065   */\n      tag_137\n        /* \"#utility.yul\":4060:4064   */\n      dup3\n        /* \"#utility.yul\":4046:4058   */\n      dup3\n        /* \"#utility.yul\":3992:4065   */\n      tag_63\n      jump\t// in\n    tag_137:\n        /* \"#utility.yul\":3984:4065   */\n      swap2\n      pop\n        /* \"#utility.yul\":3841:4076   */\n      pop\n        /* \"#utility.yul\":4159:4163   */\n      0x20\n        /* \"#utility.yul\":4152:4157   */\n      dup4\n        /* \"#utility.yul\":4148:4164   */\n      add\n        /* \"#utility.yul\":4142:4165   */\n      mload\n        /* \"#utility.yul\":4178:4241   */\n      tag_138\n        /* \"#utility.yul\":4235:4239   */\n      0x20\n        /* \"#utility.yul\":4230:4233   */\n      dup7\n        /* \"#utility.yul\":4226:4240   */\n      add\n        /* \"#utility.yul\":4212:4224   */\n      dup3\n        /* \"#utility.yul\":4178:4241   */\n      tag_64\n      jump\t// in\n    tag_138:\n        /* \"#utility.yul\":4086:4251   */\n      pop\n        /* \"#utility.yul\":4268:4272   */\n      dup1\n        /* \"#utility.yul\":4261:4272   */\n      swap2\n      pop\n        /* \"#utility.yul\":3795:4278   */\n      pop\n        /* \"#utility.yul\":3693:4278   */\n      swap3\n      swap2\n      pop\n      pop\n      jump\t// out\n        /* \"#utility.yul\":4284:4516   */\n    tag_66:\n        /* \"#utility.yul\":4391:4401   */\n      0x00\n        /* \"#utility.yul\":4426:4510   */\n      tag_140\n        /* \"#utility.yul\":4506:4509   */\n      dup4\n        /* \"#utility.yul\":4498:4504   */\n      dup4\n        /* \"#utility.yul\":4426:4510   */\n      tag_65\n      jump\t// in\n    tag_140:\n        /* \"#utility.yul\":4412:4510   */\n      swap1\n      pop\n        /* \"#utility.yul\":4284:4516   */\n      swap3\n      swap2\n      pop\n      pop\n      jump\t// out\n        /* \"#utility.yul\":4522:4654   */\n    tag_67:\n        /* \"#utility.yul\":4611:4615   */\n      0x00\n        /* \"#utility.yul\":4643:4647   */\n      0x20\n        /* \"#utility.yul\":4638:4641   */\n      dup3\n        /* \"#utility.yul\":4634:4648   */\n      add\n        /* \"#utility.yul\":4626:4648   */\n      swap1\n      pop\n        /* \"#utility.yul\":4522:4654   */\n      swap2\n      swap1\n      pop\n      jump\t// out\n        /* \"#utility.yul\":4716:5779   */\n    tag_68:\n        /* \"#utility.yul\":4873:4876   */\n      0x00\n        /* \"#utility.yul\":4902:4975   */\n      tag_143\n        /* \"#utility.yul\":4969:4974   */\n      dup3\n        /* \"#utility.yul\":4902:4975   */\n      tag_59\n      jump\t// in\n    tag_143:\n        /* \"#utility.yul\":4991:5096   */\n      tag_144\n        /* \"#utility.yul\":5089:5095   */\n      dup2\n        /* \"#utility.yul\":5084:5087   */\n      dup6\n        /* \"#utility.yul\":4991:5096   */\n      tag_60\n      jump\t// in\n    tag_144:\n        /* \"#utility.yul\":4984:5096   */\n      swap4\n      pop\n        /* \"#utility.yul\":5122:5125   */\n      dup4\n        /* \"#utility.yul\":5167:5171   */\n      0x20\n        /* \"#utility.yul\":5159:5165   */\n      dup3\n        /* \"#utility.yul\":5155:5172   */\n      mul\n        /* \"#utility.yul\":5150:5153   */\n      dup6\n        /* \"#utility.yul\":5146:5173   */\n      add\n        /* \"#utility.yul\":5197:5272   */\n      tag_145\n        /* \"#utility.yul\":5266:5271   */\n      dup6\n        /* \"#utility.yul\":5197:5272   */\n      tag_61\n      jump\t// in\n    tag_145:\n        /* \"#utility.yul\":5295:5302   */\n      dup1\n        /* \"#utility.yul\":5326:5327   */\n      0x00\n        /* \"#utility.yul\":5311:5734   */\n    tag_146:\n        /* \"#utility.yul\":5336:5342   */\n      dup6\n        /* \"#utility.yul\":5333:5334   */\n      dup2\n        /* \"#utility.yul\":5330:5343   */\n      lt\n        /* \"#utility.yul\":5311:5734   */\n      iszero\n      tag_148\n      jumpi\n        /* \"#utility.yul\":5407:5416   */\n      dup5\n        /* \"#utility.yul\":5401:5405   */\n      dup5\n        /* \"#utility.yul\":5397:5417   */\n      sub\n        /* \"#utility.yul\":5392:5395   */\n      dup10\n        /* \"#utility.yul\":5385:5418   */\n      mstore\n        /* \"#utility.yul\":5458:5464   */\n      dup2\n        /* \"#utility.yul\":5452:5465   */\n      mload\n        /* \"#utility.yul\":5486:5588   */\n      tag_149\n        /* \"#utility.yul\":5583:5587   */\n      dup6\n        /* \"#utility.yul\":5568:5581   */\n      dup3\n        /* \"#utility.yul\":5486:5588   */\n      tag_66\n      jump\t// in\n    tag_149:\n        /* \"#utility.yul\":5478:5588   */\n      swap5\n      pop\n        /* \"#utility.yul\":5611:5690   */\n      tag_150\n        /* \"#utility.yul\":5683:5689   */\n      dup4\n        /* \"#utility.yul\":5611:5690   */\n      tag_67\n      jump\t// in\n    tag_150:\n        /* \"#utility.yul\":5601:5690   */\n      swap3\n      pop\n        /* \"#utility.yul\":5719:5723   */\n      0x20\n        /* \"#utility.yul\":5714:5717   */\n      dup11\n        /* \"#utility.yul\":5710:5724   */\n      add\n        /* \"#utility.yul\":5703:5724   */\n      swap10\n      pop\n        /* \"#utility.yul\":5371:5734   */\n      pop\n        /* \"#utility.yul\":5358:5359   */\n      0x01\n        /* \"#utility.yul\":5355:5356   */\n      dup2\n        /* \"#utility.yul\":5351:5360   */\n      add\n        /* \"#utility.yul\":5346:5360   */\n      swap1\n      pop\n        /* \"#utility.yul\":5311:5734   */\n      jump(tag_146)\n    tag_148:\n        /* \"#utility.yul\":5315:5329   */\n      pop\n        /* \"#utility.yul\":5750:5754   */\n      dup3\n        /* \"#utility.yul\":5743:5754   */\n      swap8\n      pop\n        /* \"#utility.yul\":5770:5773   */\n      dup8\n        /* \"#utility.yul\":5763:5773   */\n      swap6\n      pop\n        /* \"#utility.yul\":4878:5779   */\n      pop\n      pop\n      pop\n      pop\n      pop\n        /* \"#utility.yul\":4716:5779   */\n      swap3\n      swap2\n      pop\n      pop\n      jump\t// out\n        /* \"#utility.yul\":5785:6234   */\n    tag_16:\n        /* \"#utility.yul\":5966:5970   */\n      0x00\n        /* \"#utility.yul\":6004:6006   */\n      0x20\n        /* \"#utility.yul\":5993:6002   */\n      dup3\n        /* \"#utility.yul\":5989:6007   */\n      add\n        /* \"#utility.yul\":5981:6007   */\n      swap1\n      pop\n        /* \"#utility.yul\":6053:6062   */\n      dup2\n        /* \"#utility.yul\":6047:6051   */\n      dup2\n        /* \"#utility.yul\":6043:6063   */\n      sub\n        /* \"#utility.yul\":6039:6040   */\n      0x00\n        /* \"#utility.yul\":6028:6037   */\n      dup4\n        /* \"#utility.yul\":6024:6041   */\n      add\n        /* \"#utility.yul\":6017:6064   */\n      mstore\n        /* \"#utility.yul\":6081:6227   */\n      tag_152\n        /* \"#utility.yul\":6222:6226   */\n      dup2\n        /* \"#utility.yul\":6213:6219   */\n      dup5\n        /* \"#utility.yul\":6081:6227   */\n      tag_68\n      jump\t// in\n    tag_152:\n        /* \"#utility.yul\":6073:6227   */\n      swap1\n      pop\n        /* \"#utility.yul\":5785:6234   */\n      swap3\n      swap2\n      pop\n      pop\n      jump\t// out\n        /* \"#utility.yul\":6240:6366   */\n    tag_69:\n        /* \"#utility.yul\":6277:6284   */\n      0x00\n        /* \"#utility.yul\":6317:6359   */\n      0xffffffffffffffffffffffffffffffffffffffff\n        /* \"#utility.yul\":6310:6315   */\n      dup3\n        /* \"#utility.yul\":6306:6360   */\n      and\n        /* \"#utility.yul\":6295:6360   */\n      swap1\n      pop\n        /* \"#utility.yul\":6240:6366   */\n      swap2\n      swap1\n      pop\n      jump\t// out\n        /* \"#utility.yul\":6372:6468   */\n    tag_70:\n        /* \"#utility.yul\":6409:6416   */\n      0x00\n        /* \"#utility.yul\":6438:6462   */\n      tag_155\n        /* \"#utility.yul\":6456:6461   */\n      dup3\n        /* \"#utility.yul\":6438:6462   */\n      tag_69\n      jump\t// in\n    tag_155:\n        /* \"#utility.yul\":6427:6462   */\n      swap1\n      pop\n        /* \"#utility.yul\":6372:6468   */\n      swap2\n      swap1\n      pop\n      jump\t// out\n        /* \"#utility.yul\":6474:6592   */\n    tag_71:\n        /* \"#utility.yul\":6561:6585   */\n      tag_157\n        /* \"#utility.yul\":6579:6584   */\n      dup2\n        /* \"#utility.yul\":6561:6585   */\n      tag_70\n      jump\t// in\n    tag_157:\n        /* \"#utility.yul\":6556:6559   */\n      dup3\n        /* \"#utility.yul\":6549:6586   */\n      mstore\n        /* \"#utility.yul\":6474:6592   */\n      pop\n      pop\n      jump\t// out\n        /* \"#utility.yul\":6598:6820   */\n    tag_20:\n        /* \"#utility.yul\":6691:6695   */\n      0x00\n        /* \"#utility.yul\":6729:6731   */\n      0x20\n        /* \"#utility.yul\":6718:6727   */\n      dup3\n        /* \"#utility.yul\":6714:6732   */\n      add\n        /* \"#utility.yul\":6706:6732   */\n      swap1\n      pop\n        /* \"#utility.yul\":6742:6813   */\n      tag_159\n        /* \"#utility.yul\":6810:6811   */\n      0x00\n        /* \"#utility.yul\":6799:6808   */\n      dup4\n        /* \"#utility.yul\":6795:6812   */\n      add\n        /* \"#utility.yul\":6786:6792   */\n      dup5\n        /* \"#utility.yul\":6742:6813   */\n      tag_71\n      jump\t// in\n    tag_159:\n        /* \"#utility.yul\":6598:6820   */\n      swap3\n      swap2\n      pop\n      pop\n      jump\t// out\n        /* \"#utility.yul\":6826:6943   */\n    tag_72:\n        /* \"#utility.yul\":6935:6936   */\n      0x00\n        /* \"#utility.yul\":6932:6933   */\n      0x00\n        /* \"#utility.yul\":6925:6937   */\n      revert\n        /* \"#utility.yul\":6949:7066   */\n    tag_73:\n        /* \"#utility.yul\":7058:7059   */\n      0x00\n        /* \"#utility.yul\":7055:7056   */\n      0x00\n        /* \"#utility.yul\":7048:7060   */\n      revert\n        /* \"#utility.yul\":7072:7252   */\n    tag_74:\n        /* \"#utility.yul\":7120:7197   */\n      0x4e487b7100000000000000000000000000000000000000000000000000000000\n        /* \"#utility.yul\":7117:7118   */\n      0x00\n        /* \"#utility.yul\":7110:7198   */\n      mstore\n        /* \"#utility.yul\":7217:7221   */\n      0x41\n        /* \"#utility.yul\":7214:7215   */\n      0x04\n        /* \"#utility.yul\":7207:7222   */\n      mstore\n        /* \"#utility.yul\":7241:7245   */\n      0x24\n        /* \"#utility.yul\":7238:7239   */\n      0x00\n        /* \"#utility.yul\":7231:7246   */\n      revert\n        /* \"#utility.yul\":7258:7539   */\n    tag_75:\n        /* \"#utility.yul\":7341:7368   */\n      tag_164\n        /* \"#utility.yul\":7363:7367   */\n      dup3\n        /* \"#utility.yul\":7341:7368   */\n      tag_56\n      jump\t// in\n    tag_164:\n        /* \"#utility.yul\":7333:7339   */\n      dup2\n        /* \"#utility.yul\":7329:7369   */\n      add\n        /* \"#utility.yul\":7471:7477   */\n      dup2\n        /* \"#utility.yul\":7459:7469   */\n      dup2\n        /* \"#utility.yul\":7456:7478   */\n      lt\n        /* \"#utility.yul\":7435:7453   */\n      0xffffffffffffffff\n        /* \"#utility.yul\":7423:7433   */\n      dup3\n        /* \"#utility.yul\":7420:7454   */\n      gt\n        /* \"#utility.yul\":7417:7479   */\n      or\n        /* \"#utility.yul\":7414:7502   */\n      iszero\n      tag_165\n      jumpi\n        /* \"#utility.yul\":7482:7500   */\n      tag_166\n      tag_74\n      jump\t// in\n    tag_166:\n        /* \"#utility.yul\":7414:7502   */\n    tag_165:\n        /* \"#utility.yul\":7522:7532   */\n      dup1\n        /* \"#utility.yul\":7518:7520   */\n      0x40\n        /* \"#utility.yul\":7511:7533   */\n      mstore\n        /* \"#utility.yul\":7301:7539   */\n      pop\n        /* \"#utility.yul\":7258:7539   */\n      pop\n      pop\n      jump\t// out\n        /* \"#utility.yul\":7545:7674   */\n    tag_76:\n        /* \"#utility.yul\":7579:7585   */\n      0x00\n        /* \"#utility.yul\":7606:7626   */\n      tag_168\n      tag_47\n      jump\t// in\n    tag_168:\n        /* \"#utility.yul\":7596:7626   */\n      swap1\n      pop\n        /* \"#utility.yul\":7635:7668   */\n      tag_169\n        /* \"#utility.yul\":7663:7667   */\n      dup3\n        /* \"#utility.yul\":7655:7661   */\n      dup3\n        /* \"#utility.yul\":7635:7668   */\n      tag_75\n      jump\t// in\n    tag_169:\n        /* \"#utility.yul\":7545:7674   */\n      swap2\n      swap1\n      pop\n      jump\t// out\n        /* \"#utility.yul\":7680:7988   */\n    tag_77:\n        /* \"#utility.yul\":7742:7746   */\n      0x00\n        /* \"#utility.yul\":7832:7850   */\n      0xffffffffffffffff\n        /* \"#utility.yul\":7824:7830   */\n      dup3\n        /* \"#utility.yul\":7821:7851   */\n      gt\n        /* \"#utility.yul\":7818:7874   */\n      iszero\n      tag_171\n      jumpi\n        /* \"#utility.yul\":7854:7872   */\n      tag_172\n      tag_74\n      jump\t// in\n    tag_172:\n        /* \"#utility.yul\":7818:7874   */\n    tag_171:\n        /* \"#utility.yul\":7892:7921   */\n      tag_173\n        /* \"#utility.yul\":7914:7920   */\n      dup3\n        /* \"#utility.yul\":7892:7921   */\n      tag_56\n      jump\t// in\n    tag_173:\n        /* \"#utility.yul\":7884:7921   */\n      swap1\n      pop\n        /* \"#utility.yul\":7976:7980   */\n      0x20\n        /* \"#utility.yul\":7970:7974   */\n      dup2\n        /* \"#utility.yul\":7966:7981   */\n      add\n        /* \"#utility.yul\":7958:7981   */\n      swap1\n      pop\n        /* \"#utility.yul\":7680:7988   */\n      swap2\n      swap1\n      pop\n      jump\t// out\n        /* \"#utility.yul\":7994:8142   */\n    tag_78:\n        /* \"#utility.yul\":8092:8098   */\n      dup3\n        /* \"#utility.yul\":8087:8090   */\n      dup2\n        /* \"#utility.yul\":8082:8085   */\n      dup4\n        /* \"#utility.yul\":8069:8099   */\n      calldatacopy\n        /* \"#utility.yul\":8133:8134   */\n      0x00\n        /* \"#utility.yul\":8124:8130   */\n      dup4\n        /* \"#utility.yul\":8119:8122   */\n      dup4\n        /* \"#utility.yul\":8115:8131   */\n      add\n        /* \"#utility.yul\":8108:8135   */\n      mstore\n        /* \"#utility.yul\":7994:8142   */\n      pop\n      pop\n      pop\n      jump\t// out\n        /* \"#utility.yul\":8148:8573   */\n    tag_79:\n        /* \"#utility.yul\":8226:8231   */\n      0x00\n        /* \"#utility.yul\":8251:8317   */\n      tag_176\n        /* \"#utility.yul\":8267:8316   */\n      tag_177\n        /* \"#utility.yul\":8309:8315   */\n      dup5\n        /* \"#utility.yul\":8267:8316   */\n      tag_77\n      jump\t// in\n    tag_177:\n        /* \"#utility.yul\":8251:8317   */\n      tag_76\n      jump\t// in\n    tag_176:\n        /* \"#utility.yul\":8242:8317   */\n      swap1\n      pop\n        /* \"#utility.yul\":8340:8346   */\n      dup3\n        /* \"#utility.yul\":8333:8338   */\n      dup2\n        /* \"#utility.yul\":8326:8347   */\n      mstore\n        /* \"#utility.yul\":8378:8382   */\n      0x20\n        /* \"#utility.yul\":8371:8376   */\n      dup2\n        /* \"#utility.yul\":8367:8383   */\n      add\n        /* \"#utility.yul\":8416:8419   */\n      dup5\n        /* \"#utility.yul\":8407:8413   */\n      dup5\n        /* \"#utility.yul\":8402:8405   */\n      dup5\n        /* \"#utility.yul\":8398:8414   */\n      add\n        /* \"#utility.yul\":8395:8420   */\n      gt\n        /* \"#utility.yul\":8392:8504   */\n      iszero\n      tag_178\n      jumpi\n        /* \"#utility.yul\":8423:8502   */\n      tag_179\n      tag_73\n      jump\t// in\n    tag_179:\n        /* \"#utility.yul\":8392:8504   */\n    tag_178:\n        /* \"#utility.yul\":8513:8567   */\n      tag_180\n        /* \"#utility.yul\":8560:8566   */\n      dup5\n        /* \"#utility.yul\":8555:8558   */\n      dup3\n        /* \"#utility.yul\":8550:8553   */\n      dup6\n        /* \"#utility.yul\":8513:8567   */\n      tag_78\n      jump\t// in\n    tag_180:\n        /* \"#utility.yul\":8232:8573   */\n      pop\n        /* \"#utility.yul\":8148:8573   */\n      swap4\n      swap3\n      pop\n      pop\n      pop\n      jump\t// out\n        /* \"#utility.yul\":8593:8933   */\n    tag_80:\n        /* \"#utility.yul\":8649:8654   */\n      0x00\n        /* \"#utility.yul\":8698:8701   */\n      dup3\n        /* \"#utility.yul\":8691:8695   */\n      0x1f\n        /* \"#utility.yul\":8683:8689   */\n      dup4\n        /* \"#utility.yul\":8679:8696   */\n      add\n        /* \"#utility.yul\":8675:8702   */\n      slt\n        /* \"#utility.yul\":8665:8787   */\n      tag_182\n      jumpi\n        /* \"#utility.yul\":8706:8785   */\n      tag_183\n      tag_72\n      jump\t// in\n    tag_183:\n        /* \"#utility.yul\":8665:8787   */\n    tag_182:\n        /* \"#utility.yul\":8823:8829   */\n      dup2\n        /* \"#utility.yul\":8810:8830   */\n      calldataload\n        /* \"#utility.yul\":8848:8927   */\n      tag_184\n        /* \"#utility.yul\":8923:8926   */\n      dup5\n        /* \"#utility.yul\":8915:8921   */\n      dup3\n        /* \"#utility.yul\":8908:8912   */\n      0x20\n        /* \"#utility.yul\":8900:8906   */\n      dup7\n        /* \"#utility.yul\":8896:8913   */\n      add\n        /* \"#utility.yul\":8848:8927   */\n      tag_79\n      jump\t// in\n    tag_184:\n        /* \"#utility.yul\":8839:8927   */\n      swap2\n      pop\n        /* \"#utility.yul\":8655:8933   */\n      pop\n        /* \"#utility.yul\":8593:8933   */\n      swap3\n      swap2\n      pop\n      pop\n      jump\t// out\n        /* \"#utility.yul\":8939:9593   */\n    tag_23:\n        /* \"#utility.yul\":9017:9023   */\n      0x00\n        /* \"#utility.yul\":9025:9031   */\n      0x00\n        /* \"#utility.yul\":9074:9076   */\n      0x40\n        /* \"#utility.yul\":9062:9071   */\n      dup4\n        /* \"#utility.yul\":9053:9060   */\n      dup6\n        /* \"#utility.yul\":9049:9072   */\n      sub\n        /* \"#utility.yul\":9045:9077   */\n      slt\n        /* \"#utility.yul\":9042:9161   */\n      iszero\n      tag_186\n      jumpi\n        /* \"#utility.yul\":9080:9159   */\n      tag_187\n      tag_48\n      jump\t// in\n    tag_187:\n        /* \"#utility.yul\":9042:9161   */\n    tag_186:\n        /* \"#utility.yul\":9228:9229   */\n      0x00\n        /* \"#utility.yul\":9217:9226   */\n      dup4\n        /* \"#utility.yul\":9213:9230   */\n      add\n        /* \"#utility.yul\":9200:9231   */\n      calldataload\n        /* \"#utility.yul\":9258:9276   */\n      0xffffffffffffffff\n        /* \"#utility.yul\":9250:9256   */\n      dup2\n        /* \"#utility.yul\":9247:9277   */\n      gt\n        /* \"#utility.yul\":9244:9361   */\n      iszero\n      tag_188\n      jumpi\n        /* \"#utility.yul\":9280:9359   */\n      tag_189\n      tag_49\n      jump\t// in\n    tag_189:\n        /* \"#utility.yul\":9244:9361   */\n    tag_188:\n        /* \"#utility.yul\":9385:9448   */\n      tag_190\n        /* \"#utility.yul\":9440:9447   */\n      dup6\n        /* \"#utility.yul\":9431:9437   */\n      dup3\n        /* \"#utility.yul\":9420:9429   */\n      dup7\n        /* \"#utility.yul\":9416:9438   */\n      add\n        /* \"#utility.yul\":9385:9448   */\n      tag_80\n      jump\t// in\n    tag_190:\n        /* \"#utility.yul\":9375:9448   */\n      swap3\n      pop\n        /* \"#utility.yul\":9171:9458   */\n      pop\n        /* \"#utility.yul\":9497:9499   */\n      0x20\n        /* \"#utility.yul\":9523:9576   */\n      tag_191\n        /* \"#utility.yul\":9568:9575   */\n      dup6\n        /* \"#utility.yul\":9559:9565   */\n      dup3\n        /* \"#utility.yul\":9548:9557   */\n      dup7\n        /* \"#utility.yul\":9544:9566   */\n      add\n        /* \"#utility.yul\":9523:9576   */\n      tag_52\n      jump\t// in\n    tag_191:\n        /* \"#utility.yul\":9513:9576   */\n      swap2\n      pop\n        /* \"#utility.yul\":9468:9586   */\n      pop\n        /* \"#utility.yul\":8939:9593   */\n      swap3\n      pop\n      swap3\n      swap1\n      pop\n      jump\t// out\n        /* \"#utility.yul\":9599:9779   */\n    tag_81:\n        /* \"#utility.yul\":9647:9724   */\n      0x4e487b7100000000000000000000000000000000000000000000000000000000\n        /* \"#utility.yul\":9644:9645   */\n      0x00\n        /* \"#utility.yul\":9637:9725   */\n      mstore\n        /* \"#utility.yul\":9744:9748   */\n      0x22\n        /* \"#utility.yul\":9741:9742   */\n      0x04\n        /* \"#utility.yul\":9734:9749   */\n      mstore\n        /* \"#utility.yul\":9768:9772   */\n      0x24\n        /* \"#utility.yul\":9765:9766   */\n      0x00\n        /* \"#utility.yul\":9758:9773   */\n      revert\n        /* \"#utility.yul\":9785:10105   */\n    tag_28:\n        /* \"#utility.yul\":9829:9835   */\n      0x00\n        /* \"#utility.yul\":9866:9867   */\n      0x02\n        /* \"#utility.yul\":9860:9864   */\n      dup3\n        /* \"#utility.yul\":9856:9868   */\n      div\n        /* \"#utility.yul\":9846:9868   */\n      swap1\n      pop\n        /* \"#utility.yul\":9913:9914   */\n      0x01\n        /* \"#utility.yul\":9907:9911   */\n      dup3\n        /* \"#utility.yul\":9903:9915   */\n      and\n        /* \"#utility.yul\":9934:9952   */\n      dup1\n        /* \"#utility.yul\":9924:10005   */\n      tag_194\n      jumpi\n        /* \"#utility.yul\":9990:9994   */\n      0x7f\n        /* \"#utility.yul\":9982:9988   */\n      dup3\n        /* \"#utility.yul\":9978:9995   */\n      and\n        /* \"#utility.yul\":9968:9995   */\n      swap2\n      pop\n        /* \"#utility.yul\":9924:10005   */\n    tag_194:\n        /* \"#utility.yul\":10052:10054   */\n      0x20\n        /* \"#utility.yul\":10044:10050   */\n      dup3\n        /* \"#utility.yul\":10041:10055   */\n      lt\n        /* \"#utility.yul\":10021:10039   */\n      dup2\n        /* \"#utility.yul\":10018:10056   */\n      sub\n        /* \"#utility.yul\":10015:10099   */\n      tag_195\n      jumpi\n        /* \"#utility.yul\":10071:10089   */\n      tag_196\n      tag_81\n      jump\t// in\n    tag_196:\n        /* \"#utility.yul\":10015:10099   */\n    tag_195:\n        /* \"#utility.yul\":9836:10105   */\n      pop\n        /* \"#utility.yul\":9785:10105   */\n      swap2\n      swap1\n      pop\n      jump\t// out\n        /* \"#utility.yul\":10111:10252   */\n    tag_82:\n        /* \"#utility.yul\":10160:10164   */\n      0x00\n        /* \"#utility.yul\":10183:10186   */\n      dup2\n        /* \"#utility.yul\":10175:10186   */\n      swap1\n      pop\n        /* \"#utility.yul\":10206:10209   */\n      dup2\n        /* \"#utility.yul\":10203:10204   */\n      0x00\n        /* \"#utility.yul\":10196:10210   */\n      mstore\n        /* \"#utility.yul\":10240:10244   */\n      0x20\n        /* \"#utility.yul\":10237:10238   */\n      0x00\n        /* \"#utility.yul\":10227:10245   */\n      keccak256\n        /* \"#utility.yul\":10219:10245   */\n      swap1\n      pop\n        /* \"#utility.yul\":10111:10252   */\n      swap2\n      swap1\n      pop\n      jump\t// out\n        /* \"#utility.yul\":10258:10351   */\n    tag_83:\n        /* \"#utility.yul\":10295:10301   */\n      0x00\n        /* \"#utility.yul\":10342:10344   */\n      0x20\n        /* \"#utility.yul\":10337:10339   */\n      0x1f\n        /* \"#utility.yul\":10330:10335   */\n      dup4\n        /* \"#utility.yul\":10326:10340   */\n      add\n        /* \"#utility.yul\":10322:10345   */\n      div\n        /* \"#utility.yul\":10312:10345   */\n      swap1\n      pop\n        /* \"#utility.yul\":10258:10351   */\n      swap2\n      swap1\n      pop\n      jump\t// out\n        /* \"#utility.yul\":10357:10464   */\n    tag_84:\n        /* \"#utility.yul\":10401:10409   */\n      0x00\n        /* \"#utility.yul\":10451:10456   */\n      dup3\n        /* \"#utility.yul\":10445:10449   */\n      dup3\n        /* \"#utility.yul\":10441:10457   */\n      shl\n        /* \"#utility.yul\":10420:10457   */\n      swap1\n      pop\n        /* \"#utility.yul\":10357:10464   */\n      swap3\n      swap2\n      pop\n      pop\n      jump\t// out\n        /* \"#utility.yul\":10470:10863   */\n    tag_85:\n        /* \"#utility.yul\":10539:10545   */\n      0x00\n        /* \"#utility.yul\":10589:10590   */\n      0x08\n        /* \"#utility.yul\":10577:10587   */\n      dup4\n        /* \"#utility.yul\":10573:10591   */\n      mul\n        /* \"#utility.yul\":10612:10709   */\n      tag_201\n        /* \"#utility.yul\":10642:10708   */\n      0xffffffffffffffffffffffffffffffffffffffffffffffffffffffffffffffff\n        /* \"#utility.yul\":10631:10640   */\n      dup3\n        /* \"#utility.yul\":10612:10709   */\n      tag_84\n      jump\t// in\n    tag_201:\n        /* \"#utility.yul\":10730:10769   */\n      tag_202\n        /* \"#utility.yul\":10760:10768   */\n      dup7\n        /* \"#utility.yul\":10749:10758   */\n      dup4\n        /* \"#utility.yul\":10730:10769   */\n      tag_84\n      jump\t// in\n    tag_202:\n        /* \"#utility.yul\":10718:10769   */\n      swap6\n      pop\n        /* \"#utility.yul\":10802:10806   */\n      dup1\n        /* \"#utility.yul\":10798:10807   */\n      not\n        /* \"#utility.yul\":10791:10796   */\n      dup5\n        /* \"#utility.yul\":10787:10808   */\n      and\n        /* \"#utility.yul\":10778:10808   */\n      swap4\n      pop\n        /* \"#utility.yul\":10851:10855   */\n      dup1\n        /* \"#utility.yul\":10841:10849   */\n      dup7\n        /* \"#utility.yul\":10837:10856   */\n      and\n        /* \"#utility.yul\":10830:10835   */\n      dup5\n        /* \"#utility.yul\":10827:10857   */\n      or\n        /* \"#utility.yul\":10817:10857   */\n      swap3\n      pop\n        /* \"#utility.yul\":10546:10863   */\n      pop\n      pop\n        /* \"#utility.yul\":10470:10863   */\n      swap4\n      swap3\n      pop\n      pop\n      pop\n      jump\t// out\n        /* \"#utility.yul\":10869:10929   */\n    tag_86:\n        /* \"#utility.yul\":10897:10900   */\n      0x00\n        /* \"#utility.yul\":10918:10923   */\n      dup2\n        /* \"#utility.yul\":10911:10923   */\n      swap1\n      pop\n        /* \"#utility.yul\":10869:10929   */\n      swap2\n      swap1\n      pop\n      jump\t// out\n        /* \"#utility.yul\":10935:11077   */\n    tag_87:\n        /* \"#utility.yul\":10985:10994   */\n      0x00\n        /* \"#utility.yul\":11018:11071   */\n      tag_205\n        /* \"#utility.yul\":11036:11070   */\n      tag_206\n        /* \"#utility.yul\":11045:11069   */\n      tag_207\n        /* \"#utility.yul\":11063:11068   */\n      dup5\n        /* \"#utility.yul\":11045:11069   */\n      tag_50\n      jump\t// in\n    tag_207:\n        /* \"#utility.yul\":11036:11070   */\n      tag_86\n      jump\t// in\n    tag_206:\n        /* \"#utility.yul\":11018:11071   */\n      tag_50\n      jump\t// in\n    tag_205:\n        /* \"#utility.yul\":11005:11071   */\n      swap1\n      pop\n        /* \"#utility.yul\":10935:11077   */\n      swap2\n      swap1\n      pop\n      jump\t// out\n        /* \"#utility.yul\":11083:11158   */\n    tag_88:\n        /* \"#utility.yul\":11126:11129   */\n      0x00\n        /* \"#utility.yul\":11147:11152   */\n      dup2\n        /* \"#utility.yul\":11140:11152   */\n      swap1\n      pop\n        /* \"#utility.yul\":11083:11158   */\n      swap2\n      swap1\n      pop\n      jump\t// out\n        /* \"#utility.yul\":11164:11433   */\n    tag_89:\n        /* \"#utility.yul\":11274:11313   */\n      tag_210\n        /* \"#utility.yul\":11305:11312   */\n      dup4\n        /* \"#utility.yul\":11274:11313   */\n      tag_87\n      jump\t// in\n    tag_210:\n        /* \"#utility.yul\":11335:11426   */\n      tag_211\n        /* \"#utility.yul\":11384:11425   */\n      tag_212\n        /* \"#utility.yul\":11408:11424   */\n      dup3\n        /* \"#utility.yul\":11384:11425   */\n      tag_88\n      jump\t// in\n    tag_212:\n        /* \"#utility.yul\":11376:11382   */\n      dup5\n        /* \"#utility.yul\":11369:11373   */\n      dup5\n        /* \"#utility.yul\":11363:11374   */\n      sload\n        /* \"#utility.yul\":11335:11426   */\n      tag_85\n      jump\t// in\n    tag_211:\n        /* \"#utility.yul\":11329:11333   */\n      dup3\n        /* \"#utility.yul\":11322:11427   */\n      sstore\n        /* \"#utility.yul\":11240:11433   */\n      pop\n        /* \"#utility.yul\":11164:11433   */\n      pop\n      pop\n      pop\n      jump\t// out\n        /* \"#utility.yul\":11439:11512   */\n    tag_90:\n        /* \"#utility.yul\":11484:11487   */\n      0x00\n        /* \"#utility.yul\":11505:11506   */\n      0x00\n        /* \"#utility.yul\":11498:11506   */\n      swap1\n      pop\n        /* \"#utility.yul\":11439:11512   */\n      swap1\n      jump\t// out\n        /* \"#utility.yul\":11518:11707   */\n    tag_91:\n        /* \"#utility.yul\":11595:11627   */\n      tag_215\n      tag_90\n      jump\t// in\n    tag_215:\n        /* \"#utility.yul\":11636:11701   */\n      tag_216\n        /* \"#utility.yul\":11694:11700   */\n      dup2\n        /* \"#utility.yul\":11686:11692   */\n      dup5\n        /* \"#utility.yul\":11680:11684   */\n      dup5\n        /* \"#utility.yul\":11636:11701   */\n      tag_89\n      jump\t// in\n    tag_216:\n        /* \"#utility.yul\":11571:11707   */\n      pop\n        /* \"#utility.yul\":11518:11707   */\n      pop\n      pop\n      jump\t// out\n        /* \"#utility.yul\":11713:11899   */\n    tag_92:\n        /* \"#utility.yul\":11773:11893   */\n    tag_218:\n        /* \"#utility.yul\":11790:11793   */\n      dup2\n        /* \"#utility.yul\":11783:11788   */\n      dup2\n        /* \"#utility.yul\":11780:11794   */\n      lt\n        /* \"#utility.yul\":11773:11893   */\n      iszero\n      tag_220\n      jumpi\n        /* \"#utility.yul\":11844:11883   */\n      tag_221\n        /* \"#utility.yul\":11881:11882   */\n      0x00\n        /* \"#utility.yul\":11874:11879   */\n      dup3\n        /* \"#utility.yul\":11844:11883   */\n      tag_91\n      jump\t// in\n    tag_221:\n        /* \"#utility.yul\":11817:11818   */\n      0x01\n        /* \"#utility.yul\":11810:11815   */\n      dup2\n        /* \"#utility.yul\":11806:11819   */\n      add\n        /* \"#utility.yul\":11797:11819   */\n      swap1\n      pop\n        /* \"#utility.yul\":11773:11893   */\n      jump(tag_218)\n    tag_220:\n        /* \"#utility.yul\":11713:11899   */\n      pop\n      pop\n      jump\t// out\n        /* \"#utility.yul\":11905:12448   */\n    tag_93:\n        /* \"#utility.yul\":12006:12008   */\n      0x1f\n        /* \"#utility.yul\":12001:12004   */\n      dup3\n        /* \"#utility.yul\":11998:12009   */\n      gt\n        /* \"#utility.yul\":11995:12441   */\n      iszero\n      tag_223\n      jumpi\n        /* \"#utility.yul\":12040:12078   */\n      tag_224\n        /* \"#utility.yul\":12072:12077   */\n      dup2\n        /* \"#utility.yul\":12040:12078   */\n      tag_82\n      jump\t// in\n    tag_224:\n        /* \"#utility.yul\":12124:12153   */\n      tag_225\n        /* \"#utility.yul\":12142:12152   */\n      dup5\n        /* \"#utility.yul\":12124:12153   */\n      tag_83\n      jump\t// in\n    tag_225:\n        /* \"#utility.yul\":12114:12122   */\n      dup2\n        /* \"#utility.yul\":12110:12154   */\n      add\n        /* \"#utility.yul\":12307:12309   */\n      0x20\n        /* \"#utility.yul\":12295:12305   */\n      dup6\n        /* \"#utility.yul\":12292:12310   */\n      lt\n        /* \"#utility.yul\":12289:12338   */\n      iszero\n      tag_226\n      jumpi\n        /* \"#utility.yul\":12328:12336   */\n      dup2\n        /* \"#utility.yul\":12313:12336   */\n      swap1\n      pop\n        /* \"#utility.yul\":12289:12338   */\n    tag_226:\n        /* \"#utility.yul\":12351:12431   */\n      tag_227\n        /* \"#utility.yul\":12407:12429   */\n      tag_228\n        /* \"#utility.yul\":12425:12428   */\n      dup6\n        /* \"#utility.yul\":12407:12429   */\n      tag_83\n      jump\t// in\n    tag_228:\n        /* \"#utility.yul\":12397:12405   */\n      dup4\n        /* \"#utility.yul\":12393:12430   */\n      add\n        /* \"#utility.yul\":12380:12391   */\n      dup3\n        /* \"#utility.yul\":12351:12431   */\n      tag_92\n      jump\t// in\n    tag_227:\n        /* \"#utility.yul\":12010:12441   */\n      pop\n      pop\n        /* \"#utility.yul\":11995:12441   */\n    tag_223:\n        /* \"#utility.yul\":11905:12448   */\n      pop\n      pop\n      pop\n      jump\t// out\n        /* \"#utility.yul\":12454:12571   */\n    tag_94:\n        /* \"#utility.yul\":12508:12516   */\n      0x00\n        /* \"#utility.yul\":12558:12563   */\n      dup3\n        /* \"#utility.yul\":12552:12556   */\n      dup3\n        /* \"#utility.yul\":12548:12564   */\n      shr\n        /* \"#utility.yul\":12527:12564   */\n      swap1\n      pop\n        /* \"#utility.yul\":12454:12571   */\n      swap3\n      swap2\n      pop\n      pop\n      jump\t// out\n        /* \"#utility.yul\":12577:12746   */\n    tag_95:\n        /* \"#utility.yul\":12621:12627   */\n      0x00\n        /* \"#utility.yul\":12654:12705   */\n      tag_231\n        /* \"#utility.yul\":12702:12703   */\n      0x00\n        /* \"#utility.yul\":12698:12704   */\n      not\n        /* \"#utility.yul\":12690:12695   */\n      dup5\n        /* \"#utility.yul\":12687:12688   */\n      0x08\n        /* \"#utility.yul\":12683:12696   */\n      mul\n        /* \"#utility.yul\":12654:12705   */\n      tag_94\n      jump\t// in\n    tag_231:\n        /* \"#utility.yul\":12650:12706   */\n      not\n        /* \"#utility.yul\":12735:12739   */\n      dup1\n        /* \"#utility.yul\":12729:12733   */\n      dup4\n        /* \"#utility.yul\":12725:12740   */\n      and\n        /* \"#utility.yul\":12715:12740   */\n      swap2\n      pop\n        /* \"#utility.yul\":12628:12746   */\n      pop\n        /* \"#utility.yul\":12577:12746   */\n      swap3\n      swap2\n      pop\n      pop\n      jump\t// out\n        /* \"#utility.yul\":12751:13046   */\n    tag_96:\n        /* \"#utility.yul\":12827:12831   */\n      0x00\n        /* \"#utility.yul\":12973:13002   */\n      tag_233\n        /* \"#utility.yul\":12998:13001   */\n      dup4\n        /* \"#utility.yul\":12992:12996   */\n      dup4\n        /* \"#utility.yul\":12973:13002   */\n      tag_95\n      jump\t// in\n    tag_233:\n        /* \"#utility.yul\":12965:13002   */\n      swap2\n      pop\n        /* \"#utility.yul\":13035:13038   */\n      dup3\n        /* \"#utility.yul\":13032:13033   */\n      0x02\n        /* \"#utility.yul\":13028:13039   */\n      mul\n        /* \"#utility.yul\":13022:13026   */\n      dup3\n        /* \"#utility.yul\":13019:13040   */\n      or\n        /* \"#utility.yul\":13011:13040   */\n      swap1\n      pop\n        /* \"#utility.yul\":12751:13046   */\n      swap3\n      swap2\n      pop\n      pop\n      jump\t// out\n        /* \"#utility.yul\":13051:14446   */\n    tag_46:\n        /* \"#utility.yul\":13168:13205   */\n      tag_235\n        /* \"#utility.yul\":13201:13204   */\n      dup3\n        /* \"#utility.yul\":13168:13205   */\n      tag_53\n      jump\t// in\n    tag_235:\n        /* \"#utility.yul\":13270:13288   */\n      0xffffffffffffffff\n        /* \"#utility.yul\":13262:13268   */\n      dup2\n        /* \"#utility.yul\":13259:13289   */\n      gt\n        /* \"#utility.yul\":13256:13312   */\n      iszero\n      tag_236\n      jumpi\n        /* \"#utility.yul\":13292:13310   */\n      tag_237\n      tag_74\n      jump\t// in\n    tag_237:\n        /* \"#utility.yul\":13256:13312   */\n    tag_236:\n        /* \"#utility.yul\":13336:13374   */\n      tag_238\n        /* \"#utility.yul\":13368:13372   */\n      dup3\n        /* \"#utility.yul\":13362:13373   */\n      sload\n        /* \"#utility.yul\":13336:13374   */\n      tag_28\n      jump\t// in\n    tag_238:\n        /* \"#utility.yul\":13421:13488   */\n      tag_239\n        /* \"#utility.yul\":13481:13487   */\n      dup3\n        /* \"#utility.yul\":13473:13479   */\n      dup3\n        /* \"#utility.yul\":13467:13471   */\n      dup6\n        /* \"#utility.yul\":13421:13488   */\n      tag_93\n      jump\t// in\n    tag_239:\n        /* \"#utility.yul\":13515:13516   */\n      0x00\n        /* \"#utility.yul\":13539:13543   */\n      0x20\n        /* \"#utility.yul\":13526:13543   */\n      swap1\n      pop\n        /* \"#utility.yul\":13571:13573   */\n      0x1f\n        /* \"#utility.yul\":13563:13569   */\n      dup4\n        /* \"#utility.yul\":13560:13574   */\n      gt\n        /* \"#utility.yul\":13588:13589   */\n      0x01\n        /* \"#utility.yul\":13583:14201   */\n      dup2\n      eq\n      tag_241\n      jumpi\n        /* \"#utility.yul\":14245:14246   */\n      0x00\n        /* \"#utility.yul\":14262:14268   */\n      dup5\n        /* \"#utility.yul\":14259:14336   */\n      iszero\n      tag_242\n      jumpi\n        /* \"#utility.yul\":14311:14320   */\n      dup3\n        /* \"#utility.yul\":14306:14309   */\n      dup8\n        /* \"#utility.yul\":14302:14321   */\n      add\n        /* \"#utility.yul\":14296:14322   */\n      mload\n        /* \"#utility.yul\":14287:14322   */\n      swap1\n      pop\n        /* \"#utility.yul\":14259:14336   */\n    tag_242:\n        /* \"#utility.yul\":14362:14429   */\n      tag_243\n        /* \"#utility.yul\":14422:14428   */\n      dup6\n        /* \"#utility.yul\":14415:14420   */\n      dup3\n        /* \"#utility.yul\":14362:14429   */\n      tag_96\n      jump\t// in\n    tag_243:\n        /* \"#utility.yul\":14356:14360   */\n      dup7\n        /* \"#utility.yul\":14349:14430   */\n      sstore\n        /* \"#utility.yul\":14218:14440   */\n      pop\n        /* \"#utility.yul\":13553:14440   */\n      jump(tag_240)\n        /* \"#utility.yul\":13583:14201   */\n    tag_241:\n        /* \"#utility.yul\":13635:13639   */\n      0x1f\n        /* \"#utility.yul\":13631:13640   */\n      not\n        /* \"#utility.yul\":13623:13629   */\n      dup5\n        /* \"#utility.yul\":13619:13641   */\n      and\n        /* \"#utility.yul\":13669:13706   */\n      tag_244\n        /* \"#utility.yul\":13701:13705   */\n      dup7\n        /* \"#utility.yul\":13669:13706   */\n      tag_82\n      jump\t// in\n    tag_244:\n        /* \"#utility.yul\":13728:13729   */\n      0x00\n        /* \"#utility.yul\":13742:13950   */\n    tag_245:\n        /* \"#utility.yul\":13756:13763   */\n      dup3\n        /* \"#utility.yul\":13753:13754   */\n      dup2\n        /* \"#utility.yul\":13750:13764   */\n      lt\n        /* \"#utility.yul\":13742:13950   */\n      iszero\n      tag_247\n      jumpi\n        /* \"#utility.yul\":13835:13844   */\n      dup5\n        /* \"#utility.yul\":13830:13833   */\n      dup10\n        /* \"#utility.yul\":13826:13845   */\n      add\n        /* \"#utility.yul\":13820:13846   */\n      mload\n        /* \"#utility.yul\":13812:13818   */\n      dup3\n        /* \"#utility.yul\":13805:13847   */\n      sstore\n        /* \"#utility.yul\":13886:13887   */\n      0x01\n        /* \"#utility.yul\":13878:13884   */\n      dup3\n        /* \"#utility.yul\":13874:13888   */\n      add\n        /* \"#utility.yul\":13864:13888   */\n      swap2\n      pop\n        /* \"#utility.yul\":13933:13935   */\n      0x20\n        /* \"#utility.yul\":13922:13931   */\n      dup6\n        /* \"#utility.yul\":13918:13936   */\n      add\n        /* \"#utility.yul\":13905:13936   */\n      swap5\n      pop\n        /* \"#utility.yul\":13779:13783   */\n      0x20\n        /* \"#utility.yul\":13776:13777   */\n      dup2\n        /* \"#utility.yul\":13772:13784   */\n      add\n        /* \"#utility.yul\":13767:13784   */\n      swap1\n      pop\n        /* \"#utility.yul\":13742:13950   */\n      jump(tag_245)\n    tag_247:\n        /* \"#utility.yul\":13978:13984   */\n      dup7\n        /* \"#utility.yul\":13969:13976   */\n      dup4\n        /* \"#utility.yul\":13966:13985   */\n      lt\n        /* \"#utility.yul\":13963:14142   */\n      iszero\n      tag_248\n      jumpi\n        /* \"#utility.yul\":14036:14045   */\n      dup5\n        /* \"#utility.yul\":14031:14034   */\n      dup10\n        /* \"#utility.yul\":14027:14046   */\n      add\n        /* \"#utility.yul\":14021:14047   */\n      mload\n        /* \"#utility.yul\":14079:14127   */\n      tag_249\n        /* \"#utility.yul\":14121:14125   */\n      0x1f\n        /* \"#utility.yul\":14113:14119   */\n      dup10\n        /* \"#utility.yul\":14109:14126   */\n      and\n        /* \"#utility.yul\":14098:14107   */\n      dup3\n        /* \"#utility.yul\":14079:14127   */\n      tag_95\n      jump\t// in\n    tag_249:\n        /* \"#utility.yul\":14071:14077   */\n      dup4\n        /* \"#utility.yul\":14064:14128   */\n      sstore\n        /* \"#utility.yul\":13986:14142   */\n      pop\n        /* \"#utility.yul\":13963:14142   */\n    tag_248:\n        /* \"#utility.yul\":14188:14189   */\n      0x01\n        /* \"#utility.yul\":14184:14185   */\n      0x02\n        /* \"#utility.yul\":14176:14182   */\n      dup9\n        /* \"#utility.yul\":14172:14186   */\n      mul\n        /* \"#utility.yul\":14168:14190   */\n      add\n        /* \"#utility.yul\":14162:14166   */\n      dup9\n        /* \"#utility.yul\":14155:14191   */\n      sstore\n        /* \"#utility.yul\":13590:14201   */\n      pop\n      pop\n      pop\n        /* \"#utility.yul\":13553:14440   */\n    tag_240:\n      pop\n        /* \"#utility.yul\":13143:14446   */\n      pop\n      pop\n      pop\n        /* \"#utility.yul\":13051:14446   */\n      pop\n      pop\n      jump\t// out\n\n    auxdata: 0xa26469706673582212200893d6627877ac5368fe02bdc985433bcad8476275c9cd8fc0a0411bbe5b281264736f6c634300081c0033\n}\n",
				"bytecode": {
					"linkReferences": {},
					"object": "6080604052348015600e575f5ffd5b503360015f6101000a81548173ffffffffffffffffffffffffffffffffffffffff021916908373ffffffffffffffffffffffffffffffffffffffff160217905550610a6c8061005c5f395ff3fe608060405234801561000f575f5ffd5b506004361061004a575f3560e01c80634272ee181461004e5780635d7f850c1461007f5780638da5cb5b1461009d578063caddd392146100bb575b5f5ffd5b61006860048036038101906100639190610348565b6100d7565b6040516100769291906103f2565b60405180910390f35b61008761018b565b604051610094919061056c565b60405180910390f35b6100a561027f565b6040516100b291906105cb565b60405180910390f35b6100d560048036038101906100d09190610710565b6102a4565b005b5f81815481106100e5575f80fd5b905f5260205f2090600202015f91509050805f01805461010490610797565b80601f016020809104026020016040519081016040528092919081815260200182805461013090610797565b801561017b5780601f106101525761010080835404028352916020019161017b565b820191905f5260205f20905b81548152906001019060200180831161015e57829003601f168201915b5050505050908060010154905082565b60605f805480602002602001604051908101604052809291908181526020015f905b82821015610276578382905f5260205f2090600202016040518060400160405290815f820180546101dd90610797565b80601f016020809104026020016040519081016040528092919081815260200182805461020990610797565b80156102545780601f1061022b57610100808354040283529160200191610254565b820191905f5260205f20905b81548152906001019060200180831161023757829003601f168201915b50505050508152602001600182015481525050815260200190600101906101ad565b50505050905090565b60015f9054906101000a900473ffffffffffffffffffffffffffffffffffffffff1681565b5f604051806040016040528084815260200183815250908060018154018082558091505060019003905f5260205f2090600202015f909190919091505f820151815f0190816102f39190610967565b506020820151816001015550505050565b5f604051905090565b5f5ffd5b5f5ffd5b5f819050919050565b61032781610315565b8114610331575f5ffd5b50565b5f813590506103428161031e565b92915050565b5f6020828403121561035d5761035c61030d565b5b5f61036a84828501610334565b91505092915050565b5f81519050919050565b5f82825260208201905092915050565b8281835e5f83830152505050565b5f601f19601f8301169050919050565b5f6103b582610373565b6103bf818561037d565b93506103cf81856020860161038d565b6103d88161039b565b840191505092915050565b6103ec81610315565b82525050565b5f6040820190508181035f83015261040a81856103ab565b905061041960208301846103e3565b9392505050565b5f81519050919050565b5f82825260208201905092915050565b5f819050602082019050919050565b5f82825260208201905092915050565b5f61046382610373565b61046d8185610449565b935061047d81856020860161038d565b6104868161039b565b840191505092915050565b61049a81610315565b82525050565b5f604083015f8301518482035f8601526104ba8282610459565b91505060208301516104cf6020860182610491565b508091505092915050565b5f6104e583836104a0565b905092915050565b5f602082019050919050565b5f61050382610420565b61050d818561042a565b93508360208202850161051f8561043a565b805f5b8581101561055a578484038952815161053b85826104da565b9450610546836104ed565b925060208a01995050600181019050610522565b50829750879550505050505092915050565b5f6020820190508181035f83015261058481846104f9565b905092915050565b5f73ffffffffffffffffffffffffffffffffffffffff82169050919050565b5f6105b58261058c565b9050919050565b6105c5816105ab565b82525050565b5f6020820190506105de5f8301846105bc565b92915050565b5f5ffd5b5f5ffd5b7f4e487b71000000000000000000000000000000000000000000000000000000005f52604160045260245ffd5b6106228261039b565b810181811067ffffffffffffffff82111715610641576106406105ec565b5b80604052505050565b5f610653610304565b905061065f8282610619565b919050565b5f67ffffffffffffffff82111561067e5761067d6105ec565b5b6106878261039b565b9050602081019050919050565b828183375f83830152505050565b5f6106b46106af84610664565b61064a565b9050828152602081018484840111156106d0576106cf6105e8565b5b6106db848285610694565b509392505050565b5f82601f8301126106f7576106f66105e4565b5b81356107078482602086016106a2565b91505092915050565b5f5f604083850312156107265761072561030d565b5b5f83013567ffffffffffffffff81111561074357610742610311565b5b61074f858286016106e3565b925050602061076085828601610334565b9150509250929050565b7f4e487b71000000000000000000000000000000000000000000000000000000005f52602260045260245ffd5b5f60028204905060018216806107ae57607f821691505b6020821081036107c1576107c061076a565b5b50919050565b5f819050815f5260205f209050919050565b5f6020601f8301049050919050565b5f82821b905092915050565b5f600883026108237fffffffffffffffffffffffffffffffffffffffffffffffffffffffffffffffff826107e8565b61082d86836107e8565b95508019841693508086168417925050509392505050565b5f819050919050565b5f61086861086361085e84610315565b610845565b610315565b9050919050565b5f819050919050565b6108818361084e565b61089561088d8261086f565b8484546107f4565b825550505050565b5f5f905090565b6108ac61089d565b6108b7818484610878565b505050565b5b818110156108da576108cf5f826108a4565b6001810190506108bd565b5050565b601f82111561091f576108f0816107c7565b6108f9846107d9565b81016020851015610908578190505b61091c610914856107d9565b8301826108bc565b50505b505050565b5f82821c905092915050565b5f61093f5f1984600802610924565b1980831691505092915050565b5f6109578383610930565b9150826002028217905092915050565b61097082610373565b67ffffffffffffffff811115610989576109886105ec565b5b6109938254610797565b61099e8282856108de565b5f60209050601f8311600181146109cf575f84156109bd578287015190505b6109c7858261094c565b865550610a2e565b601f1984166109dd866107c7565b5f5b82811015610a04578489015182556001820191506020850194506020810190506109df565b86831015610a215784890151610a1d601f891682610930565b8355505b6001600288020188555050505b50505050505056fea26469706673582212200893d6627877ac5368fe02bdc985433bcad8476275c9cd8fc0a0411bbe5b281264736f6c634300081c0033",
					"opcodes": "PUSH1 0x80 PUSH1 0x40 MSTORE CALLVALUE DUP1 ISZERO PUSH1 0xE JUMPI PUSH0 PUSH0 REVERT JUMPDEST POP CALLER PUSH1 0x1 PUSH0 PUSH2 0x100 EXP DUP2 SLOAD DUP2 PUSH20 0xFFFFFFFFFFFFFFFFFFFFFFFFFFFFFFFFFFFFFFFF MUL NOT AND SWAP1 DUP4 PUSH20 0xFFFFFFFFFFFFFFFFFFFFFFFFFFFFFFFFFFFFFFFF AND MUL OR SWAP1 SSTORE POP PUSH2 0xA6C DUP1 PUSH2 0x5C PUSH0 CODECOPY PUSH0 RETURN INVALID PUSH1 0x80 PUSH1 0x40 MSTORE CALLVALUE DUP1 ISZERO PUSH2 0xF JUMPI PUSH0 PUSH0 REVERT JUMPDEST POP PUSH1 0x4 CALLDATASIZE LT PUSH2 0x4A JUMPI PUSH0 CALLDATALOAD PUSH1 0xE0 SHR DUP1 PUSH4 0x4272EE18 EQ PUSH2 0x4E JUMPI DUP1 PUSH4 0x5D7F850C EQ PUSH2 0x7F JUMPI DUP1 PUSH4 0x8DA5CB5B EQ PUSH2 0x9D JUMPI DUP1 PUSH4 0xCADDD392 EQ PUSH2 0xBB JUMPI JUMPDEST PUSH0 PUSH0 REVERT JUMPDEST PUSH2 0x68 PUSH1 0x4 DUP1 CALLDATASIZE SUB DUP2 ADD SWAP1 PUSH2 0x63 SWAP2 SWAP1 PUSH2 0x348 JUMP JUMPDEST PUSH2 0xD7 JUMP JUMPDEST PUSH1 0x40 MLOAD PUSH2 0x76 SWAP3 SWAP2 SWAP1 PUSH2 0x3F2 JUMP JUMPDEST PUSH1 0x40 MLOAD DUP1 SWAP2 SUB SWAP1 RETURN JUMPDEST PUSH2 0x87 PUSH2 0x18B JUMP JUMPDEST PUSH1 0x40 MLOAD PUSH2 0x94 SWAP2 SWAP1 PUSH2 0x56C JUMP JUMPDEST PUSH1 0x40 MLOAD DUP1 SWAP2 SUB SWAP1 RETURN JUMPDEST PUSH2 0xA5 PUSH2 0x27F JUMP JUMPDEST PUSH1 0x40 MLOAD PUSH2 0xB2 SWAP2 SWAP1 PUSH2 0x5CB JUMP JUMPDEST PUSH1 0x40 MLOAD DUP1 SWAP2 SUB SWAP1 RETURN JUMPDEST PUSH2 0xD5 PUSH1 0x4 DUP1 CALLDATASIZE SUB DUP2 ADD SWAP1 PUSH2 0xD0 SWAP2 SWAP1 PUSH2 0x710 JUMP JUMPDEST PUSH2 0x2A4 JUMP JUMPDEST STOP JUMPDEST PUSH0 DUP2 DUP2 SLOAD DUP2 LT PUSH2 0xE5 JUMPI PUSH0 DUP1 REVERT JUMPDEST SWAP1 PUSH0 MSTORE PUSH1 0x20 PUSH0 KECCAK256 SWAP1 PUSH1 0x2 MUL ADD PUSH0 SWAP2 POP SWAP1 POP DUP1 PUSH0 ADD DUP1 SLOAD PUSH2 0x104 SWAP1 PUSH2 0x797 JUMP JUMPDEST DUP1 PUSH1 0x1F ADD PUSH1 0x20 DUP1 SWAP2 DIV MUL PUSH1 0x20 ADD PUSH1 0x40 MLOAD SWAP1 DUP2 ADD PUSH1 0x40 MSTORE DUP1 SWAP3 SWAP2 SWAP1 DUP2 DUP2 MSTORE PUSH1 0x20 ADD DUP3 DUP1 SLOAD PUSH2 0x130 SWAP1 PUSH2 0x797 JUMP JUMPDEST DUP1 ISZERO PUSH2 0x17B JUMPI DUP1 PUSH1 0x1F LT PUSH2 0x152 JUMPI PUSH2 0x100 DUP1 DUP4 SLOAD DIV MUL DUP4 MSTORE SWAP2 PUSH1 0x20 ADD SWAP2 PUSH2 0x17B JUMP JUMPDEST DUP3 ADD SWAP2 SWAP1 PUSH0 MSTORE PUSH1 0x20 PUSH0 KECCAK256 SWAP1 JUMPDEST DUP2 SLOAD DUP2 MSTORE SWAP1 PUSH1 0x1 ADD SWAP1 PUSH1 0x20 ADD DUP1 DUP4 GT PUSH2 0x15E JUMPI DUP3 SWAP1 SUB PUSH1 0x1F AND DUP3 ADD SWAP2 JUMPDEST POP POP POP POP POP SWAP1 DUP1 PUSH1 0x1 ADD SLOAD SWAP1 POP DUP3 JUMP JUMPDEST PUSH1 0x60 PUSH0 DUP1 SLOAD DUP1 PUSH1 0x20 MUL PUSH1 0x20 ADD PUSH1 0x40 MLOAD SWAP1 DUP2 ADD PUSH1 0x40 MSTORE DUP1 SWAP3 SWAP2 SWAP1 DUP2 DUP2 MSTORE PUSH1 0x20 ADD PUSH0 SWAP1 JUMPDEST DUP3 DUP3 LT ISZERO PUSH2 0x276 JUMPI DUP4 DUP3 SWAP1 PUSH0 MSTORE PUSH1 0x20 PUSH0 KECCAK256 SWAP1 PUSH1 0x2 MUL ADD PUSH1 0x40 MLOAD DUP1 PUSH1 0x40 ADD PUSH1 0x40 MSTORE SWAP1 DUP2 PUSH0 DUP3 ADD DUP1 SLOAD PUSH2 0x1DD SWAP1 PUSH2 0x797 JUMP JUMPDEST DUP1 PUSH1 0x1F ADD PUSH1 0x20 DUP1 SWAP2 DIV MUL PUSH1 0x20 ADD PUSH1 0x40 MLOAD SWAP1 DUP2 ADD PUSH1 0x40 MSTORE DUP1 SWAP3 SWAP2 SWAP1 DUP2 DUP2 MSTORE PUSH1 0x20 ADD DUP3 DUP1 SLOAD PUSH2 0x209 SWAP1 PUSH2 0x797 JUMP JUMPDEST DUP1 ISZERO PUSH2 0x254 JUMPI DUP1 PUSH1 0x1F LT PUSH2 0x22B JUMPI PUSH2 0x100 DUP1 DUP4 SLOAD DIV MUL DUP4 MSTORE SWAP2 PUSH1 0x20 ADD SWAP2 PUSH2 0x254 JUMP JUMPDEST DUP3 ADD SWAP2 SWAP1 PUSH0 MSTORE PUSH1 0x20 PUSH0 KECCAK256 SWAP1 JUMPDEST DUP2 SLOAD DUP2 MSTORE SWAP1 PUSH1 0x1 ADD SWAP1 PUSH1 0x20 ADD DUP1 DUP4 GT PUSH2 0x237 JUMPI DUP3 SWAP1 SUB PUSH1 0x1F AND DUP3 ADD SWAP2 JUMPDEST POP POP POP POP POP DUP2 MSTORE PUSH1 0x20 ADD PUSH1 0x1 DUP3 ADD SLOAD DUP2 MSTORE POP POP DUP2 MSTORE PUSH1 0x20 ADD SWAP1 PUSH1 0x1 ADD SWAP1 PUSH2 0x1AD JUMP JUMPDEST POP POP POP POP SWAP1 POP SWAP1 JUMP JUMPDEST PUSH1 0x1 PUSH0 SWAP1 SLOAD SWAP1 PUSH2 0x100 EXP SWAP1 DIV PUSH20 0xFFFFFFFFFFFFFFFFFFFFFFFFFFFFFFFFFFFFFFFF AND DUP2 JUMP JUMPDEST PUSH0 PUSH1 0x40 MLOAD DUP1 PUSH1 0x40 ADD PUSH1 0x40 MSTORE DUP1 DUP5 DUP2 MSTORE PUSH1 0x20 ADD DUP4 DUP2 MSTORE POP SWAP1 DUP1 PUSH1 0x1 DUP2 SLOAD ADD DUP1 DUP3 SSTORE DUP1 SWAP2 POP POP PUSH1 0x1 SWAP1 SUB SWAP1 PUSH0 MSTORE PUSH1 0x20 PUSH0 KECCAK256 SWAP1 PUSH1 0x2 MUL ADD PUSH0 SWAP1 SWAP2 SWAP1 SWAP2 SWAP1 SWAP2 POP PUSH0 DUP3 ADD MLOAD DUP2 PUSH0 ADD SWAP1 DUP2 PUSH2 0x2F3 SWAP2 SWAP1 PUSH2 0x967 JUMP JUMPDEST POP PUSH1 0x20 DUP3 ADD MLOAD DUP2 PUSH1 0x1 ADD SSTORE POP POP POP POP JUMP JUMPDEST PUSH0 PUSH1 0x40 MLOAD SWAP1 POP SWAP1 JUMP JUMPDEST PUSH0 PUSH0 REVERT JUMPDEST PUSH0 PUSH0 REVERT JUMPDEST PUSH0 DUP2 SWAP1 POP SWAP2 SWAP1 POP JUMP JUMPDEST PUSH2 0x327 DUP2 PUSH2 0x315 JUMP JUMPDEST DUP2 EQ PUSH2 0x331 JUMPI PUSH0 PUSH0 REVERT JUMPDEST POP JUMP JUMPDEST PUSH0 DUP2 CALLDATALOAD SWAP1 POP PUSH2 0x342 DUP2 PUSH2 0x31E JUMP JUMPDEST SWAP3 SWAP2 POP POP JUMP JUMPDEST PUSH0 PUSH1 0x20 DUP3 DUP5 SUB SLT ISZERO PUSH2 0x35D JUMPI PUSH2 0x35C PUSH2 0x30D JUMP JUMPDEST JUMPDEST PUSH0 PUSH2 0x36A DUP5 DUP3 DUP6 ADD PUSH2 0x334 JUMP JUMPDEST SWAP2 POP POP SWAP3 SWAP2 POP POP JUMP JUMPDEST PUSH0 DUP2 MLOAD SWAP1 POP SWAP2 SWAP1 POP JUMP JUMPDEST PUSH0 DUP3 DUP3 MSTORE PUSH1 0x20 DUP3 ADD SWAP1 POP SWAP3 SWAP2 POP POP JUMP JUMPDEST DUP3 DUP2 DUP4 MCOPY PUSH0 DUP4 DUP4 ADD MSTORE POP POP POP JUMP JUMPDEST PUSH0 PUSH1 0x1F NOT PUSH1 0x1F DUP4 ADD AND SWAP1 POP SWAP2 SWAP1 POP JUMP JUMPDEST PUSH0 PUSH2 0x3B5 DUP3 PUSH2 0x373 JUMP JUMPDEST PUSH2 0x3BF DUP2 DUP6 PUSH2 0x37D JUMP JUMPDEST SWAP4 POP PUSH2 0x3CF DUP2 DUP6 PUSH1 0x20 DUP7 ADD PUSH2 0x38D JUMP JUMPDEST PUSH2 0x3D8 DUP2 PUSH2 0x39B JUMP JUMPDEST DUP5 ADD SWAP2 POP POP SWAP3 SWAP2 POP POP JUMP JUMPDEST PUSH2 0x3EC DUP2 PUSH2 0x315 JUMP JUMPDEST DUP3 MSTORE POP POP JUMP JUMPDEST PUSH0 PUSH1 0x40 DUP3 ADD SWAP1 POP DUP2 DUP2 SUB PUSH0 DUP4 ADD MSTORE PUSH2 0x40A DUP2 DUP6 PUSH2 0x3AB JUMP JUMPDEST SWAP1 POP PUSH2 0x419 PUSH1 0x20 DUP4 ADD DUP5 PUSH2 0x3E3 JUMP JUMPDEST SWAP4 SWAP3 POP POP POP JUMP JUMPDEST PUSH0 DUP2 MLOAD SWAP1 POP SWAP2 SWAP1 POP JUMP JUMPDEST PUSH0 DUP3 DUP3 MSTORE PUSH1 0x20 DUP3 ADD SWAP1 POP SWAP3 SWAP2 POP POP JUMP JUMPDEST PUSH0 DUP2 SWAP1 POP PUSH1 0x20 DUP3 ADD SWAP1 POP SWAP2 SWAP1 POP JUMP JUMPDEST PUSH0 DUP3 DUP3 MSTORE PUSH1 0x20 DUP3 ADD SWAP1 POP SWAP3 SWAP2 POP POP JUMP JUMPDEST PUSH0 PUSH2 0x463 DUP3 PUSH2 0x373 JUMP JUMPDEST PUSH2 0x46D DUP2 DUP6 PUSH2 0x449 JUMP JUMPDEST SWAP4 POP PUSH2 0x47D DUP2 DUP6 PUSH1 0x20 DUP7 ADD PUSH2 0x38D JUMP JUMPDEST PUSH2 0x486 DUP2 PUSH2 0x39B JUMP JUMPDEST DUP5 ADD SWAP2 POP POP SWAP3 SWAP2 POP POP JUMP JUMPDEST PUSH2 0x49A DUP2 PUSH2 0x315 JUMP JUMPDEST DUP3 MSTORE POP POP JUMP JUMPDEST PUSH0 PUSH1 0x40 DUP4 ADD PUSH0 DUP4 ADD MLOAD DUP5 DUP3 SUB PUSH0 DUP7 ADD MSTORE PUSH2 0x4BA DUP3 DUP3 PUSH2 0x459 JUMP JUMPDEST SWAP2 POP POP PUSH1 0x20 DUP4 ADD MLOAD PUSH2 0x4CF PUSH1 0x20 DUP7 ADD DUP3 PUSH2 0x491 JUMP JUMPDEST POP DUP1 SWAP2 POP POP SWAP3 SWAP2 POP POP JUMP JUMPDEST PUSH0 PUSH2 0x4E5 DUP4 DUP4 PUSH2 0x4A0 JUMP JUMPDEST SWAP1 POP SWAP3 SWAP2 POP POP JUMP JUMPDEST PUSH0 PUSH1 0x20 DUP3 ADD SWAP1 POP SWAP2 SWAP1 POP JUMP JUMPDEST PUSH0 PUSH2 0x503 DUP3 PUSH2 0x420 JUMP JUMPDEST PUSH2 0x50D DUP2 DUP6 PUSH2 0x42A JUMP JUMPDEST SWAP4 POP DUP4 PUSH1 0x20 DUP3 MUL DUP6 ADD PUSH2 0x51F DUP6 PUSH2 0x43A JUMP JUMPDEST DUP1 PUSH0 JUMPDEST DUP6 DUP2 LT ISZERO PUSH2 0x55A JUMPI DUP5 DUP5 SUB DUP10 MSTORE DUP2 MLOAD PUSH2 0x53B DUP6 DUP3 PUSH2 0x4DA JUMP JUMPDEST SWAP5 POP PUSH2 0x546 DUP4 PUSH2 0x4ED JUMP JUMPDEST SWAP3 POP PUSH1 0x20 DUP11 ADD SWAP10 POP POP PUSH1 0x1 DUP2 ADD SWAP1 POP PUSH2 0x522 JUMP JUMPDEST POP DUP3 SWAP8 POP DUP8 SWAP6 POP POP POP POP POP POP SWAP3 SWAP2 POP POP JUMP JUMPDEST PUSH0 PUSH1 0x20 DUP3 ADD SWAP1 POP DUP2 DUP2 SUB PUSH0 DUP4 ADD MSTORE PUSH2 0x584 DUP2 DUP5 PUSH2 0x4F9 JUMP JUMPDEST SWAP1 POP SWAP3 SWAP2 POP POP JUMP JUMPDEST PUSH0 PUSH20 0xFFFFFFFFFFFFFFFFFFFFFFFFFFFFFFFFFFFFFFFF DUP3 AND SWAP1 POP SWAP2 SWAP1 POP JUMP JUMPDEST PUSH0 PUSH2 0x5B5 DUP3 PUSH2 0x58C JUMP JUMPDEST SWAP1 POP SWAP2 SWAP1 POP JUMP JUMPDEST PUSH2 0x5C5 DUP2 PUSH2 0x5AB JUMP JUMPDEST DUP3 MSTORE POP POP JUMP JUMPDEST PUSH0 PUSH1 0x20 DUP3 ADD SWAP1 POP PUSH2 0x5DE PUSH0 DUP4 ADD DUP5 PUSH2 0x5BC JUMP JUMPDEST SWAP3 SWAP2 POP POP JUMP JUMPDEST PUSH0 PUSH0 REVERT JUMPDEST PUSH0 PUSH0 REVERT JUMPDEST PUSH32 0x4E487B7100000000000000000000000000000000000000000000000000000000 PUSH0 MSTORE PUSH1 0x41 PUSH1 0x4 MSTORE PUSH1 0x24 PUSH0 REVERT JUMPDEST PUSH2 0x622 DUP3 PUSH2 0x39B JUMP JUMPDEST DUP2 ADD DUP2 DUP2 LT PUSH8 0xFFFFFFFFFFFFFFFF DUP3 GT OR ISZERO PUSH2 0x641 JUMPI PUSH2 0x640 PUSH2 0x5EC JUMP JUMPDEST JUMPDEST DUP1 PUSH1 0x40 MSTORE POP POP POP JUMP JUMPDEST PUSH0 PUSH2 0x653 PUSH2 0x304 JUMP JUMPDEST SWAP1 POP PUSH2 0x65F DUP3 DUP3 PUSH2 0x619 JUMP JUMPDEST SWAP2 SWAP1 POP JUMP JUMPDEST PUSH0 PUSH8 0xFFFFFFFFFFFFFFFF DUP3 GT ISZERO PUSH2 0x67E JUMPI PUSH2 0x67D PUSH2 0x5EC JUMP JUMPDEST JUMPDEST PUSH2 0x687 DUP3 PUSH2 0x39B JUMP JUMPDEST SWAP1 POP PUSH1 0x20 DUP2 ADD SWAP1 POP SWAP2 SWAP1 POP JUMP JUMPDEST DUP3 DUP2 DUP4 CALLDATACOPY PUSH0 DUP4 DUP4 ADD MSTORE POP POP POP JUMP JUMPDEST PUSH0 PUSH2 0x6B4 PUSH2 0x6AF DUP5 PUSH2 0x664 JUMP JUMPDEST PUSH2 0x64A JUMP JUMPDEST SWAP1 POP DUP3 DUP2 MSTORE PUSH1 0x20 DUP2 ADD DUP5 DUP5 DUP5 ADD GT ISZERO PUSH2 0x6D0 JUMPI PUSH2 0x6CF PUSH2 0x5E8 JUMP JUMPDEST JUMPDEST PUSH2 0x6DB DUP5 DUP3 DUP6 PUSH2 0x694 JUMP JUMPDEST POP SWAP4 SWAP3 POP POP POP JUMP JUMPDEST PUSH0 DUP3 PUSH1 0x1F DUP4 ADD SLT PUSH2 0x6F7 JUMPI PUSH2 0x6F6 PUSH2 0x5E4 JUMP JUMPDEST JUMPDEST DUP2 CALLDATALOAD PUSH2 0x707 DUP5 DUP3 PUSH1 0x20 DUP7 ADD PUSH2 0x6A2 JUMP JUMPDEST SWAP2 POP POP SWAP3 SWAP2 POP POP JUMP JUMPDEST PUSH0 PUSH0 PUSH1 0x40 DUP4 DUP6 SUB SLT ISZERO PUSH2 0x726 JUMPI PUSH2 0x725 PUSH2 0x30D JUMP JUMPDEST JUMPDEST PUSH0 DUP4 ADD CALLDATALOAD PUSH8 0xFFFFFFFFFFFFFFFF DUP2 GT ISZERO PUSH2 0x743 JUMPI PUSH2 0x742 PUSH2 0x311 JUMP JUMPDEST JUMPDEST PUSH2 0x74F DUP6 DUP3 DUP7 ADD PUSH2 0x6E3 JUMP JUMPDEST SWAP3 POP POP PUSH1 0x20 PUSH2 0x760 DUP6 DUP3 DUP7 ADD PUSH2 0x334 JUMP JUMPDEST SWAP2 POP POP SWAP3 POP SWAP3 SWAP1 POP JUMP JUMPDEST PUSH32 0x4E487B7100000000000000000000000000000000000000000000000000000000 PUSH0 MSTORE PUSH1 0x22 PUSH1 0x4 MSTORE PUSH1 0x24 PUSH0 REVERT JUMPDEST PUSH0 PUSH1 0x2 DUP3 DIV SWAP1 POP PUSH1 0x1 DUP3 AND DUP1 PUSH2 0x7AE JUMPI PUSH1 0x7F DUP3 AND SWAP2 POP JUMPDEST PUSH1 0x20 DUP3 LT DUP2 SUB PUSH2 0x7C1 JUMPI PUSH2 0x7C0 PUSH2 0x76A JUMP JUMPDEST JUMPDEST POP SWAP2 SWAP1 POP JUMP JUMPDEST PUSH0 DUP2 SWAP1 POP DUP2 PUSH0 MSTORE PUSH1 0x20 PUSH0 KECCAK256 SWAP1 POP SWAP2 SWAP1 POP JUMP JUMPDEST PUSH0 PUSH1 0x20 PUSH1 0x1F DUP4 ADD DIV SWAP1 POP SWAP2 SWAP1 POP JUMP JUMPDEST PUSH0 DUP3 DUP3 SHL SWAP1 POP SWAP3 SWAP2 POP POP JUMP JUMPDEST PUSH0 PUSH1 0x8 DUP4 MUL PUSH2 0x823 PUSH32 0xFFFFFFFFFFFFFFFFFFFFFFFFFFFFFFFFFFFFFFFFFFFFFFFFFFFFFFFFFFFFFFFF DUP3 PUSH2 0x7E8 JUMP JUMPDEST PUSH2 0x82D DUP7 DUP4 PUSH2 0x7E8 JUMP JUMPDEST SWAP6 POP DUP1 NOT DUP5 AND SWAP4 POP DUP1 DUP7 AND DUP5 OR SWAP3 POP POP POP SWAP4 SWAP3 POP POP POP JUMP JUMPDEST PUSH0 DUP2 SWAP1 POP SWAP2 SWAP1 POP JUMP JUMPDEST PUSH0 PUSH2 0x868 PUSH2 0x863 PUSH2 0x85E DUP5 PUSH2 0x315 JUMP JUMPDEST PUSH2 0x845 JUMP JUMPDEST PUSH2 0x315 JUMP JUMPDEST SWAP1 POP SWAP2 SWAP1 POP JUMP JUMPDEST PUSH0 DUP2 SWAP1 POP SWAP2 SWAP1 POP JUMP JUMPDEST PUSH2 0x881 DUP4 PUSH2 0x84E JUMP JUMPDEST PUSH2 0x895 PUSH2 0x88D DUP3 PUSH2 0x86F JUMP JUMPDEST DUP5 DUP5 SLOAD PUSH2 0x7F4 JUMP JUMPDEST DUP3 SSTORE POP POP POP POP JUMP JUMPDEST PUSH0 PUSH0 SWAP1 POP SWAP1 JUMP JUMPDEST PUSH2 0x8AC PUSH2 0x89D JUMP JUMPDEST PUSH2 0x8B7 DUP2 DUP5 DUP5 PUSH2 0x878 JUMP JUMPDEST POP POP POP JUMP JUMPDEST JUMPDEST DUP2 DUP2 LT ISZERO PUSH2 0x8DA JUMPI PUSH2 0x8CF PUSH0 DUP3 PUSH2 0x8A4 JUMP JUMPDEST PUSH1 0x1 DUP2 ADD SWAP1 POP PUSH2 0x8BD JUMP JUMPDEST POP POP JUMP JUMPDEST PUSH1 0x1F DUP3 GT ISZERO PUSH2 0x91F JUMPI PUSH2 0x8F0 DUP2 PUSH2 0x7C7 JUMP JUMPDEST PUSH2 0x8F9 DUP5 PUSH2 0x7D9 JUMP JUMPDEST DUP2 ADD PUSH1 0x20 DUP6 LT ISZERO PUSH2 0x908 JUMPI DUP2 SWAP1 POP JUMPDEST PUSH2 0x91C PUSH2 0x914 DUP6 PUSH2 0x7D9 JUMP JUMPDEST DUP4 ADD DUP3 PUSH2 0x8BC JUMP JUMPDEST POP POP JUMPDEST POP POP POP JUMP JUMPDEST PUSH0 DUP3 DUP3 SHR SWAP1 POP SWAP3 SWAP2 POP POP JUMP JUMPDEST PUSH0 PUSH2 0x93F PUSH0 NOT DUP5 PUSH1 0x8 MUL PUSH2 0x924 JUMP JUMPDEST NOT DUP1 DUP4 AND SWAP2 POP POP SWAP3 SWAP2 POP POP JUMP JUMPDEST PUSH0 PUSH2 0x957 DUP4 DUP4 PUSH2 0x930 JUMP JUMPDEST SWAP2 POP DUP3 PUSH1 0x2 MUL DUP3 OR SWAP1 POP SWAP3 SWAP2 POP POP JUMP JUMPDEST PUSH2 0x970 DUP3 PUSH2 0x373 JUMP JUMPDEST PUSH8 0xFFFFFFFFFFFFFFFF DUP2 GT ISZERO PUSH2 0x989 JUMPI PUSH2 0x988 PUSH2 0x5EC JUMP JUMPDEST JUMPDEST PUSH2 0x993 DUP3 SLOAD PUSH2 0x797 JUMP JUMPDEST PUSH2 0x99E DUP3 DUP3 DUP6 PUSH2 0x8DE JUMP JUMPDEST PUSH0 PUSH1 0x20 SWAP1 POP PUSH1 0x1F DUP4 GT PUSH1 0x1 DUP2 EQ PUSH2 0x9CF JUMPI PUSH0 DUP5 ISZERO PUSH2 0x9BD JUMPI DUP3 DUP8 ADD MLOAD SWAP1 POP JUMPDEST PUSH2 0x9C7 DUP6 DUP3 PUSH2 0x94C JUMP JUMPDEST DUP7 SSTORE POP PUSH2 0xA2E JUMP JUMPDEST PUSH1 0x1F NOT DUP5 AND PUSH2 0x9DD DUP7 PUSH2 0x7C7 JUMP JUMPDEST PUSH0 JUMPDEST DUP3 DUP2 LT ISZERO PUSH2 0xA04 JUMPI DUP5 DUP10 ADD MLOAD DUP3 SSTORE PUSH1 0x1 DUP3 ADD SWAP2 POP PUSH1 0x20 DUP6 ADD SWAP5 POP PUSH1 0x20 DUP2 ADD SWAP1 POP PUSH2 0x9DF JUMP JUMPDEST DUP7 DUP4 LT ISZERO PUSH2 0xA21 JUMPI DUP5 DUP10 ADD MLOAD PUSH2 0xA1D PUSH1 0x1F DUP10 AND DUP3 PUSH2 0x930 JUMP JUMPDEST DUP4 SSTORE POP JUMPDEST PUSH1 0x1 PUSH1 0x2 DUP9 MUL ADD DUP9 SSTORE POP POP POP JUMPDEST POP POP POP POP POP POP JUMP INVALID LOG2 PUSH5 0x6970667358 0x22 SLT KECCAK256 ADDMOD SWAP4 0xD6 PUSH3 0x7877AC MSTORE8 PUSH9 0xFE02BDC985433BCAD8 SELFBALANCE PUSH3 0x75C9CD DUP16 0xC0 LOG0 COINBASE SHL 0xBE JUMPDEST 0x28 SLT PUSH5 0x736F6C6343 STOP ADDMOD SHR STOP CALLER "
				},
				"gasEstimates": {
					"creation": {
						"codeDepositCost": "533600",
						"executionCost": "24831",
						"totalCost": "558431"
					},
					"external": {
						"addItemToInventory(string,uint256)": "infinite",
						"getInventory()": "infinite",
						"inventory(uint256)": "infinite",
						"owner()": "2530"
					},
					"internal": {
						"clearInventory()": "infinite"
					}
				},
				"methodIdentifiers": {
					"addItemToInventory(string,uint256)": "caddd392",
					"getInventory()": "5d7f850c",
					"inventory(uint256)": "4272ee18",
					"owner()": "8da5cb5b"
				}
			},
			"storageLayout": {
				"storage": [
					{
						"astId": 10,
						"contract": "contracts/Codes/Add_Item_Inventory.sol:Solution",
						"label": "inventory",
						"offset": 0,
						"slot": "0",
						"type": "t_array(t_struct(Item)6_storage)dyn_storage"
					},
					{
						"astId": 12,
						"contract": "contracts/Codes/Add_Item_Inventory.sol:Solution",
						"label": "owner",
						"offset": 0,
						"slot": "1",
						"type": "t_address"
					}
				],
				"types": {
					"t_address": {
						"encoding": "inplace",
						"label": "address",
						"numberOfBytes": "20"
					},
					"t_array(t_struct(Item)6_storage)dyn_storage": {
						"base": "t_struct(Item)6_storage",
						"encoding": "dynamic_array",
						"label": "struct Solution.Item[]",
						"numberOfBytes": "32"
					},
					"t_string_storage": {
						"encoding": "bytes",
						"label": "string",
						"numberOfBytes": "32"
					},
					"t_struct(Item)6_storage": {
						"encoding": "inplace",
						"label": "struct Solution.Item",
						"members": [
							{
								"astId": 3,
								"contract": "contracts/Codes/Add_Item_Inventory.sol:Solution",
								"label": "name",
								"offset": 0,
								"slot": "0",
								"type": "t_string_storage"
							},
							{
								"astId": 5,
								"contract": "contracts/Codes/Add_Item_Inventory.sol:Solution",
								"label": "price",
								"offset": 0,
								"slot": "1",
								"type": "t_uint256"
							}
						],
						"numberOfBytes": "64"
					},
					"t_uint256": {
						"encoding": "inplace",
						"label": "uint256",
						"numberOfBytes": "32"
					}
				}
			},
			"userdoc": {
				"kind": "user",
				"methods": {},
				"version": 1
			}
		}
	}
}