{
	"data": {
		"bytecode": {
			"linkReferences": {},
			"object": "6080604052348015600e575f5ffd5b50425f8190555061023b806100225f395ff3fe608060405234801561000f575f5ffd5b5060043610610055575f3560e01c80632f13b60c1461005957806335f3b3111461007757806379599f9614610081578063d8270dce1461008b578063da284dcc146100a9575b5f5ffd5b6100616100c7565b60405161006e9190610128565b60405180910390f35b61007f6100d3565b005b6100896100eb565b005b610093610103565b6040516100a09190610159565b60405180910390f35b6100b1610108565b6040516100be9190610159565b60405180910390f35b5f600154421015905090565b620151805f546100e3919061019f565b600181905550565b620151805f546100fb91906101d2565b600181905550565b5f5481565b60015481565b5f8115159050919050565b6101228161010e565b82525050565b5f60208201905061013b5f830184610119565b92915050565b5f819050919050565b61015381610141565b82525050565b5f60208201905061016c5f83018461014a565b92915050565b7f4e487b71000000000000000000000000000000000000000000000000000000005f52601160045260245ffd5b5f6101a982610141565b91506101b483610141565b92508282019050808211156101cc576101cb610172565b5b92915050565b5f6101dc82610141565b91506101e783610141565b92508282039050818111156101ff576101fe610172565b5b9291505056fea26469706673582212203138e4b1fe7271ed515ec9d8cec238ea81f25a3578d46b3a24983edde7e208b564736f6c634300081c0033",
			"opcodes": "PUSH1 0x80 PUSH1 0x40 MSTORE CALLVALUE DUP1 ISZERO PUSH1 0xE JUMPI PUSH0 PUSH0 REVERT JUMPDEST POP TIMESTAMP PUSH0 DUP2 SWAP1 SSTORE POP PUSH2 0x23B DUP1 PUSH2 0x22 PUSH0 CODECOPY PUSH0 RETURN INVALID PUSH1 0x80 PUSH1 0x40 MSTORE CALLVALUE DUP1 ISZERO PUSH2 0xF JUMPI PUSH0 PUSH0 REVERT JUMPDEST POP PUSH1 0x4 CALLDATASIZE LT PUSH2 0x55 JUMPI PUSH0 CALLDATALOAD PUSH1 0xE0 SHR DUP1 PUSH4 0x2F13B60C EQ PUSH2 0x59 JUMPI DUP1 PUSH4 0x35F3B311 EQ PUSH2 0x77 JUMPI DUP1 PUSH4 0x79599F96 EQ PUSH2 0x81 JUMPI DUP1 PUSH4 0xD8270DCE EQ PUSH2 0x8B JUMPI DUP1 PUSH4 0xDA284DCC EQ PUSH2 0xA9 JUMPI JUMPDEST PUSH0 PUSH0 REVERT JUMPDEST PUSH2 0x61 PUSH2 0xC7 JUMP JUMPDEST PUSH1 0x40 MLOAD PUSH2 0x6E SWAP2 SWAP1 PUSH2 0x128 JUMP JUMPDEST PUSH1 0x40 MLOAD DUP1 SWAP2 SUB SWAP1 RETURN JUMPDEST PUSH2 0x7F PUSH2 0xD3 JUMP JUMPDEST STOP JUMPDEST PUSH2 0x89 PUSH2 0xEB JUMP JUMPDEST STOP JUMPDEST PUSH2 0x93 PUSH2 0x103 JUMP JUMPDEST PUSH1 0x40 MLOAD PUSH2 0xA0 SWAP2 SWAP1 PUSH2 0x159 JUMP JUMPDEST PUSH1 0x40 MLOAD DUP1 SWAP2 SUB SWAP1 RETURN JUMPDEST PUSH2 0xB1 PUSH2 0x108 JUMP JUMPDEST PUSH1 0x40 MLOAD PUSH2 0xBE SWAP2 SWAP1 PUSH2 0x159 JUMP JUMPDEST PUSH1 0x40 MLOAD DUP1 SWAP2 SUB SWAP1 RETURN JUMPDEST PUSH0 PUSH1 0x1 SLOAD TIMESTAMP LT ISZERO SWAP1 POP SWAP1 JUMP JUMPDEST PUSH3 0x15180 PUSH0 SLOAD PUSH2 0xE3 SWAP2 SWAP1 PUSH2 0x19F JUMP JUMPDEST PUSH1 0x1 DUP2 SWAP1 SSTORE POP JUMP JUMPDEST PUSH3 0x15180 PUSH0 SLOAD PUSH2 0xFB SWAP2 SWAP1 PUSH2 0x1D2 JUMP JUMPDEST PUSH1 0x1 DUP2 SWAP1 SSTORE POP JUMP JUMPDEST PUSH0 SLOAD DUP2 JUMP JUMPDEST PUSH1 0x1 SLOAD DUP2 JUMP JUMPDEST PUSH0 DUP2 ISZERO ISZERO SWAP1 POP SWAP2 SWAP1 POP JUMP JUMPDEST PUSH2 0x122 DUP2 PUSH2 0x10E JUMP JUMPDEST DUP3 MSTORE POP POP JUMP JUMPDEST PUSH0 PUSH1 0x20 DUP3 ADD SWAP1 POP PUSH2 0x13B PUSH0 DUP4 ADD DUP5 PUSH2 0x119 JUMP JUMPDEST SWAP3 SWAP2 POP POP JUMP JUMPDEST PUSH0 DUP2 SWAP1 POP SWAP2 SWAP1 POP JUMP JUMPDEST PUSH2 0x153 DUP2 PUSH2 0x141 JUMP JUMPDEST DUP3 MSTORE POP POP JUMP JUMPDEST PUSH0 PUSH1 0x20 DUP3 ADD SWAP1 POP PUSH2 0x16C PUSH0 DUP4 ADD DUP5 PUSH2 0x14A JUMP JUMPDEST SWAP3 SWAP2 POP POP JUMP JUMPDEST PUSH32 0x4E487B7100000000000000000000000000000000000000000000000000000000 PUSH0 MSTORE PUSH1 0x11 PUSH1 0x4 MSTORE PUSH1 0x24 PUSH0 REVERT JUMPDEST PUSH0 PUSH2 0x1A9 DUP3 PUSH2 0x141 JUMP JUMPDEST SWAP2 POP PUSH2 0x1B4 DUP4 PUSH2 0x141 JUMP JUMPDEST SWAP3 POP DUP3 DUP3 ADD SWAP1 POP DUP1 DUP3 GT ISZERO PUSH2 0x1CC JUMPI PUSH2 0x1CB PUSH2 0x172 JUMP JUMPDEST JUMPDEST SWAP3 SWAP2 POP POP JUMP JUMPDEST PUSH0 PUSH2 0x1DC DUP3 PUSH2 0x141 JUMP JUMPDEST SWAP2 POP PUSH2 0x1E7 DUP4 PUSH2 0x141 JUMP JUMPDEST SWAP3 POP DUP3 DUP3 SUB SWAP1 POP DUP2 DUP2 GT ISZERO PUSH2 0x1FF JUMPI PUSH2 0x1FE PUSH2 0x172 JUMP JUMPDEST JUMPDEST SWAP3 SWAP2 POP POP JUMP INVALID LOG2 PUSH5 0x6970667358 0x22 SLT KECCAK256 BALANCE CODESIZE 0xE4 0xB1 INVALID PUSH19 0x71ED515EC9D8CEC238EA81F25A3578D46B3A24 SWAP9 RETURNDATACOPY 0xDD 0xE7 0xE2 ADDMOD 0xB5 PUSH5 0x736F6C6343 STOP ADDMOD SHR STOP CALLER "
		},
		"gasEstimates": {
			"creation": {
				"codeDepositCost": "114200",
				"executionCost": "22269",
				"totalCost": "136469"
			},
			"external": {
				"creationTime()": "2468",
				"expirationTime()": "2491",
				"expire()": "infinite",
				"isExpired()": "2424",
				"onTime()": "infinite"
			}
		},
		"methodIdentifiers": {
			"creationTime()": "d8270dce",
			"expirationTime()": "da284dcc",
			"expire()": "79599f96",
			"isExpired()": "2f13b60c",
			"onTime()": "35f3b311"
		}
	},
	"abi": [
		{
			"inputs": [],
			"stateMutability": "nonpayable",
			"type": "constructor"
		},
		{
			"inputs": [],
			"name": "creationTime",
			"outputs": [
				{
					"internalType": "uint256",
					"name": "",
					"type": "uint256"
				}
			],
			"stateMutability": "view",
			"type": "function"
		},
		{
			"inputs": [],
			"name": "expirationTime",
			"outputs": [
				{
					"internalType": "uint256",
					"name": "",
					"type": "uint256"
				}
			],
			"stateMutability": "view",
			"type": "function"
		},
		{
			"inputs": [],
			"name": "expire",
			"outputs": [],
			"stateMutability": "nonpayable",
			"type": "function"
		},
		{
			"inputs": [],
			"name": "isExpired",
			"outputs": [
				{
					"internalType": "bool",
					"name": "",
					"type": "bool"
				}
			],
			"stateMutability": "view",
			"type": "function"
		},
		{
			"inputs": [],
			"name": "onTime",
			"outputs": [],
			"stateMutability": "nonpayable",
			"type": "function"
		}
	]
}